:1000000010C100000C94A51E0C94F01E27C1000026
:1000100025C1000023C1000021C100001FC1000054
:100020001DC100001BC100000C94A71A0C9461199B
:1000300015C1000013C1000011C100000FC1000074
:100040000DC100000C94561209C1000007C1000048
:1000500005C1000003C1000001C100000C94722919
:10006000FDC00000FBC00000F9C00000F7C00000A8
:10007000F5C00000F3C00000F1C00000EFC00000B8
:10008000EDC000000C945728E9C00000E7C0000054
:100090000C947B15E3C00000E1C00000DFC000004D
:1000A000DDC00000DBC00000D9C00000080B00026A
:1000B0000202010009040000010202000005240000
:1000C0001001052401010104240206052406000193
:1000D0000705810310004009040100020A00000026
:1000E0000705020240000007058302400000005E91
:1000F000BCE2613FDD83C29C7E20A3FD1F419DC306
:10010000217FFCA2401E5F01E3BD3E6082DC237DB7
:100110009FC1421CFEA0E1BF5D0380DE3C62BEE0E9
:10012000025CDF81633D7C22C09E1D43A1FF461817
:10013000FAA427799BC584DA3866E5BB5907DB85C5
:100140006739BAE406581947A5FB7826C49A653B77
:10015000D987045AB8E6A7F91B45C6987A24F8A6A9
:10016000441A99C7257B3A6486D85B05E7B98CD2D7
:10017000306EEDB3510F4E10F2AC2F7193CD114F85
:10018000ADF3702ECC92D38D6F31B2EC0E50AFF137
:10019000134DCE90722C6D33D18F0C52B0EE326C69
:1001A0008ED0530DEFB1F0AE4C1291CF2D73CA9497
:1001B0007628ABF517490856B4EA6937D58B570945
:1001C000EBB536688AD495CB2977F4AA4816E9B7F7
:1001D000550B88D6346A2B7597C94A14F6A8742A29
:1001E000C896154BA9F7B6E80A54D7896B351201A2
:1001F0000002EF02014041233680000101020301A9
:1002000041726475696E6F204C4C43004172647595
:10021000696E6F204C656F6E6172646F0004030934
:10022000040011241FBECFEFDAE0DEBFCDBF12E025
:10023000A0E0B1E0EEEEFEE502C005900D92A4351F
:10024000B107D9F726E0A4E5B2E001C01D92A93CB0
:10025000B207E1F70E94BC290C94752FD1CE60E063
:100260008091C3040E94C52661E0809104050E942C
:10027000C52661E08091C3040E94C52660E080919C
:10028000C3040E94C52660E0809104050E94C52633
:1002900088E490E00C94B21CCF93DF9300D000D0A0
:1002A00000D0CDB7DEB78093C3046093040596E019
:1002B000E1E2F1E0DE01119601900D929A95E1F7ED
:1002C000E1E0F0E0EC0FFD1FE40FF11D9081909351
:1002D000280561E070E00E94752661E070E0809181
:1002E00004050E94752626960FB6F894DEBF0FBE51
:1002F000CDBFDF91CF91B3CFCF92DF92EF92FF923C
:100300000F931F93CF93DF93182F092F80915402DF
:10031000811113C00E946629609311057093120524
:10032000809313059093140581E080935402C12FAC
:10033000D02F8E01025F1F4F21C00E94662960935B
:1003400018057093190580931A0590931B05C090AA
:100350001105D0901205E0901305F0901405DC0112
:10036000CB018C199D09AE09BF09893B9B40A105B2
:10037000B105E8F274DF10925402D9CF8AE090E020
:100380000E94B21C809128050E942227899399938C
:1003900082E390E00E94B21C61E08091C3040E945D
:1003A000C52682E190E00E94B21C60E08091C30407
:1003B0000E94C526C017D10709F7DF91CF911F9181
:1003C0000F91FF90EF90DF90CF900895FC01908106
:1003D0009E5F908342E450E06CEA70E080E80C9409
:1003E0001419EEEFFFE72591349181E02B3F3C4D4E
:1003F00009F080E00895CF93DF93CDB7DEB728975B
:100400000FB6F894DEBF0FBECDBFE22F29833A832B
:100410004B835C836D837E838F839887E13A61F49D
:10042000313209F088C047E050E06CE071E080E0D4
:100430000E94141981E080C0E13209F07CC08B81F8
:10044000333271F48B819C81A0E0B0E0809308018D
:1004500090930901A0930A01B0930B0181E06CC055
:10046000303241F467E070E08CE091E00E943B198B
:1004700081E062C0323209F05CC080931301B1DFC9
:10048000811103C0E0E0F8E002C0EEEFFAE08091F5
:100490000C0190910D01A0910E01B0910F01803BD4
:1004A0009440A105B10531F58091130180FD22C072
:1004B000EE3F8AE0F80751F080819181873727E786
:1004C000920721F09093FF0A8093FE0A87E797E74F
:1004D0009183808380916000809355029BE088E146
:1004E0000FB6F894A895809360000FBE90936000BB
:1004F00081E022C08081918187379747D1F4A89508
:1005000080916000886180936000809155028093A3
:100510006000EE3F8AE0F80741F08091FE0A90917A
:10052000FF0A9183808381E007C01092FF0A109236
:10053000FE0A81E001C080E028960FB6F894DEBF85
:100540000FBECDBFDF91CF910895209113012223DB
:1005500041F0AB01BC0183E00E9476181816190621
:1005600044F081E090E0909307018093060180E0E1
:1005700090E00895CF93DF931F92CDB7DEB78983C4
:1005800061E070E0CE010196E0DF0F90DF91CF9146
:1005900008951092800085E080938100109282007F
:1005A000109285001092840010926F00089580913F
:1005B000560290915702A0915802B0915902892B8E
:1005C0008A2B8B2B09F464C080EF0E94521B8DE0B4
:1005D0000E94521B80E00E94521B80912B050E94BA
:1005E000521B809156028F770E94521B80915602B7
:1005F00090915702A0915802B091590227E0B69508
:10060000A795979587952A95D1F78F770E94521BCA
:100610008091560290915702A0915802B0915902D0
:100620003EE0B695A795979587953A95D1F78F7740
:100630000E94521B8091560290915702A09158023D
:10064000B091590245E1B695A795979587954A953A
:10065000D1F78F770E94521B8091560290915702DA
:10066000A0915802B09159025CE1B695A795979573
:1006700087955A95D1F70E94521B87EF0E94521B13
:10068000109256021092570210925802109259027C
:10069000089580912B050E94F3268823D1F3809141
:1006A00084009091850090935F0280935E02109287
:1006B00085001092840080915E0290915F020797FE
:1006C0000497F8F480912B050E94F3268111FACF4C
:1006D000809184009091850090935F0280935E02E8
:1006E000109285001092840080915E0290915F02CA
:1006F0009C01275031092430310528F04997039790
:1007000020F08FEF089580E0089581E008950F9321
:100710001F93CF93DF9310925602109257021092BC
:10072000580210925902C8E0D0E0B3DF81114AC0EC
:100730002197D9F7C6E0D0E0ACDF813009F042C0A4
:100740002197D1F7A6DF81113DC0A3DF8130D1F51C
:10075000CFE0D0E001E010E09CDF8130F9F4C80187
:100760000C2E02C0880F991F0A94E2F7092E000C84
:10077000AA0BBB0B40915602509157026091580250
:1007800070915902842B952BA62BB72B8093560280
:1007900090935702A0935802B09359022197E0F624
:1007A0008091560290915702A0915802B09159023F
:1007B000AA27BB278093560290935702A093580212
:1007C000B0935902DF91CF911F910F9108958093BB
:1007D0002B05109285001092840080912B050E94B9
:1007E000F3268823A1F080918400909185008B31BD
:1007F000964098F380E09FEFA0E0B0E0809356022F
:1008000090935702A0935802B09359020895109202
:1008100085001092840080912B050E94F326882386
:10082000D1F3809184009091850090935F02809332
:100830005E02109285001092840080915E02909179
:100840005F028C589109049790F580912B050E94C6
:10085000F3268111FACF80918400909185009093C6
:100860005F0280935E021092850010928400809156
:100870005E0290915F029C012454310925303105BC
:1008800008F445CF8297039790F480912B050E943E
:10089000F3268823D1F38091840090918500909372
:1008A0005F0280935E02109285001092840008958A
:1008B0008F929F92AF92BF92CF92DF92EF92FF9270
:1008C000CF936C01C62F0E94541C4B015C010D2C70
:1008D000000CEE08FF0861E08C2F0E94C526809175
:1008E0005A0290915B020E94B21C60E08C2F0E9421
:1008F000C52680915A0290915B020E94B21C0E9410
:10090000541CDC01CB0188199909AA09BB098C1573
:100910009D05AE05BF05F8F2CF91FF90EF90DF90F7
:10092000CF90BF90AF909F908F9008958F929F929D
:10093000AF92BF92CF92DF92EF92FF926C01F62EB0
:100940000E94541C4B015C0160E08F2D0E94C52663
:100950000D2C000CEE08FF080E94541CDC01CB019A
:1009600088199909AA09BB098C159D05AE05BF0513
:1009700098F3FF90EF90DF90CF90BF90AF909F9053
:100980008F900895E62FF0E0E25CFE4FE0819E2F0D
:10099000977041E050E09A0101C0220F9A95EAF762
:1009A000F0E093E0F695E7959A95E1F7BF01660FC1
:1009B000771FE60FF71FB096922F90953281932301
:1009C00092839181292B2183682F70E0CA010E94B4
:1009D0002E2D072E000C880B990B0E94652B20E012
:1009E00030E04AE754E40E94532C20E030E040EC31
:1009F00050E40E94622A0E94322B60935A02709344
:100A00005B0280935C0290935D020895AF92BF9267
:100A1000CF92DF92EF92FF920F931F93CF936B01D0
:100A20007C01C42F5901642F86E2ACDF6C2F88E271
:100A300093E23EDF6C2F84E991E178DF00E010E083
:100A40006C2F80E392E00A151B05A4F4F7FE06C0A4
:100A50002FDF6C2F80E496E069DF05C029DF6C2F63
:100A600080E392E063DFCC0CDD1CEE1CFF1C0F5F0B
:100A70001F4FE6CF1DDF6C2F80E090E0CF911F91DC
:100A80000F91FF90EF90DF90CF90BF90AF904ECF3F
:100A9000E82FF0E0EE5AFE4FE0812E2F277081E024
:100AA00090E001C0880F2A95EAF7F0E093E0F69510
:100AB000E7959A95E1F79F01220F331FE20FF31F8D
:100AC000B096982F90952281922392839181892BC1
:100AD00081830895AF92BF92CF92DF92EF92FF92FF
:100AE0000F931F93CF93DF936C01C62FD0E0CC0FF1
:100AF000DD1F8E0106581D4FF801808191810097FE
:100B000029F00E94E52EF801118210828E01005A10
:100B10001D4FF80180819181009729F00E94E52EF8
:100B2000F801118210829091050580912105981796
:100B300019F084E090E002C083E090E08C9D5001C9
:100B40008D9DB00C9C9DB00C1124B0920705A09215
:100B50000605C5010E944D2E8C01FE01E658FD4F91
:100B600091838083892BE9F0C5010E944D2E7C0181
:100B7000FE01E05AFD4F91838083892B91F0A501FE
:100B800060E070E0C8010E946E2FA50160E070E097
:100B9000C7010E946E2FD0922A05C092290581E0DC
:100BA00019C0C8010E94E52EFE01E658FD4F1182D2
:100BB0001082C05ADD4F888199810E94E52E1982EA
:100BC0001882109207051092060510922A051092BD
:100BD000290580E0DF91CF911F910F91FF90EF9059
:100BE000DF90CF90BF90AF90089531E02091050540
:100BF00090912105291330E0482F4295469546955E
:100C0000437040930505982F92959370909321051A
:100C1000282F26952695237020930E0583708093A8
:100C20001D0581E080932005E62FF0E0EE0FFF1F09
:100C3000E658FD4F0190F081E02DEF2B49F049136C
:100C400080E0381729F08091290590912A0542CF3C
:100C500008950F931F93CF93C82F80914F038F3F19
:100C600099F0809123058C130FC0809124059091F9
:100C700025058617970741F480912605841304C043
:100C800080912705821729F1822F8B01C0932305BC
:100C9000709325056093240540932605209327052E
:100CA00040931C056C2FA1DF6C2FC80113DFC82FE8
:100CB000882369F080914F0387FD06C0E9DE60E07C
:100CC00080914F030E94C52681E0809317058C2FE9
:100CD00000C0CF911F910F9108956111D9CEE82FD7
:100CE000F0E0EE5AFE4F8081E82FF0E093E0F695B9
:100CF000E7959A95E1F79F01220F331FE20FF31F4B
:100D0000B096282F277081E090E001C0880F2A95C7
:100D1000EAF7809591819823918392818923828338
:100D20000895CF93C82F80911705882331F08091C3
:100D30004F0387FD02C060E0D0DFC0934F03809176
:100D40001705882331F08C2FA3DE60E08C2F0E94E2
:100D5000C5268C2F90E0FC01E55DFD4FE081F0E0C1
:100D6000EE0FFF1FE35EFD4F2081318130931F05A1
:100D700020931E05FC01E550FE4F80818093BE0448
:100D8000CF9108954F925F926F927F928F929F9230
:100D9000AF92BF92CF92DF92EF92FF920F931F9389
:100DA000CF93DF93CDB7DEB729970FB6F894DEBFA8
:100DB0000FBECDBF722EC32ED42E598328E631E04C
:100DC00040E050E00E94412D4B015C01ED82FE822B
:100DD0000F8318872D813E814F8158852436310538
:100DE0004105510540F083E690E0A0E0B0E08D833E
:100DF0009E83AF83B8878D819E81AF81B885C2976E
:100E0000A109B048880F991F97FF03C0919581955C
:100E1000910924E630E0281B390B032E000C440B0B
:100E2000550B672D7C2D8D2D9981643671058105BB
:100E3000910520F063E670E080E090E00E94FF2CD6
:100E4000982F872F762F662720E137E240E050E089
:100E50000E94412D29013A01ACE3CA2ED12CE12C8C
:100E6000F12CC501B401A70196010E94412D2983EF
:100E70003A834B835C83998199872CE3A981BA815A
:100E80002A9FC0012B9F900D1124092E000CAA0B44
:100E9000BB0BA5019401281B390B4A0B5B0B942F4C
:100EA000832F722F6627A70196010E94412D898109
:100EB0008170C82ED12CDC2CCC24DA94C20ED31E27
:100EC000D7FE03C0D194C194D1080D2C000CEE08BC
:100ED000FF0880E091E0A0E0B0E09C01AD012C199A
:100EE0003D094E095F09C301B2010E94FF2CC72EC4
:100EF000D82EE92EFF249985992379F0913081F03D
:100F00009230B9F09330E1F0943011F1C982DA8275
:100F1000EB82FC825301420121C05301420104C013
:100F2000460157017301620119821A821B821C82D9
:100F300018C0C982DA82EB82FC827301620104C0AC
:100F400049825A826B827C82812C912C540109C087
:100F500049825A826B827C8246015701C12CD12C76
:100F600076018D819E81AF81B885880F991FAA1F58
:100F7000BB1F6627782F892F9A2F24E630E040E0A8
:100F800050E00E94412DDA01C90184199509A60992
:100F9000B7098C019D013695279517950795D501C1
:100FA000C401800F911FA21FB31F9927AA27BB2737
:100FB000DC0199278827C00ED11EE21EF31EFE2CED
:100FC000ED2CDC2CCC24EE24FF248C299D29AE2989
:100FD000BF2949815A816B817C81400F511F621F5B
:100FE000731FBC01CD01642B29960FB6F894DEBFA8
:100FF0000FBECDBFDF91CF911F910F91FF90EF906A
:10100000DF90CF90BF90AF909F908F907F906F9028
:101010005F904F900895CF932091290530912A0534
:101020006217730708F058C020910505C09121058B
:1010300090E050910E05A22FB0E040911D05880F61
:10104000991FFC012C1322C0E05AFD4F9B01220F77
:10105000331F620F731F20813181260F371FF90163
:10106000E50FF11D5081A20FB31F6C91862F90E008
:10107000A0E0B0E0DC0199278827952BF901E40F67
:10108000F11D2081BC01CD01622B29C0E658FD4F26
:10109000660F771F660F771F20813181260F371F5C
:1010A000A20FB31FEC91D901AC0FB11D6C91862F2B
:1010B00090E0A0E0B0E0DC0199278827BE2BF90181
:1010C000E40FF11D4081842BF901E50FF11D208112
:1010D000BC01CD01722B03C060E070E0CB01CF9169
:1010E00008951F93CF93DF93CDB7DEB729970FB63F
:1010F000F894DEBF0FBECDBF182F13DE809106051A
:10110000909107059A838983E12FF0E0EE0FFF1F8E
:10111000E658FD4F0190F081E02DDF0111968081AE
:10112000898790912005E0911E05F0911F0580911F
:10113000BE04992309F436C09081982B988790813A
:10114000809589238F838F818E8388E08D83F894A7
:1011500058856F81E0911E05F0911F0549853D81FD
:101160002E8189819A81508347FD252F3A952083CE
:10117000262F39F0441F00C000006083000000C02B
:10118000F2CF38E04D9160830000019761F7F09352
:101190001F05E0931E0549873D832E839A8389832B
:1011A00078943AC09081982B988790818095892374
:1011B0008F838F818C8388E08B8358856F814985ED
:1011C0003B812C8189819A81508347FD252F00C066
:1011D00000C0208300C000C000C000C000C0608309
:1011E0000000262F3A9541F0441F000000C000C0C7
:1011F00000C000C000C0E8CF38E04D9100C060835F
:1012000000C0019709F7F0931F05E0931E05498779
:101210003B832C839A83898329960FB6F894DEBF8B
:101220000FBECDBFDF91CF911F910895CF92DF9276
:10123000EF92FF920F931F93CF93DF9360931C0560
:101240002091290530912A05232B09F461C0A0E0E3
:10125000B0E0C0E0D0E0E82FF0E0EE0FFF1F8F011C
:1012600006581D4F9F01205A3D4F690120912905C5
:1012700030912A05C217D30708F041C0F801408118
:1012800051817A01EA0EFB1EF601208131812A0F7D
:101290003B1F4091210550E0B901640F751FFB0110
:1012A000908160911C054E0D5F1D969FB001112429
:1012B000FA01708360910E0570E0A901460F571F77
:1012C000FA01908140911C056E0D7F1D949FA00135
:1012D0001124FB01508390911D05492F50E0240FEC
:1012E000351FF901908120911C054E0D5F1D929FC5
:1012F00090011124FA01308321961396B7CFDF9124
:10130000CF911F910F91FF90EF90DF90CF90E9CE9A
:10131000DF91CF911F910F91FF90EF90DF90CF90D1
:1013200008954F925F926F927F928F929F92AF92A9
:10133000BF92CF92DF92EF92FF920F931F93CF93C2
:10134000DF9369017A01902F2091290530912A05B8
:101350006217730708F093C08701222733274D2CAB
:101360005E2C6F2C7724A0910505E0912105482F74
:1013700050E0AE1317C0FB01EE0FFF1F6E0F7F1F73
:10138000440F551FFA01E658FD4F0190F081E02D02
:10139000E60FF71FDA01A05ABD4F4D915C91640F23
:1013A000751F3FC0660F771F660F771F440F551FCD
:1013B000FA01E658FD4F0190F081E02DE60FF71F8E
:1013C000EA01C05ADD4F48815981640F751F8F2C87
:1013D0009924AA24BB24EF01CA0FD11D40911C05FA
:1013E000442351F050E0489DD001499DB00D589DD7
:1013F000B00D11244B2F01C0482D488340910505A5
:10140000EB01C40FD11D40911C05442349F050E06D
:10141000489DD001499DB00D589DB00D11248B2ED3
:10142000888240912105DB01A40FB11D0C934091EE
:101430000E05DB01A40FB11D4C9240911D05DB018F
:10144000A40FB11DCC9240911C05049F8001112472
:10145000449D200111244C9D6001112420912105FF
:10146000DF01A20FB11D1C9320910E05DF01A20F19
:10147000B11D5C9220911D05E20FF11DD0829923D0
:1014800089F0DF91CF911F910F91FF90EF90DF9046
:10149000CF90BF90AF909F908F907F906F905F9014
:1014A0004F901FCEDF91CF911F910F91FF90EF9042
:1014B000DF90CF90BF90AF909F908F907F906F9074
:1014C0005F904F9008958F929F92AF92BF92DF925C
:1014D000EF92FF920F931F93CF93DF93D82E480183
:1014E00059018091290590912A0577FD02C057FF87
:1014F00005C0AC014150510960E070E04617570744
:101500002CF4362F272FBA01432F522F009769F161
:1015100077FF02C060E070E07B018617970708F450
:101520007C0157FF02C040E050E08417950708F4A3
:10153000AC01EA012196EC16FD0650F400E0A5018D
:101540009401B7018D2DEDDE8FEFE81AF80AF3CF85
:101550008D2DDF91CF911F910F91FF90EF90DF9034
:10156000BF90AF909F908F90BCCDDF91CF911F9196
:101570000F91FF90EF90DF90BF90AF909F908F9072
:1015800008951F93CF93DF932091290530912A0569
:10159000232B19F1182FC82FD0E0CC0FDD1FFE012F
:1015A000E658FD4F409106055091070560E070E058
:1015B000808191810E946E2FC05ADD4F40910605B7
:1015C0005091070560E070E0888199810E946E2F3C
:1015D000812FDF91CF911F9184CDDF91CF911F910A
:1015E00008952F923F924F925F926F927F928F92C7
:1015F0009F92AF92BF92CF92DF92EF92FF920F93A2
:101600001F93CF93DF9300D000D01F92CDB7DEB7EA
:10161000898348015901160127014617570728F405
:10162000962F872FBA01492F582F80912905909125
:101630002A05009709F4C9C07D836C838617970734
:1016400010F49D838C838417950708F4AC014F5FD9
:101650005F4F9A018C819D81281B390B3B832A8324
:10166000C10188599E4F8819990968E671E00E9466
:101670001A2D9C0144E6429FC001439F900D112406
:101680006A817B810E941A2D6B018A819B8101975F
:10169000A9F4860E971EB40180E090E012E3E12EDB
:1016A000F12C00E010E024E630E040E050E06ADB9E
:1016B0009B01AC0100E06C817D816CC012E3E12EE6
:1016C000F12C00E010E024E630E040E050E0C501FD
:1016D000B40158DB9B01AC0100E06C817D81898104
:1016E00020DE6C807D809FEF691A790AC69C90018C
:1016F000C79C300DD69C300D11242C193D0944E6B1
:10170000489DC001499D900D11244901880E991EE4
:10171000A12CB12C8C819D8101972A813B81820F64
:10172000931F9B838A83AC0CBD1C8A819B816816A6
:101730007906F8F4C501880D991D64E670E00E94F1
:101740001A2D68597E4F80E090E012E3E12EF12CD3
:1017500000E010E024E630E040E050E013DB9B01C5
:10176000AC0100E0B3018981DCDD3FEF631A730A4D
:10177000DACF12E3E12EF12C00E010E024E630E0B5
:1017800040E050E0C201B101FDDA9B01AC0100E094
:101790006A817B818981C5DD89810F900F900F90CF
:1017A0000F900F90DF91CF911F910F91FF90EF90CD
:1017B000DF90CF90BF90AF909F908F907F906F9071
:1017C0005F904F903F902F908CCC0F900F900F9088
:1017D0000F900F90DF91CF911F910F91FF90EF909D
:1017E000DF90CF90BF90AF909F908F907F906F9041
:1017F0005F904F903F902F900895AF92BF92CF92FD
:10180000DF92EF92FF920F931F93CF93DF936623A4
:1018100009F46BC0C0912905D0912A05209709F4DD
:1018200064C0C62E062E000CDD08CC15DD0558F46C
:10183000DF91CF911F910F91FF90EF90DF90CF90AC
:10184000BF90AF909ECE182F161634F0A12CB12C5D
:101850007E01EC0CFD1C29C02197CC15DD0564F040
:10186000BE016C197D09812FD6DB9B01AC0100E024
:10187000BE01812F56DDF0CFC0E0D0E000E020E0D7
:1018800030E0A901BE01812F4CDD2196CC16DD068A
:10189000A9F7812FDF91CF911F910F91FF90EF90CA
:1018A000DF90CF90BF90AF901CCCEA14FB0478F08F
:1018B000B5016C197D09812FAEDB9B01AC0100E005
:1018C000B501812F2EDD8FEFA81AB80AEECFEC16E6
:1018D000FD06F8F600E020E030E0A901B701812F15
:1018E00020DD8FEFE81AF80AF2CFDF91CF911F9138
:1018F0000F91FF90EF90DF90CF90BF90AF90089541
:101900002F923F924F925F926F927F928F929F920F
:10191000AF92BF92CF92DF92EF92FF920F931F93FD
:10192000CF93DF9300D0CDB7DEB7382E2DB73EB7BB
:101930003A832983662309F4D9C0E0902905F09001
:101940002A05E114F10409F4D1C0862F660F990B22
:10195000B7010E941A2D282EC82E082E000CDD0873
:101960004DB65EB618160CF04EC0C601880F991F12
:10197000880F991FEDB7FEB7E81BF90B0FB6F89467
:10198000FEBF0FBEEDBF2DB73EB72F5F3F4F3901F2
:10199000590100E010E047018C189D08B401600F68
:1019A000711F832D38DBF5016193719381939193BE
:1019B0005F010F5F1F4F0C151D0584F3F1E0EF1A57
:1019C000F108EC14FD0464F0B7016C197D09832D56
:1019D00022DB9B01AC0100E0B701832DA2DCEECF3E
:1019E000E12CF12CF30121913191419151913F0171
:1019F00000E0B701832D95DCFFEFEF1AFF0AEC142E
:101A0000FD0484F36CC0D194C194D108C601880F41
:101A1000991F880F991F2DB73EB7281B390B0FB69A
:101A2000F8943EBF0FBE2DBF8DB79EB701963C0107
:101A30008C01A12CB12CAC14BD0469F0B501832D2F
:101A4000EADAF80161937193819391938F01FFEF2B
:101A5000AF1ABF0AF0CF812C912CA22C220CBB080C
:101A60006701CA0CDB1CC814D90478F0B4016A19E8
:101A70007B09832DD0DA9B01AC0100E0B401832DFA
:101A800050DC2FEF821A920AEECF8FEF9FE3E89E91
:101A90004001E99E900CF89E900C11248A189B0836
:101AA0008C0C9D1C880C991C880C991CA12CB12CA9
:101AB000CE14DF04A0F4F501E80DF91DE60DF71DC5
:101AC000208131814281538100E0B601832D29DCE0
:101AD0003FEFC31AD30A84E0A80EB11CE9CF0FB6BA
:101AE000F8945EBE0FBE4DBE832DFBDAE981FA810C
:101AF0000FB6F894FEBF0FBEEDBF0F900F90DF91B1
:101B0000CF911F910F91FF90EF90DF90CF90BF90FA
:101B1000AF909F908F907F906F905F904F903F908D
:101B20002F9008952F923F924F925F927F928F92C3
:101B30009F92AF92BF92CF92DF92EF92FF920F935C
:101B40001F93CF93DF9300D000D0CDB7DEB7782EB0
:101B50007C836B83B8018B819C814817590730F4D3
:101B60009B818C815C834B83492F582F8091290561
:101B700090912A05009709F49DC0EB81FC818E1796
:101B80009F0710F49C838B838417950708F4AC019E
:101B90001616170664F0872DF4DC00E020E03FEF16
:101BA0004FEF50E06B817C81872DBBDB67C0CA01A2
:101BB000EB81FC818E1B9F0B9A8389836C01FFEF65
:101BC000CF1ADF0AA90137FF03C05195419551098A
:101BD0004C9DC0014D9D900D5C9D900D11240E9467
:101BE0001A2D4B01672B49F0A12CB12CE12CF12CC3
:101BF000212C312C21012A943EC0EE24E394F12CB7
:101C0000EC14FD04D8F56B817C816E0D7F1D00E026
:101C100020E030E0A901872D84DB8FEFE81AF80A75
:101C2000EFCFE814F90408F040C0C50169817A815A
:101C30000E941A2D9B013327C901A0E0B0E09C014E
:101C400011270027D201C101861B970BA109B109F9
:101C5000A9019801282B00E06B817C81872D61DB35
:101C60009FEFE91AF90AEFEFAE0EB11C8B819C8150
:101C700001969C838B83EC14FD0498F2872D0F90C2
:101C80000F900F900F90DF91CF911F910F91FF90C8
:101C9000EF90DF90CF90BF90AF909F908F907F900C
:101CA0005F904F903F902F901CCA00E020E030E002
:101CB000A901D2CF0F900F900F900F90DF91CF918D
:101CC0001F910F91FF90EF90DF90CF90BF90AF905A
:101CD0009F908F907F905F904F903F902F900895AE
:101CE00004C061507109810991096115710581056F
:101CF0009105B9F70895AF92BF92CF92DF92EF921C
:101D0000FF920F931F93CF93DF9310922C051092A5
:101D10002D0510922E0510922F0510923005FC0112
:101D2000E95CFA4FC081FC01E35CFA4FD08161E0CD
:101D300070E08C2F0E94752660E08C2F0E94C526D3
:101D4000DD2371F1A12C24E2B22E34EFC32ED12C6D
:101D5000E12CF12C00E010E02D2F30E040E050E0CD
:101D600060E070E080E090E00E949E2DE6E0AE2E04
:101D7000B12CC12C0E94F12D29513C4F4F4F5F4F88
:101D80006F4F7F4F8F4F9F4F0E94A02B20E030E07E
:101D90004AE754E40E94CA2A0E94372BA1DF05C0FB
:101DA00063E070E080E090E09BDF60E070E08C2F0B
:101DB0000E94752688E290E00E94B21C00E911E0C2
:101DC0008C2F0E94F326811106C001501109C1F722
:101DD0008EEF9FEF49C000E911E08C2F0E94F3269F
:101DE000882321F001501109C1F7F2CF18E200E079
:101DF000D0E890E9E92EFF24F3948C2F0E94F3267B
:101E0000811105C081E0E81AF108B9F7E1CF0E941D
:101E1000541C6B017C0180E9A82EBB24B3948C2F49
:101E20000E94F326882329F081E0A81AB108B9F7A7
:101E3000CFCF0E94541CDC01CB018C199D09AE0947
:101E4000BF098997A105B10538F0E02FF0E0E45D06
:101E5000FA4F80818D2B8083D69511F40F5FD0E8E7
:101E6000115039F680E090E0DF91CF911F910F91F2
:101E7000FF90EF90DF90CF90BF90AF9008951092B9
:101E8000500510924F0510924D05EDE4F5E01292C9
:101E900085E0E534F807D9F70895CF93C82F60E0BF
:101EA0000E946D068C2F90E0FC01E550FE4F2081D2
:101EB00020934E05FC01E55DFD4FE081F0E0EE0F63
:101EC000FF1FE15FFD4F80819181909344058093D6
:101ED0004305D5DFCF910895FF920F931F93CF93C2
:101EE000DF93F0904E05C0914305D0914405F894DE
:101EF00089810F2D00958023898378941DE71150E7
:101F000029F182E090E00E94B21C88818F21B9F310
:101F1000F8948A8180238A8389818F2989837894A0
:101F200080EE91E00E94B21CF89489810823098315
:101F300086E490E00E94B21C8881F82211E009F04A
:101F400010E078948AE991E00E94B21C812FDF9121
:101F5000CF911F910F91FF9008950F931F93CF93EF
:101F6000DF9300914E05C0914305D0914405F8944C
:101F70008981802B89838A81102F109581238A8300
:101F800083E090E00E94B21C8981182319838AE0C3
:101F900090E00E94B21CC881789485E390E00E9492
:101FA000B21CC02381E009F480E0DF91CF911F9142
:101FB0000F9108950F931F93CF93DF9308E010E0E4
:101FC000C0E0D1E0CADF8111CD2BDD0F0150110936
:101FD000C9F78C2FDF91CF911F910F9108951F9317
:101FE000CF93DF9310914E05C0914305D0914405E6
:101FF000912F909580FF16C0F8948A8189238A8357
:102000008981812B89838AE090E00E94B21C8A81B9
:10201000182B1A83789487E390E0DF91CF911F917A
:102020000C94B21CF8948A8189238A838981812B3C
:10203000898381E490E00E94B21C8A81182B1A8364
:10204000789485E090E0DF91CF911F910C94B21CC1
:10205000FF920F931F93CF93DF93F82E062FC8E0C4
:10206000D0E011E081E09F2D912309F480E0B7DFFB
:10207000110F2197B9F7011113C0F894E0914305AE
:10208000F0914405918180914E058095982391832C
:10209000E0914305F09144059281892382837894ED
:1020A000DF91CF911F910F91FF9008950F931F9390
:1020B000CF93DF938C0160E085E5CADFE801085F1C
:1020C0001F4F60E08991C4DFC017D107D1F7DF91BE
:1020D000CF911F910F910895DF92EF92FF920F938E
:1020E0001F93CF93DF9320914F05211104C07C01F2
:1020F000F3DE811108C01092500510924F05109226
:102100004D0580E05BC060E080EFA2DFD1E000E041
:10211000D12CC1E022DF182F20DF113019F48130DB
:10212000C1F432C0202F30E018131DC0809150053B
:10213000C81738F4F901EB5BFA4F80818D2349F41D
:1021400002C0C81731F010E0C93060F4C0934D05EB
:1021500009C0E02FF0E0EB5BFA4F80818D2B80838C
:1021600011E009C0DC2EF901EB5BFA4F80812D2FC5
:10217000209528232083812F32DFCF5FDD0F11F4DC
:102180000F5FD1E0083030F2C13408F4B4CFD09200
:102190005005D11003C081E080934F058091450523
:1021A000882309F4A8CFA5E4B5E0F7018DE495E014
:1021B0002D9121938A179B07D9F781E0DF91CF9169
:1021C0001F910F91FF90EF90DF900895DC0180E068
:1021D000615040F09D91E82FE927F0E0E251FF4F78
:1021E0008491F6CF0895AF92BF92CF92DF92EF9293
:1021F000FF920F931F93CF93DF93CDB7DEB7649712
:102200000FB6F894DEBF0FBECDBF5C01CE010D96B8
:1022100063DF811102C033DE32C067E0CE010D966C
:10222000D5DF9C8989132BC08D85803111F08832D0
:1022300031F552DECE010D9639DF61E084E408DF2E
:102240004BDECE010D9632DF60E08EEB01DF8E01BA
:102250000F5F1F4F6E018AE0C80ED11C7801AADE05
:10226000D7018D937D01AC15BD05C9F708DEF501D9
:10227000D8018D918D018193CA16DB06C9F764964A
:102280000FB6F894DEBF0FBECDBFDF91CF911F9187
:102290000F91FF90EF90DF90CF90BF90AF90089597
:1022A0008F929F92AF92BF92DF92EF92FF920F9325
:1022B0001F93CF93DF9300D01F92CDB7DEB78091ED
:1022C00054050E94F326882339F061E070E080E035
:1022D00090E00E94791CF3CF8E010F5F1F4F53E0F7
:1022E000D52E812C912C5401839447E0E42EF12CBF
:1022F00061E0809151050E94C526809154050E949D
:10230000F326882379F0F8012281D501C4010E2C2F
:1023100004C0880F991FAA1FBB1F0A94D2F7822BF3
:1023200082830FC0D501C4010E2C04C0880F991FF1
:10233000AA1FBB1F0A94D2F78095F80192818923C6
:10234000828360E0809151050E94C526F1E0EF1A7A
:10235000F10870F6DA9401501109D110C6CF61E08E
:10236000809151050E94C52660E0809151050E9430
:10237000C5262B816A81862F90E0A0E0B0E0BA2FBD
:10238000A92F982F8827A22B2981822BBC01CD0150
:1023900080580F900F900F90DF91CF911F910F9168
:1023A000FF90EF90DF90BF90AF909F908F90089537
:1023B000CF92DF92EF92FF92CF93C9E1C12CD12C43
:1023C00076016EDFC60ED71EE81EF91EC150C9F792
:1023D000C701B60129E130E040E050E00E94632DE2
:1023E000CA01B901CF91FF90EF90DF90CF9008958F
:1023F000CF93DF93962FEA018093540560935105A4
:1024000061E070E0892F0E94752660E070E08091A5
:1024100054050E94752661E0809151050E94C526F1
:1024200084E690E00E94B21C60E0809151050E9419
:10243000C526BEDFBDDF60935505709356058093BA
:10244000570590935805D0935305C0935205DF91DB
:10245000CF910895CF92DF92EF92FF922091540591
:10246000FC012083A5DFC0905505D0905605E09073
:102470005705F09058056C197D098E099F090E9437
:10248000652B6B017C01609152057091530580E0D2
:1024900090E00E94632B9B01AC01C701B6010E9432
:1024A000CA2AFF90EF90DF90CF9008951F920F926D
:1024B0000FB60F9211242F933F934F935F936F9317
:1024C0007F938F939F93AF93BF93EF93FF938091ED
:1024D0009E0287FF05C010928500109284002DC0D7
:1024E00020919E02022E000C330B8091140190E08B
:1024F0002817390714F580919E02082E000C990BBD
:10250000FC01EE0FFF1F8E0F9F1FFC01E156FD4FD8
:10251000808186FF12C080919E02082E000C990BCC
:10252000FC01EE0FFF1F8E0F9F1FFC01E156FD4FB8
:10253000808160E08F730E94C52680919E028F5F2C
:1025400080939E0220919E02022E000C330B8091FC
:10255000140190E0281739070CF040C080919E02CA
:102560008C30E4F5209184003091850080919E02AA
:10257000082E000C990BFC01EE0FFF1F8E0F9F1F02
:10258000FC01E156FD4F81819281820F931F909350
:1025900089008093880080919E02082E000C990B80
:1025A000FC01EE0FFF1F8E0F9F1FFC01E156FD4F38
:1025B000808186FF2EC080919E02082E000C990B10
:1025C000FC01EE0FFF1F8E0F9F1FFC01E156FD4F18
:1025D000808161E08F730E94C5261BC080918400BA
:1025E00090918500049680349C4938F480E49CE9FD
:1025F000909389008093880009C080918400909115
:102600008500049690938900809388008FEF8093D3
:102610009E02FF91EF91BF91AF919F918F917F911A
:102620006F915F914F913F912F910F900FBE0F903F
:102630001F901895EF92FF920F931F93CF93C82F7F
:102640007B018A0161E070E00E947526CF73809162
:102650009F02807CC82BC0939F0280E292E08E197B
:102660009F0997FD039695958795959587958093F6
:102670009D0280E699E0801B910B97FD039695954E
:1026800087959595879580939C0280E090E0FC016A
:10269000EE0FFF1FE80FF91FE156FD4F208126FDC9
:1026A00013C001968C30910591F71092800082E062
:1026B000809381001092850010928400B19A8091DD
:1026C0006F00826080936F0080919F02806480938E
:1026D0009F0280E0CF911F910F91FF90EF9008959E
:1026E000AC0180919D0228E830E0281B310987FD6C
:1026F0003395C901880F991F880F991F48175907EB
:102700008CF080919C0228E532E0281B310987FD7E
:102710003395220F331F220F331FCA0124173507A9
:102720000CF4C90102972FB7F894092E000CAA0BDC
:10273000BB0B34E0880F991FAA1FBB1F3A95D1F736
:1027400043E0B695A795979587954A95D1F79093CD
:10275000A1028093A0022FBF0895CF92DF92EF9243
:10276000FF92803222E092070CF03FC097FD06C036
:10277000853B91052CF084EB90E002C080E090E076
:1027800020919D0248E850E06A01C21AD10827FD55
:10279000D394CC0CDD1CCC0CDD1C0D2C000CEE08F5
:1027A000FF0840919C0228E532E0241B310947FDD7
:1027B0003395220F331F220F331FA901330F660BEE
:1027C000770B9A01AB012C193D094E095F09DC0119
:1027D0000E94982D24EB30E040E050E00E94632DF1
:1027E000C20ED31EE41EF51EC601FF90EF90DF90CF
:1027F000CF9076CF8CE08093140180E090E028EBBE
:102800003BE0FC01EE0FFF1FE80FF91FE156FD4F03
:102810003283218301968C30910599F708958F9228
:102820009F92AF92BF92CF92DF92EF92FF92CF939F
:10283000C82F69017A01232B242B252B21F1AB0111
:1028400062E30E9446270E9466294B015C010E94B8
:102850006629DC01CB0188199909AA09BB098C15E5
:102860009D05AE05BF0598F340E050E062E38C2F74
:10287000CF91FF90EF90DF90CF90BF90AF909F905F
:102880008F900C944627F894AB0162E30E94462790
:102890007894CF91FF90EF90DF90CF90BF90AF9062
:1028A0009F908F900895AC01E0919B05F0919C055D
:1028B0003097E1F09091C8028091C7029817B0F06C
:1028C00090E0292F30E02617370754F4DA01A20FE1
:1028D000B31F8C91D901A55ABA4F8C939F5FF1CF4A
:1028E0001092C8026093C702CB0109940895E09149
:1028F0005905F0915A05309729F01092C5021092AF
:10290000C402099408951092360381E08093340341
:102910001092330361E082E00E94C52661E083E00B
:102920000E94C526E9EBF0E080818E7F8083808164
:102930008D7F808388E48093B80085E48093BC0019
:102940000895413208F045C0909136039111FCCFB3
:1029500091E090933603209334032FEF2093C90224
:1029600010920E03240F20930D0390933503909142
:102970003503880F892B8093350380913303813091
:1029800071F410923303809135038093BB008091E2
:10299000BC0083FDF8CF85EC8093BC0003C085EEBE
:1029A0008093BC00809136038130E1F380910E0367
:1029B000841710F440910E03AFE0B3E0962FFB01B3
:1029C0008E2F891B841718F48D918193F9CF842F52
:1029D000089580E008950F93413208F04CC0909123
:1029E00036039111FCCF32E0309336030093340369
:1029F0003FEF3093C90210920E0340930D03562F00
:102A0000AFE0B3E0FB013E2F351B341718F43191D2
:102A10003D93F9CF1092350330913503880F832B06
:102A20008093350380913303813071F41092330326
:102A3000809135038093BB008091BC0083FDF8CF6B
:102A400085EC8093BC0003C085EE8093BC002223FC
:102A500021F0809136038230D1F38091C9028F3FFB
:102A600079F08091C902803241F08091C9028033AF
:102A700031F094E005C091E003C092E001C093E022
:102A8000892F0F9108954091EB02262F30E0240FFB
:102A9000311D21323105DCF4209136032430C9F494
:102AA000FC0180E090E0861758F43091EB02219110
:102AB000DC01A351BD4FA30FB11D2C930196F3CFA1
:102AC0008091EB02680F6093EB0280E0089581E053
:102AD000089582E0089585ED8093BC008091BC004C
:102AE00084FDFCCF10923603089585EC8093BC00E2
:102AF0001092360308951F920F920FB60F92112471
:102B00002F933F934F935F936F937F938F939F93F5
:102B1000AF93BF93EF93FF938091B900887F803686
:102B200009F4ACC070F5883209F461C090F48031CA
:102B300009F455C038F4882309F40BC1883009F42E
:102B40004EC00AC1883109F452C0803209F465C010
:102B500003C1803409F471C050F4803309F45DC0BE
:102B6000883309F0F9C08093C902BFDFF5C0803512
:102B700009F457C0883509F468C0883409F0ECC0FE
:102B8000EAC0883909F4DBC0A8F4883709F476C0B4
:102B900038F4883609F472C0803709F46FC0DCC09D
:102BA000883809F4CCC0803909F471C0803809F044
:102BB000D3C06DC0803B09F497C038F4803A09F463
:102BC0007BC0883A09F490C0C7C0803C09F4BBC000
:102BD000883C09F4B8C0883B09F49BC0BDC0809113
:102BE00035038093BB0085EC8093BC00B5C0909109
:102BF0000E0380910D039817A0F5E0910E0381E07C
:102C00008E0F80930E03F0E0E15FFC4F8081809394
:102C1000BB0085EC8093BC009FC08093C9025BDF42
:102C20009BC0E0910E0381E08E0F80930E03809194
:102C3000BB00F0E0E15FFC4F808390910E03809138
:102C40000D03981708F07BC076C0E0910E0381E079
:102C50008E0F80930E038091BB00F0E0E15FFC4F8C
:102C6000808380913403811176C081E080933303A7
:102C700084EA8093BC00109236036EC083E0809398
:102C800036031092CA0285EC8093BC0065C0809127
:102C9000CA02803208F053C0E091CA0281E08E0F70
:102CA0008093CA028091BB00F0E0E553FD4F808322
:102CB00085EC8093BC0050C018DF8091CA0280323E
:102CC00030F4E091CA02F0E0E553FD4F10826091CC
:102CD000CA0270E0E0912F03F09130038BEC92E098
:102CE00009951092CA0238C084E08093360310928E
:102CF000EC021092EB02E0913103F091320309955E
:102D00008091EB02811105C081E08093EB0210926B
:102D1000ED02E091EC0281E08E0F8093EC02F0E096
:102D2000E351FD4F80818093BB009091EC02809134
:102D3000EB02981720F485EC8093BC000DC085E869
:102D40008093BC0009C085EC8093BC0010923603D0
:102D500003C01092C902BFDEFF91EF91BF91AF9106
:102D60009F918F917F916F915F914F913F912F91A3
:102D70000F900FBE0F901F9018951092C8021092DE
:102D8000C7021092C5021092C402BDDD87E794E12C
:102D9000909332038093310383E594E19093300361
:102DA00080932F030895462F613208F040E221E01E
:102DB0006BE575E0C6DD1092C8028093C7020895E6
:102DC00091E09093C3028093C6021092C5021092C4
:102DD000C40208950F93CF93C82F0C2F21E0409188
:102DE000C4026BE775E08091C602F5DD9091C402E4
:102DF000992311F08111F1CF1092C5021092C402F3
:102E00001092C302CF910F910895CF93DF931F9239
:102E1000CDB7DEB789838091C3028823A1F080916A
:102E2000C4028032B8F48091C502E82FF0E0E55882
:102E3000FA4F998190838F5F8093C5028093C4027B
:102E400081E090E009C061E0CE0101961CDE81E0E6
:102E500090E002C080E090E00F90DF91CF91089564
:102E60008091C70290E02091C802821B91090895C9
:102E70009091C8028091C702981750F4E92FF0E0B2
:102E8000E55AFA4F208130E09F5F9093C80202C05C
:102E90002FEF3FEFC90108958F929F92AF92BF929B
:102EA000CF92DF92EF92FF92CF93DF9390E0FC01FD
:102EB000E554FA4FC081FC01E356FA4FD081880FE8
:102EC000991F880F991FFC01ED55FA4FC080D180E2
:102ED000E280F3802C2F277081E090E0AC0102C0EB
:102EE000440F551F2A95E2F79A01EC2FF0E033E0EA
:102EF000F695E7953A95E1F7AF01440F551FE40FBA
:102F0000F51FB096322F30954281342332833181C0
:102F1000232B2183ED2FF0E073E0F695E7957A956A
:102F2000E1F79F01220F331FE20FF31FB0962D2F01
:102F3000277001C0880F2A95EAF780959181982320
:102F4000918392818923828360E08C2F0E94C52621
:102F500082E090E007D561E08C2F0E94C5268AE0D0
:102F600090E000D560E08C2F0E94C5269DD44B01D7
:102F70005C018D2F0E94F326882321F095D44B010C
:102F80005C0119C091D4DC01CB0188199909AA0907
:102F9000BB09C816D906EA06FB0658F7EFCF84D45A
:102FA000DC01CB0188199909AA09BB09C816D90601
:102FB000EA06FB0628F08D2F0E94F3268111EFCF41
:102FC00073D4681979098A099B0928E330E040E045
:102FD00050E00E94412DC901DF91CF91FF90EF9009
:102FE000DF90CF90BF90AF909F908F9008954091C9
:102FF000440350914503209142033091430342170B
:103000005307B4F49091E8009570E1F39091E800D3
:1030100092FD19C08093F100809144039091450383
:1030200001968F739927892B19F48EEF8093E8000E
:1030300080914403909145030196909345038093BA
:10304000440381E0089580E00895EF92FF920F938A
:103050001F93CF93DF937C01062F10E0C8010196E8
:10306000880FC5DF83E0C3DFE7010E0D1F1DC0170A
:10307000D10759F0FE018491BADFF82E80E0B7DF66
:103080008F2121968111F3CF01C081E0DF91CF9193
:103090001F910F91FF90EF9008959093CD00809332
:1030A000CC0088E18093C9008EE08093CA00089527
:1030B0009FB79093C305F89487708093E9000895B3
:1030C0008091C3058FBF0895CF93F2DF8091E80010
:1030D000C82FC07285FD02C0F3DF05C0F1DF80910B
:1030E000F200C0E4C81B8C2FCF9108957F928F927D
:1030F0009F92AF92BF92CF92DF92EF92FF920F9387
:103100001F93CF93DF93B82E7B01D42ED52F8091C0
:103110004803811103C08FEF9FEF6DC0809146037C
:1031200080FF05C08091E00082608093E0000D2D5B
:103130001D2FC12C8AEFA82E8B2D8072882E8B2DEF
:103140008074782E9AE3992E0115110509F44FC069
:103150008B2DBADFC82F811107C0AA94AA20D9F2FB
:1031600081E090E0C6D3F0CF90E0081719070CF487
:10317000C02F8B2D9DDF8091E80085FFE5CF8C2F40
:1031800090E0081B190B882029F0C150A8F010927C
:10319000F100FBCFF701B7FE07C0C15058F02491F2
:1031A0002093F1003196F9CFC15020F02191209366
:1031B000F100FACFE80EF91ECC2021F09092E80041
:1031C000C12C13C08091E80085FD09C09092E800F1
:1031D000CC24C3940115110541F0C12C06C0011582
:1031E000110519F471109092E8006ADFADCFC1109B
:1031F000AFCF8D2D9D2FDF91CF911F910F91FF901C
:10320000EF90DF90CF90BF90AF909F908F907F9086
:1032100008951092E9001092450310924403909390
:103220004303809342030895DF92EF92FF920F933E
:103230001F93CF93DF938A018078D82E7B01E40E11
:10324000F51EEB01CE15DF0569F0DD2019F0FE015A
:10325000849101C08881CBDE21968111F3CF8FEF5D
:103260009FEF01C0C801DF91CF911F910F91FF9097
:10327000EF90DF900895CF93DC019B018BEF211538
:103280003105E1F0A9012134310514F040E450E0AA
:103290009091E80092FFFCCF942FFB01E21BF30B0F
:1032A000EA0FFB1F915028F0C091F100C0833196C6
:1032B000F9CF8093E800241B350BE1CFCB01CF91F0
:1032C00008951F920F920FB60F921124EF92FF9262
:1032D0000F931F932F933F934F935F936F937F931E
:1032E0008F939F93AF93BF93EF93FF93CF93DF930E
:1032F000CDB7DEB76297DEBFCDBF1092E9008091F7
:10330000E80083FFFDC089E0FE013A96815029F074
:103310009091F10090833196F9CF82EF8093E8008D
:103320008A8587FF05C09091E80090FFFCCF03C01D
:103330009EEF9093E800982F907609F0B2C09B859D
:103340002C853D851C850D8591110EC0803839F482
:10335000809147038093F1001092F100CAC010924F
:10336000F1001092F100C5C0913061F48111C1C02B
:103370002130310509F0BDC0809147038D7F8093D6
:103380004703B7C0933061F48111B3C021303105D8
:1033900009F0AFC080914703826080934703A9C0C2
:1033A000953041F48091E80080FFFCCF10681093C5
:1033B000E3009FC0963009F048C0E888F9880230E1
:1033C00051F580E090E025DF1982CE0101960E9440
:1033D000E601298189E089830A83809144039091E1
:1033E000450309969C838B832D8381E08E831F8206
:1033F00080EA88878AEF8987C7010BDF49E050E0C0
:10340000BE016F5F7F4F80E00FDF1A8ACE014296C8
:103410000E94E6016EC0C701FCDE013009F45FC006
:10342000033009F06AC0112309F45CC0123029F49A
:1034300060E18CE092E009DE4FC0113009F05DC020
:103440006BE080E092E001DE47C0973009F455C0A0
:10345000983021F481E08093F1004BC0993009F05D
:1034600048C0837009F049C0E6E1F1E081E021E065
:1034700036E39081992361F08093E9002093EB007B
:1034800091919093EC003093ED008F5F873089F736
:103490008EE78093EA001092EA008C8580934803BF
:1034A00028C088899989B5DE88E0FE013A96DE0158
:1034B000119601900D928A95E1F78E857F85811195
:1034C0001CC01D827E8329813A814B815C8160E032
:1034D0008F8198850E94FB01882379F00AC06EEEE7
:1034E00071E002C06DE172E0FB01449150E080E8C0
:1034F0009BDE8EEF8093E80003C081E28093EB00B7
:1035000062960FB6F894DEBF0FBECDBFDF91CF91AC
:10351000FF91EF91BF91AF919F918F917F916F91AB
:103520005F914F913F912F911F910F91FF90EF90DD
:103530000F900FBE0F901F9018958093E900809117
:10354000F200882319F08AE38093E80008951F921F
:103550000F920FB60F9211242F933F934F935F93C7
:103560006F937F938F939F93AF93BF93CF93EF937B
:10357000FF93C091E1008091E100837F8093E1009F
:10358000C3FF0FC01092E90081E08093EB0010921E
:10359000EC0082E38093ED001092480388E0809372
:1035A000F000C2FF02C083E0C8DFC4FF12C08091F8
:1035B000E2008E7E81608093E2008091E1008F7E48
:1035C0008093E100809146038E7E80618093460364
:1035D00013C0C0FF11C08091E2008E7E8061809395
:1035E000E2008091E1008E7E8093E10080914603AD
:1035F0008E7E816080934603FF91EF91CF91BF91C2
:10360000AF919F918F917F916F915F914F913F917A
:103610002F910F900FBE0F901F90189581E080930F
:10362000D70080EA8093D80082E189BD09B400FE0A
:10363000FDCF80E98093D8001092E00010924803FB
:103640008CE08093E2007894089580914803089577
:103650009FB7F89480914803882369F082E08093B3
:10366000E9002BE68091E80085FD09C082FF03C0D8
:103670002093E800F7CF9FBF8FEF9FEF08958091D1
:10368000F1002091E80025FD03C02BE62093E8001F
:103690009FBF90E0089508958091C000881F8827FB
:1036A000881F08950C94BA0208958091C600089569
:1036B000AF92BF92CF92DF92EF92FF920F931F9340
:1036C000CF93DF9328E0829F70011124082F000F11
:1036D000000F000FC0E0D0E010E082E0E81AF1082F
:1036E000C62ED12CAA24A394B12CC7018C0F9D1FE8
:1036F0004297B0F4C6010C2E02C0959587950A94A6
:10370000E2F780FF0DC08C2F800F0E94F3268823E4
:1037100039F0C5010C2E01C0880F0A94EAF7182B66
:103720002196C830D10509F7812FDF91CF911F91E4
:103730000F91FF90EF90DF90CF90BF90AF900895E2
:103740005F926F927F928F929F92AF92BF92CF9231
:10375000DF92EF92FF920F931F93CF93DF934A0173
:10376000FB015080452B19F488248A94982C7B0106
:103770003B01680E791EC0E0D0E000E010E087E079
:10378000C82ED12CE614F70489F10815190508F0A4
:103790004AC05701F70181917F010C2E01C0880FAB
:1037A0000A94EAF785298F777DDF0F5F1F4FF501B8
:1037B000808190E096012C1B3D0B02C0959587956A
:1037C0002A95E2F7582E2196C730D105D8F28016F7
:1037D000910651F0852D8F7765DF0F5F1F4F551CC8
:1037E0005524551C2797F0CF8401CCCF2097D9F0D2
:1037F00008151905C0F481E090E001C0880FCA9552
:10380000EAF781508521DF91CF911F910F91FF90B1
:10381000EF90DF90CF90BF90AF909F908F907F9070
:103820006F905F903FCFDF91CF911F910F91FF90ED
:10383000EF90DF90CF90BF90AF909F908F907F9050
:103840006F905F900895FF920F931F93CF93DF9334
:10385000C82F162FF42E052F80EF24DF8C2F22DFA8
:10386000CF2DD02FCE01810F911D8C01C017D10714
:1038700041F040E050E0BE0181E090E061DF219640
:10388000F5CF87EFDF91CF911F910F91FF900ACF76
:10389000FC0101900020E9F73197BF01681B790B0B
:1038A000AC0181E7D0CF08953FB7F8948091980498
:1038B00090919904A0919A04B0919B0426B5A89B7D
:1038C00005C02F3F19F00196A11DB11D3FBFBA2FB2
:1038D000A92F982F8827820F911DA11DB11DBC0112
:1038E000CD0142E0660F771F881F991F4A95D1F7D7
:1038F00008958F929F92AF92BF92CF92DF92EF92F4
:10390000FF926B017C01D0DF4B015C01C114D1043B
:10391000E104F104F1F0C7DFC7DFDC01CB01881956
:103920009909AA09BB09883E9340A105B10570F326
:1039300021E0C21AD108E108F10888EE880E83E080
:10394000981EA11CB11CC114D104E104F10421F79B
:10395000DDCFFF90EF90DF90CF90BF90AF909F9022
:103960008F9008958230910538F0880F991F880F45
:10397000991F05970197F1F7089510927F0610920D
:103980005606109255061092CC051092CB05109257
:103990000E061092CA0580E48093800608951F9356
:1039A000CF93DF9300D000D0CDB7DEB78091C405B0
:1039B0008823D9F06091C70580E07ADE1091C705B1
:1039C000182380911106181781F0812F90E09C83B5
:1039D0008B8380E967DE42E050E0BE016D5F7F4F80
:1039E00082E090E0ADDE109311068091C50588233A
:1039F000D9F06091C80581E05BDE1091C8051823FD
:103A000080911206181781F0812F90E09A838983A4
:103A100081E948DE42E050E0BE016F5F7F4F82E007
:103A200090E08EDE109312060F900F900F900F9083
:103A3000DF91CF911F910895CF93DF9300D0CDB741
:103A4000DEB77A836983803170F46115704458F46D
:103A5000806E28DE42E050E0BE016F5F7F4F82E063
:103A600090E06EDE06C08FEF1DDE8FEF1BDE8FEF66
:103A700019DE0F900F90DF91CF9108951F93CF9390
:103A8000DF9300D000D000D0CDB7DEB712EF8EE0CC
:103A9000810F163030F50E946F26823011F5212FEC
:103AA00030E080914C0390E0012E02C095958795FF
:103AB0000A94E2F780FF15C086E0E7E2F1E0DE015C
:103AC000119601900D928A95E1F7E1E0F0E0EC0F9C
:103AD000FD1FE20FF31F80810E942227BC01812F6E
:103AE000ABDF1F5F163099F626960FB6F894DEBF4F
:103AF0000FBECDBFDF91CF911F910895EF92FF923E
:103B00000F931F93CF93DF93D82F8B01C42FF22EE7
:103B10006F3F7F4F71F08D2F53D9802F76D98F2D26
:103B200059D980914A0390914B03009721F01ADFF5
:103B300002C000E010E06C2F8D2F35D9EC2EF12C57
:103B40008FD9E816F9060CF08BD9D093CD050093E8
:103B5000CE0586D9892B61F462E06C0F4DEC55E0FF
:103B600087E7DF91CF911F910F91FF90EF906BCE80
:103B70000DEC15E0C8018D5C95408E159F0564F72E
:103B800077D9F80182836CD90F5F1F4F892B91F78A
:103B9000E3CFCF93C0E08EEE8C0F823028F466E046
:103BA00070E08C2F0E947526CF5FC431A1F781E0B1
:103BB00080934903CF91E1C81F93CF93DF93809106
:103BC0009802909199029C012F5F3F4F3093990288
:103BD0002093980220919A0230919B02281739076E
:103BE0000CF057C08091960290919702892B09F4AE
:103BF00050C08091950290E00E947B0EBC01909194
:103C00009502492F50E0FA01E95CFA4FD081FA01A0
:103C1000EF5CFA4FC0811092990210929802909333
:103C200094029F5F909395022091960230919702A3
:103C3000215031094217530714F010929502672B57
:103C400041F590912C0580912D05890F90912E05BD
:103C5000890F90912F05890F11E0909130058913FC
:103C600001C010E080EF1EDD85E61CDD8D2F1ADD22
:103C70008C2F18DDCCE2D5E0899114DD85E0C033CE
:103C8000D807D1F7812F0EDD87EFDF91CF911F91FC
:103C900009CDDF91CF911F910895CF93DF9380914C
:103CA0003C0390913D039C012F5F3F4F30933D03B8
:103CB00020933C0320913A0330913B0328173907A6
:103CC0000CF040C010923D0310923C0380914003E1
:103CD00090914103892BB1F180913803DDD8EC013B
:103CE000209138033091390320933703C90101969D
:103CF000909339038093380380914003909141035E
:103D000001972817390724F01092390310923803CD
:103D100080EFC8DC83E6C6DCE0913703F0E0E554D1
:103D2000FA4F8081BFDC8C2F8F77BCDCCE01880FEF
:103D3000892F881F990B91958F77B4DC87EFDF91DE
:103D4000CF91B0CCDF91CF9108951F920F920FB613
:103D50000F9211240F931F932F933F934F935F93D1
:103D60006F937F938F939F93AF93BF93EF93FF9343
:103D7000E09A0E94662900910A0510910B05209196
:103D80000C0530910D05DC01CB01801B910BA20BC2
:103D9000B30B883C9105A105B10528F083E00E9492
:103DA000E7030E94D7020E94662960930A05709378
:103DB0000B0580930C0590930D05FF91EF91BF913A
:103DC000AF919F918F917F916F915F914F913F91B3
:103DD0002F911F910F910F900FBE0F901F9018956C
:103DE0001F920F920FB60F9211240F931F932F93D0
:103DF0003F934F935F936F937F938F939F93AF9373
:103E0000BF93EF93FF93E19A0E94662900910A0500
:103E100010910B0520910C0530910D05DC01CB01B3
:103E2000801B910BA20BB30B883C9105A105B1053A
:103E300028F082E00E94E7030E94D7020E946629D0
:103E400060930A0570930B0580930C0590930D0504
:103E5000FF91EF91BF91AF919F918F917F916F9162
:103E60005F914F913F912F911F910F910F900FBE36
:103E70000F901F901895CF92DF92EF92FF920F93C1
:103E80001F93CF93DF93CDB7DEB7CD58D1090FB6CF
:103E9000F894DEBF0FBECDBF80911506893769F556
:103EA0008091CB059091CC05039708F081C5C09017
:103EB0001D01D0901E01F60101900020E9F7319715
:103EC0008F010C191D0980EFEDDB89E7EBDB82E048
:103ED000E9DB86E0E7DBE12CF12CE016F10609F4E2
:103EE00064C5B6016E0D7F1D40E050E081E090E0BA
:103EF00027DC2FEFE21AF20AF0CF0091CB05015038
:103F0000843609F4E4C170F48135E9F020F48D3091
:103F100009F42EC24DC58F3509F46AC1823609F401
:103F200093C146C58637C1F038F4893609F406C115
:103F3000803709F437C13CC5883709F4E7C08A37B0
:103F400009F40BC135C580EFADDB82E5ABDB81E069
:103F5000A9DB87EFA7DB2CC51091170615FD28C537
:103F60000E948314809116062091170626FB2227B3
:103F700020F991E02927912F9871983051F130F470
:103F8000911116C50E94E01612E007C0903109F4A5
:103F90003DC0983109F46DC00BC5101790F4212F66
:103FA00030E0F901E95EF94F808187958827879590
:103FB000F901EA5EF94F9081890F0E9405171E5F93
:103FC000ECCF81E00E94EA1683E191E00197F1F7DE
:103FD000EFC44091190660911806063079F470E03C
:103FE00030E8439F600D711D112440911B064795D9
:103FF0004427479590911A06490F06C047954427D4
:104000004795460F6FEF7FEF79DDD2C4E0911C0139
:10401000E73024F086E691E03BDCCAC490911906B3
:1040200030911806063081F4632F70E040E8949FC9
:10403000600D711D112490911B06979599279795F6
:1040400040911A06940F06C0979599279795930F5C
:104050006FEF7FEFEF5FE0931C0135E0E302F001CB
:104060001124E95AF94F80837283618393832483F7
:104070009FC420911C0112163CF490E0622F022E86
:10408000000C770B35E00FC08FEF80931C0190C4BC
:10409000349FF001359FF00D1124E95AF94F40810A
:1040A000841739F09F5F492F50E06417750784F734
:1040B00090E085E0492F50E0641775071CF19830B7
:1040C000F8F4FA0131968E9FD0018F9FB00D112424
:1040D000A95AB94F3C91849FF001859FF00D11249E
:1040E000E95AF94F308311964D915C9112975283A2
:1040F000418313963C911397338314963C913483F8
:104100009F5FD8CF215020931C0152C4023080F011
:10411000209117068091160690E040E8249F800DBC
:10412000911D1124009721F090934B0380934A0333
:104130008091490381113CC42CDD3AC480EFB2DA8E
:104140008AE6B0DA12EF163010F4812F01C08FE743
:10415000A9DA1F5F1630B9F728C48091170620919D
:10416000160630E070E8879F200D311D1124309332
:10417000200120931F012115310509F419C488E29B
:1041800090E0B9010E941A2D70933B0360933A03AB
:1041900080ED97E0B9010E941A2D70939B02609305
:1041A0009A0206C4053008F403C4109116068EEF77
:1041B000810F823108F0FCC380911A0640911906E4
:1041C00050E090E8899F400D511D11248091180600
:1041D0006091170670E0E0E88E9F600D711D11245C
:1041E000812F0E941A1364E070E0812F7ED5E0C316
:1041F000909116068091170691111BC090911B0695
:1042000020911A0630E0F0E89F9F200D311D112407
:10421000032E000C440B550B909119066091180663
:1042200070E0E0E89E9F600D711D11240E940F1444
:10423000BFC3913009F0BCC320E030E0A90160E0C9
:1042400070E00E940F14B4C32091400330914103E9
:10425000263031050CF0ACC38091160680933F03E5
:104260009091170690933E03F901EE0FFF1FEE0F9A
:10427000FF1FED55FA4F609119064091180650E066
:1042800070E8679F400D511D1124052E000C660B30
:10429000770B4083518362837383F901E554FA4FAE
:1042A0008083F901E356FA4F90836CE070E01DD5EE
:1042B0006CE070E080913E0318D5809140039091AE
:1042C00041030196909341038093400371C3209171
:1042D000960230919702263031050CF045C080914E
:1042E000160690911706492F50E04631510531F4DA
:1042F00041E0F901E35CFA4F40830DC04B305105BA
:1043000031F44AE0F901E35CFA4F408304C087E7E7
:1043100091E0BEDA4DC3F901E95CFA4F8083F901FF
:10432000EF5CFA4F90836FE070E0DFD480919602EB
:10433000909197020E947B0E892B09F039C36091FE
:104340009602709197026F5F7F4F70939702609310
:10435000960280919A0290919B020E942E2D70935A
:104360009B0260939A0224C38CEA91E091DA20C305
:1043700080911606FE0131967F019FE711929A9572
:10438000E9F78E3051F50E94831400E011E0812F8F
:104390000E94E01681E00E94EA16811105C0F70133
:1043A000E00FF11D10830F5F1F5F1F3781F780EF54
:1043B00079D98DE077D98EE075D9802F73D96701CF
:1043C00010E0C6018E199F09801791070CF0EDC20D
:1043D000F60181916F0166D9F4CF81119DC0809162
:1043E0001706813009F04DC0E0911806E0931505DD
:1043F000F0E0E951FE4F8081E82FF0E033E0F695E0
:10440000E7953A95E1F79F01220F331FE20FF31F63
:10441000B096282F277081E090E001C0880F2A9580
:10442000EAF78095918198239183928189238283F1
:104430000E94C90280911505823081F480914E035B
:104440008111B6C281E080934E03F894E99A80917D
:1044500069008860809369007894AAC2833009F06B
:10446000A7C280914D038111A3C281E080934D03C7
:10447000F894E89A8091690082608093690078944A
:1044800097C2811195C24091190650E060E070E03A
:10449000FCE1440F551F661F771FFA95D1F78091F5
:1044A0001A0690E0A0E0B0E015E1880F991FAA1F5E
:1044B000BB1F1A95D1F7482B592B6A2B7B2B809168
:1044C0001B0690E0A0E0B0E00EE0880F991FAA1F45
:1044D000BB1F0A95D1F7482B592B6A2B7B2B809158
:1044E0001C0690E0A0E0B0E027E0880F991FAA1F0B
:1044F000BB1F2A95D1F7842B952BA62BB72B209188
:104500001D062F77BC01CD01622B20E230E04091E7
:1045100018060E9406054CC2873109F02DC1809112
:10452000170681111DC0F090180600911906F0E8D9
:104530000F9F8001112480911A068F77082B80EF3E
:10454000B1D88DE0AFD887E1ADD822E54FEFB80103
:104550008F2D0E942906882309F425C281E023C2F9
:10456000813009F049C000911D0610E020E030E0E4
:1045700065E1000F111F221F331F6A95D1F780914B
:104580001E0690E0A0E0B0E07EE0880F991FAA1F11
:10459000BB1F7A95D1F7082B192B2A2B3B2B809127
:1045A0001F0690E0A0E0B0E0E7E0880F991FAA1F87
:1045B000BB1FEA95D1F7082B192B2A2B3B2B809197
:1045C00020068F77082B40911B0670E8479FA001BB
:1045D000112480911C068F77482B6091190680E882
:1045E000689FB001112480911A068F77682B809103
:1045F00018060E94630ADCC1823039F46091190602
:10460000809118060E941609D3C1833009F079C041
:10461000C0902106D12CE12CF12CF5E1CC0CDD1C55
:10462000EE1CFF1CFA95D1F78091220690E0A0E0E5
:10463000B0E01EE0880F991FAA1FBB1F1A95D1F783
:10464000C82AD92AEA2AFB2A8091230690E0A0E012
:10465000B0E007E0880F991FAA1FBB1F0A95D1F78A
:10466000C82AD92AEA2AFB2A809124068F77C82AE9
:1046700000911D0610E020E030E085E1000F111FE1
:10468000221F331F8A95D1F780911E0690E0A0E08B
:10469000B0E04EE0880F991FAA1FBB1F4A95D1F7C3
:1046A000082B192B2A2B3B2B80911F0690E0A0E0B2
:1046B000B0E057E0880F991FAA1FBB1F5A95D1F78A
:1046C000082B192B2A2B3B2B809120068F77082B48
:1046D00040911B0690E8499FA001112480911C067F
:1046E0008F77482B60911906E0E86E9FB001112486
:1046F00080911A068F77682B809118060E94F10A24
:1047000057C1843039F460911906809118060E94CF
:10471000FD0B4EC1853039F4609119068091180661
:104720000E94800C45C18630F9F400911E0610E00D
:1047300020911D0630E040911B06F0E84F9FA0013C
:10474000112480911C068F77482B6091190680E810
:10475000689FB001112480911A068F77682B809191
:1047600018060E94920D24C1873009F021C1809162
:1047700018060E94C10A1CC1893169F5809117068B
:10478000893009F015C1F09018068F2D0E944D0F49
:104790008E0100581F4F8CE0F80111928A95E9F7BD
:1047A000C8010E94F31080EF0E94521B8DE00E940E
:1047B000521B89E10E94521B8F2D0E94521BF8014F
:1047C00080810E94521BF80181810E94521B87EF59
:1047D0000E94521BEDC0813209F092C080911706F1
:1047E000863151F440911A064E506091190680911D
:1047F00018060E944C01DCC0823109F0D9C08E013C
:1048000000581F4F8EE0F80111928A95E9F7C80110
:104810000E947C0180EF0E94521B8DE00E94521B7F
:1048200081E20E94521BF80180819181880F892FBB
:10483000881F990B8F770E94521BF80180818F7718
:104840000E94521BF80182819381880F892F881F53
:10485000990B8F770E94521BF80182818F770E94FB
:10486000521BF80184819581880F892F881F990B2D
:104870008F770E94521BF80184818F770E94521B10
:10488000F80186819781880F892F881F990B8F7770
:104890000E94521BF80186818F770E94521BF801FB
:1048A00080859185880F892F881F990B8F770E94AB
:1048B000521BF80180858F770E94521BF801828578
:1048C0009385880F892F881F990B8F770E94521B21
:1048D000F80182858F770E94521BF80184859585A7
:1048E000880F892F881F990B8F770E94521BF80120
:1048F00084858F770E94521B87EF0E94521B58C0FD
:10490000833209F055C080911706873081F44091B9
:104910001A06F0E84F9FA001112480911B06482B36
:1049200060911906809118060E94F81141C08A30E2
:1049300009F03EC0CE0180589F4F0E942A126B01A1
:104940007C0120E030E0A90121D687FF04C0F7FAFE
:10495000F094F7F8F094C701B60189D6162F072F07
:1049600080EF0E94521B8DE00E94521B83E20E9446
:10497000521BC058DF4F8881C058D0400E94521B44
:10498000802F0E94521B812F0E94521B20E030E09A
:1049900048EC52E4C701B60186D769D6862F64E693
:1049A0000E940E2D892F0E94521B87EF0E94521BDE
:1049B000C357DF4F0FB6F894DEBF0FBECDBFDF91F8
:1049C000CF911F910F91FF90EF90DF90CF900895BE
:1049D0001F93CF93DF93182FEB018091800690E017
:1049E00068177907A0F0E0910805F091090581E0CA
:1049F000309799F08093140680910F0590911005DF
:104A000009958091800690E0C817D90728F4CB5EFD
:104A1000D94F188380E001C081E0DF91CF911F91D1
:104A20000895CF92DF92FF920F931F93CF93DF935E
:104A300090917F069923D9F0873F51F410927F0619
:104A4000DF91CF911F910F91FF90DF90CF9013CA0C
:104A50006091CB057091CC05BBDF8091CB05909127
:104A6000CC0501969093CC058093CB0530C1609125
:104A70005506709156066115710509F4EFC087FD62
:104A8000EDC0615071097093560660935506A0DF22
:104A90008091550690915606892B09F018C1809196
:104AA000CA05882309F413C1803D09F4CAC030F453
:104AB0008039B1F1803C09F4A5C0CDC0843F09F430
:104AC00052C0853F09F48EC0803E09F0C4C01091E9
:104AD0000E06143108F0BFC0809116068770C09191
:104AE0001506CF77D0E090E8899FC00DD11D112425
:104AF00000911706812FF3D0833039F0843009F00C
:104B0000AAC0CE010E94AD13A6C08EEF810F8231E4
:104B100008F0A1C0602F6F77AE01812FB7D19BC085
:104B2000809115060091160610E090E8899F000D0F
:104B3000111D1124F0900E06FF0CFF0CFF0CC0E0BD
:104B4000D0E0CC24C394D12CB6018C2F0C2E01C004
:104B5000660F0A94EAF760238F0D17D12196C830AB
:104B6000D10591F778C0D09115060D2F10E0C091B6
:104B700016068C2FB4D08F3709F46DC08EEF8C0FD2
:104B80008231E8F4EC2FE695E695E6952C2F277018
:104B9000F0E0E953FA4F81E090E001C0880F2A95D8
:104BA000EAF70115110519F00B30110521F4908178
:104BB000892B808304C08095908189238083B801EC
:104BC0008C2F93D0D23009F046C0CE5081E090E0D7
:104BD00001C0880FCA95EAF790914C03892B809306
:104BE0004C0339C0C09116068EEF8C0F823198F5B8
:104BF000D09115068C2F73D0813069F56D2F8C2FD5
:104C0000C4D029C040910E06463028F58091150683
:104C100050914C0381110BC081E090E001C0880FDE
:104C20004A95EAF78095852380934C0314C021E0D0
:104C300030E001C0220F4A95EAF7252B20934C0360
:104C40000AC0E0910E06E33030F4F0E0EC53FA4F86
:104C50008091150680831092CA0539C0803F28F4E0
:104C6000982F9F7090930E06807F803EB1F038F4AD
:104C7000803C29F1803D19F1803949F517C0843F06
:104C8000A9F0853F99F0803F11F581E080937F0680
:104C90001092CC051092CB051AC023E030E030937F
:104CA0005606209355068093CA0511C022E030E0D5
:104CB00030935606209355068093CA0508C021E01C
:104CC00030E030935606209355068093CA05DF9155
:104CD000CF911F910F91FF90DF90CF900895E82F13
:104CE000F0E0EF57F94F8081089590E0FC01EF5715
:104CF000F94F20812F3709F447C060836115710592
:104D000021F06130710511F10895FC01E15CFD4F66
:104D10008081E82FF0E033E0F695E7953A95E1F7EA
:104D20009F01220F331FE20FF31FB096282F277029
:104D300081E090E001C0880F2A95EAF78095918183
:104D4000982391839281892382830895FC01E15CF9
:104D5000FD4FE0818E2F877001C0660F8A95EAF7BC
:104D6000F0E083E0F695E7958A95E1F7CF01880FAB
:104D7000991FE80FF91FB096862F8095928189239D
:104D800082838181682B61830895E82FF0E0E15CE4
:104D9000FD4FE0819E2F977021E030E0A90102C015
:104DA000440F551F9A95E2F7CA01F0E093E0F6959B
:104DB000E7959A95E1F79F01220F331FE20FF31F4A
:104DC000B096282F20953281322332833181382BBF
:104DD0003183662321F09281892B82830895828119
:104DE000282322830895E82FF0E0E15CFD4FE08165
:104DF0002E2F277081E090E001C0880F2A95EAF7F6
:104E0000F0E093E0F695E7959A95E1F79F01220F80
:104E1000331FE20FF31FDF019096982F90951196A4
:104E20002C911197292311962C93119712962C915E
:104E30001297922312969C9390A1982381E009F4F3
:104E400080E0089590917A00906490937A00909118
:104E50007A0094FFFCCF85FF02C090E203C09091DE
:104E60007B009F7D90937B008F71806480937C009A
:104E700080917A00806480937A0080917A0086FD28
:104E8000FCCF809178009091790008953F924F92E5
:104E90005F926F927F928F929F92AF92BF92CF92CA
:104EA000DF92EF92FF920F931F93CF93DF93C82F60
:104EB000D0E0FE01E15CFD4F0081902F977021E072
:104EC00030E0690101C0CC0C9A95EAF710E073E07C
:104ED000169507957A95E1F7F801EE0FFF1F0E0F73
:104EE0001F1F005E1F4F3C2C3094F80192819321CC
:104EF000928391819C299183B4E0CC0FDD1FBA95F8
:104F0000E1F7662319F0643639F461E03EDFC15BF6
:104F1000DC4F1F861E8678C0FE01E15BFC4F88ECEB
:104F200090E09387828787E390E095878487411597
:104F3000510539F053874287378726873783268381
:104F400004C01786168617821682E62EF12CC15BE6
:104F5000DC4FFD86EC862A853B85032E000C440B36
:104F6000550B60E970ED83E090E0ADD549015A0141
:104F7000F1E08F1A9108A108B108C501B401A5D3C9
:104F800020E030E048EC52E405D32B013C01B701AE
:104F90000F2C000C880B990B98D39B01AC01C3011B
:104FA000B20181D4E3D45ED32B013C0179836883C1
:104FB000C501B4018AD320E030E048EC52E4EAD2E3
:104FC0004B015C0164E670E06E197F09072E000C4E
:104FD000880B990B7AD39B01AC01C501B40163D452
:104FE000C5D440D37B836A835D824C821986188640
:104FF0008E819F81F801892B21F08281C82AC2828B
:1050000003C0828138223282EFE4F3E080E090E056
:1050100020E030E0468557854130510541F4DC0100
:10502000AA0FBB1FAB56B94F2D933C9301962F5F30
:105030003F4F70962431310569F790939004809327
:105040008F04F894109290001092910010929500A5
:105050001092940081E090E09093990080939800E2
:10506000809191008860809391008091910081608F
:105070008093910080919100826080939100809153
:1050800071008460809371007894DF91CF911F91BB
:105090000F91FF90EF90DF90CF90BF90AF909F90D7
:1050A0008F907F906F905F904F903F9008951F92E8
:1050B0000F920FB60F9211244F925F927F928F92B0
:1050C0009F92AF92BF92CF92DF92EF92FF920F9397
:1050D0001F932F933F934F935F936F937F938F9380
:1050E0009F93AF93BF93CF93DF93EF93FF930E9470
:1050F0004C1B882361F08091910490919204019659
:1051000090939204809391040E94551BF0CF40909D
:1051100095065090960680908F049090900495E9A3
:10512000A92E96E0B92E8501E0E0F0E0A201A4E00E
:10513000440F551FAA95E1F7E815F9050CF054C086
:10514000E801A991B9918E01BD0184E0660F771F36
:105150008A95E1F7CB01815B9C4F7C01EC012885AE
:1051600039852130310581F5CD01815C9D4FEC0100
:105170007880872D90E0C3E096958795CA95E1F7F2
:105180006C01CC0CDD1C8C0D9D1D8096E701EE8022
:10519000FF80D72DD7707D2EEC01EF2839F0FA80F3
:1051A00001C0220F7A94EAF72F2907C0FA8001C0C4
:1051B000220F7A94EAF720952F212A83CB01815B75
:1051C0009C4FEC0119861886615B7C4F415B5C4FFC
:1051D000EB012C813D81EA018C819D81821793072F
:1051E0000CF02D013196A2CFFA01E15BFC4F448116
:1051F000558120E030E061E070E028153905F4F5D4
:10520000F501819191915F01DC01E4E0AA0FBB1FE0
:10521000EA95E1F7FD01E15BFC4FC481D581C41B38
:10522000D50BD583C483CD2B31F5C681D78121978A
:1052300019F4C281D38102C0C081D181D583C483D6
:10524000A15BBC4F1696CD91DC911797FC01FF270F
:1052500084E0EE0FFF1F8A95E1F7E15BFC4F718759
:10526000608781E090E0CD2B11F080E090E0179610
:105270009C938E9316972F5F3F4FBFCF509399000B
:10528000409398001092950010929400FF91EF9136
:10529000DF91CF91BF91AF919F918F917F916F914E
:1052A0005F914F913F912F911F910F91FF90EF9040
:1052B000DF90CF90BF90AF909F908F907F905F9046
:1052C0004F900F900FBE0F901F9018952FB7F89426
:1052D0006091940470919504809196049091970444
:1052E0002FBF08951F920F920FB60F9211242F9384
:1052F0003F938F939F93AF93BF938091940490912A
:105300009504A0919604B09197043091930423E002
:10531000230F2D3720F40196A11DB11D05C026E8ED
:10532000230F0296A11DB11D209393048093940432
:1053300090939504A0939604B09397048091980459
:1053400090919904A0919A04B0919B040196A11D9B
:10535000B11D8093980490939904A0939A04B093FC
:105360009B04BF91AF919F918F913F912F910F908F
:105370000FBE0F901F90189587E690E00E944D1881
:105380000E940E1B0E94251B8823E1F30E944B1BE9
:10539000789484B5826084BD84B5816084BD85B510
:1053A000826085BD85B5816085BD80916E0081601C
:1053B00080936E00109281008091810082608093C2
:1053C00081008091810081608093810080918000C4
:1053D0008160809380008091C10084608093C100CF
:1053E0008091C00081608093C00087E880937A003C
:1053F0000E94BD1C0E94FA130E94281B8F3F2FEFB2
:10540000920709F00EDB0E94CF1C80919C049091C2
:105410009D04009711F040E038C058DF6093BD064E
:105420007093BE068093BF069093C006C090C106DD
:10543000D090C206E090C306F090C40620911F01F0
:1054400030912001890120E030E0AB01BC014C1912
:105450005D096E097F09041715072607370760F6EF
:10546000D701C601800F911FA21FB31F8093C106F1
:105470009093C206A093C306B093C4060E944D1E2B
:105480000E94DC1D0E943E1DB7CF242F30E028175C
:10549000390734F4F901E256FB4F10824F5FF5CF24
:1054A000C82F10929D0410929C040EE914E0D0E0E5
:1054B000DC1708F0B2CFF80181918F01B2DADF5F1B
:1054C000F7CF5058BB27AA270ED0B3C1A4D130F0D4
:1054D000A9D120F031F49F3F11F41EF499C10EF4CC
:1054E000E095E7FB8FC1E92FB5D180F3BA176207CA
:1054F00073078407950718F071F49EF5CDC10EF47B
:10550000E0950B2EBA2FA02D0B01B90190010C01D3
:10551000CA01A0011124FF27591B99F0593F50F4EB
:10552000503E68F11A16F040A22F232F342F442743
:10553000585FF3CF469537952795A795F04053953B
:10554000C9F77EF41F16BA0B620B730B840BBAF00B
:105550009150A1F0FF0FBB1F661F771F881FC2F776
:105560000EC0BA0F621F731F841F48F4879577958A
:105570006795B795F7959E3F08F0B3CF9395880F41
:1055800008F09927EE0F97958795089517D108F49D
:1055900081E008950CD04DC145D140F03CD130F0B0
:1055A00021F45F3F19F02EC1511177C131C152D1A1
:1055B00098F39923C9F35523B1F3951B550BBB27DA
:1055C000AA2762177307840738F09F5F5F4F220F87
:1055D000331F441FAA1FA9F333D00E2E3AF0E0E880
:1055E00030D091505040E695001CCAF729D0FE2FCC
:1055F00027D0660F771F881FBB1F2617370748075E
:10560000AB07B0E809F0BB0B802DBF01FF27935813
:105610005F4F2AF09E3F510568F0F4C03EC15F3FE6
:10562000ECF3983EDCF3869577956795B795F795FB
:105630009F5FC9F7880F911D9695879597F90895F3
:10564000E1E0660F771F881FBB1F6217730784078F
:10565000BA0720F0621B730B840BBA0BEE1F88F79E
:10566000E095089504D06894B11117C10895FAD057
:1056700088F09F5790F0B92F9927B751A0F0D1F03B
:10568000660F771F881F991F1AF0BA95C9F712C0C5
:10569000B13081F001D1B1E00895FEC0672F782FBD
:1056A0008827B85F39F0B93FCCF386957795679531
:1056B000B395D9F73EF490958095709561957F4F9D
:1056C0008F4F9F4F0895E89409C097FB3EF4909543
:1056D0008095709561957F4F8F4F9F4F9923A9F0CB
:1056E000F92F96E9BB279395F6958795779567955A
:1056F000B795F111F8CFFAF4BB0F11F460FF1BC09E
:105700006F5F7F4F8F4F9F4F16C0882311F096E930
:1057100011C0772321F09EE8872F762F05C06623DE
:1057200071F096E8862F70E060E02AF09A95660F97
:10573000771F881FDAF7880F9695879597F9089550
:10574000E894F92F96EBFF2381F012161306140646
:10575000440B9395F69587957795679557954040B7
:10576000FF23B9F71BC099270895882351F4985057
:10577000D2F7872B762F652F542F432F322F20E01F
:10578000B1F3121613061406440B88233AF09A95C7
:10579000440F551F661F771F881FCAF755234AF409
:1057A000440F551F11F460FF04C06F5F7F4F8F4F90
:1057B0009F4F880F9695879597F90895990F000840
:1057C000550FAA0BE0E8FEEF16161706E807F907D3
:1057D000C0F012161306E407F50798F0621B730B6E
:1057E000840B950B39F40A2661F0232B242B252BEF
:1057F00021F408950A2609F4A140A6958FEF811D92
:10580000811D089597F99F6780E870E060E0089532
:105810009FEF80EC089500240A94161617061806C8
:105820000906089500240A941216130614060506A4
:105830000895092E0394000C11F4882352F0BB0F35
:1058400040F4BF2B11F460FF04C06F5F7F4F8F4F98
:105850009F4F089557FD9058440F551F59F05F3FD3
:1058600071F04795880F97FB991F61F09F3F79F082
:1058700087950895121613061406551FF2CF469504
:10588000F1DF08C0161617061806991FF1CF869586
:105890007105610508940895E894BB27662777276A
:1058A000CB0197F908950BD0C4CFB5DF28F0BADF4C
:1058B00018F0952309F0A6CFABCF1124EECFCADFA5
:1058C000A0F3959FD1F3950F50E0551F629FF00113
:1058D000729FBB27F00DB11D639FAA27F00DB11D6C
:1058E000AA1F649F6627B00DA11D661F829F2227F5
:1058F000B00DA11D621F739FB00DA11D621F839F7C
:10590000A00D611D221F749F3327A00D611D231F51
:10591000849F600D211D822F762F6A2F11249F579F
:1059200050408AF0E1F088234AF0EE0FFF1FBB1FC2
:10593000661F771F881F91505040A9F79E3F510561
:1059400070F060CFAACF5F3FECF3983EDCF3869512
:1059500077956795B795F795E7959F5FC1F7FE2B0C
:10596000880F911D9695879597F908957BDFE0F054
:105970009E37D8F09639B8F49E3848F4672F782FC0
:105980008827985FF9CF8695779567959395953990
:10599000D0F3B62FB1706B0F711D811D20F4879568
:1059A00077956795939502C01CC077CF882371F4D3
:1059B000772321F09850872B762F07C0662311F4A8
:1059C00099270DC09051862B70E060E02AF09A95DF
:1059D000660F771F881FDAF7880F9695879597F9D6
:1059E00008959F3F31F0915020F487957795679502
:1059F000B795880F911D9695879597F90895DB01C6
:105A00008F939F938BD0BF91AF91A29F800D911DDB
:105A1000A39F900DB29F900D11240895991B79E0DA
:105A200004C0991F961708F0961B881F7A95C9F72E
:105A300080950895AA1BBB1B51E107C0AA1FBB1F7D
:105A4000A617B70710F0A61BB70B881F991F5A950A
:105A5000A9F780959095BC01CD01089597FB072E7D
:105A600016F4009406D077FD08D0E4DF07FC05D0DB
:105A70003EF4909581959F4F0895709561957F4F65
:105A80000895A1E21A2EAA1BBB1BFD010DC0AA1F7F
:105A9000BB1FEE1FFF1FA217B307E407F50720F097
:105AA000A21BB30BE40BF50B661F771F881F991F12
:105AB0001A9469F760957095809590959B01AC015B
:105AC000BD01CF010895052E97FB16F400940FD069
:105AD00057FD05D0D6DF07FC02D046F408C050952C
