:10000000B8C000000C94CC1E0C94171FCFC0000089
:10001000CDC00000CBC00000C9C000000C94DA14B1
:10002000C5C00000CFC00000C1C000000C943A0F52
:100030000C942128BBC00000B9C00000B7C000006C
:100040000C943C29B3C000000C948629AFC000007A
:10005000ADC00000ABC00000A9C00000A7C00000F8
:100060000C945D16A3C00000005EBCE2613FDD831E
:10007000C29C7E20A3FD1F419DC3217FFCA2401E88
:100080005F01E3BD3E6082DC237D9FC1421CFEA078
:10009000E1BF5D0380DE3C62BEE0025CDF81633D68
:1000A0007C22C09E1D43A1FF4618FAA427799BC558
:1000B00084DA3866E5BB5907DB856739BAE4065848
:1000C0001947A5FB7826C49A653BD987045AB8E638
:1000D000A7F91B45C6987A24F8A6441A99C7257B28
:1000E0003A6486D85B05E7B98CD2306EEDB3510F18
:1000F0004E10F2AC2F7193CD114FADF3702ECC9208
:10010000D38D6F31B2EC0E50AFF1134DCE90722CF7
:100110006D33D18F0C52B0EE326C8ED0530DEFB1E7
:10012000F0AE4C1291CF2D73CA947628ABF51749D7
:100130000856B4EA6937D58B5709EBB536688AD4C7
:1001400095CB2977F4AA4816E9B7550B88D6346AB7
:100150002B7597C94A14F6A8742AC896154BA9F7A7
:10016000B6E80A54D7896B35000000002400270048
:100170002A0011241FBECFEFD8E0DEBFCDBF12E0B2
:10018000A0E0B1E0ECE7FFE502C005900D92AC32D3
:10019000B107D9F726E0ACE2B2E001C01D92AE395A
:1001A000B207E1F70E94C0290C94BC2F29CF10920E
:1001B000B00087E08093B1001092B20081E080939C
:1001C000700008951F920F920FB60F9211248F9313
:1001D000809130028F5F809330028F910F900FBE1D
:1001E0000F901F901895CF93DF9380912C029091E0
:1001F0002D02A0912E02B0912F020097A105B1050A
:1002000009F450C02AE0EFE3F3E0EF0119922A95D8
:10021000E9F720EF20933F032DE020934003209146
:10022000ED0420934203282F2F7720934303AC0142
:10023000BD0127E076956795579547952A95D1F7A3
:100240004F7740934403AC01BD013EE0769567953E
:10025000579547953A95D1F74F7740934503AC01B1
:10026000BD01E5E17695679557954795EA95D1F7F4
:100270004F7740934603FCE1B695A79597958795F0
:10028000FA95D1F78093470387EF80934803109244
:100290002C0210922D0210922E0210922F0281E059
:1002A00080933E03DF91CF9108958091ED040E94E9
:1002B000CF268823D1F38091B20090E0909336024C
:1002C000809335021092B2008091350290913602EF
:1002D00007970497E0F48091ED040E94CF268111E6
:1002E000FACF8091B20090E090933602809335026D
:1002F0001092B20080913502909136029C012750F5
:1003000031092430310528F04997039720F08FEF09
:10031000089580E0089581E008950F931F93CF938F
:10032000DF9310922C0210922D0210922E02109246
:100330002F02C8E0D0E0B9DF81114AC02197D9F778
:10034000C6E0D0E0B2DF813009F042C02197D1F79A
:10035000ACDF81113DC0A9DF8130D1F5CFE0D0E025
:1003600001E010E0A2DF8130F9F4C8010C2E02C0D8
:10037000880F991F0A94E2F7092E000CAA0BBB0BF9
:1003800040912C0250912D0260912E0270912F020B
:10039000842B952BA62BB72B80932C0290932D02A8
:1003A000A0932E02B0932F022197E0F680912C02A9
:1003B00090912D02A0912E02B0912F02AA27BB2767
:1003C00080932C0290932D02A0932E02B0932F02C3
:1003D000DF91CF911F910F9108958093ED041092BA
:1003E000B2008091ED040E94CF26882329F08091ED
:1003F000B20010923002F5CF1092B2008091ED045D
:100400000E94CF268823D1F38091B20090E0909390
:100410003602809335021092B2008091350290919D
:1004200036028C589109049760F58091ED040E9482
:10043000CF268111FACF8091B20090E090933602DE
:10044000809335021092B20080913502909136026D
:100450009C01245431092530310508F45ECF829780
:10046000039778F48091ED040E94CF268823D1F37E
:100470008091B20090E09093360280933502109202
:10048000B20008958F929F92AF92BF92CF92DF9267
:10049000EF92FF92CF936C01C62F0E94481C4B0134
:1004A0005C010D2C000CEE08FF0861E08C2F0E940F
:1004B000A12680913102909132020E94A61C60E038
:1004C0008C2F0E94A12680913102909132020E94CD
:1004D000A61C0E94481CDC01CB0188199909AA09B5
:1004E000BB098C159D05AE05BF05F8F2CF91FF90B5
:1004F000EF90DF90CF90BF90AF909F908F90089536
:100500008F929F92AF92BF92CF92DF92EF92FF9223
:100510006C01F62E0E94481C4B015C0160E08F2D9F
:100520000E94A1260D2C000CEE08FF080E94481C1A
:10053000DC01CB0188199909AA09BB098C159D0515
:10054000AE05BF0598F3FF90EF90DF90CF90BF907E
:10055000AF909F908F900895E62FF0E0E25EFE4FFF
:10056000E0819E2F977041E050E09A0101C0220F78
:100570009A95EAF7F0E093E0F695E7959A95E1F71A
:10058000BF01660F771FE60FF71FB096922F909569
:100590003281932392839181292B2183682F70E0EC
:1005A000CA010E946C2D072E000C880B990B0E942B
:1005B000D32B20E030E04AE754E40E949D2C20E059
:1005C00030E040EC50E40E94D42A0E94A02B6093BB
:1005D0003102709332028093330290933402089573
:1005E000AF92BF92CF92DF92EF92FF920F931F9341
:1005F000CF936B017C01C42F5901642F86E2ACDFDD
:100600006C2F88E293E23EDF6C2F84E991E178DF82
:1006100000E010E06C2F80E392E00A151B05A4F4C3
:10062000F7FE06C02FDF6C2F80E496E069DF05C07F
:1006300029DF6C2F80E392E063DFCC0CDD1CEE1C25
:10064000FF1C0F5F1F4FE6CF1DDF6C2F80E090E097
:10065000CF911F910F91FF90EF90DF90CF90BF90BF
:10066000AF904ECFE82FF0E0EE5CFE4FE0812E2FF2
:10067000277081E090E001C0880F2A95EAF7F0E04A
:1006800093E0F695E7959A95E1F79F01220F331FC6
:10069000E20FF31FB096982F9095228192239283B8
:1006A0009181892B81830895AF92BF92CF92DF927F
:1006B000EF92FF920F931F93CF93DF936C01C62F9E
:1006C000D0E0CC0FDD1F8E010F5A1D4FF801808145
:1006D0009181009729F00E94232FF8011182108246
:1006E0008E01095C1D4FF80180819181009729F0EE
:1006F0000E94232FF801118210829091E0048091D2
:10070000F404981719F084E090E002C083E090E0D0
:100710008C9D50018D9DB00C9C9DB00C1124B0920D
:10072000E204A092E104C5010E948B2E8C01FE011F
:10073000EF5AFD4F91838083892BE9F0C5010E9418
:100740008B2E7C01FE01E95CFD4F91838083892B18
:1007500091F0A50160E070E0C8010E94B52FA501ED
:1007600060E070E0C7010E94B52FD092FB04C092F8
:10077000FA0481E019C0C8010E94232FFE01EF5A3C
:10078000FD4F11821082C95CDD4F888199810E94E2
:10079000232F198218821092E2041092E104109221
:1007A000FB041092FA0480E0DF91CF911F910F912A
:1007B000FF90EF90DF90CF90BF90AF90089531E021
:1007C0002091E0049091F404291330E0482F4295E1
:1007D0004695469543704093E004982F9295937008
:1007E0009093F404282F2695269523702093E904EE
:1007F00083708093F00481E08093F304E62FF0E0AF
:10080000EE0FFF1FEF5AFD4F0190F081E02DEF2B0F
:1008100049F0491380E0381729F08091FA0490914B
:10082000FB0442CF08950F931F93CF93C82F80915D
:100830004C038F3F99F08091F5048C130FC0809189
:10084000F6049091F7048617970741F48091F80415
:10085000841304C08091F904821729F1822F8B013F
:10086000C093F5047093F7046093F6044093F80482
:100870002093F9044093EF046C2FA1DF6C2FC80183
:1008800013DFC82F882369F080914C0387FD06C0D1
:10089000E9DE60E080914C030E94A12681E0809314
:1008A000EE048C2F00C0CF911F910F91089561111C
:1008B000D9CEE82FF0E0EE5CFE4F8081E82FF0E02B
:1008C00093E0F695E7959A95E1F79F01220F331F84
:1008D000E20FF31FB096282F277081E090E001C04F
:1008E000880F2A95EAF780959181982391839281C8
:1008F000892382830895CF93C82F8091EE048823A3
:1009000031F080914C0387FD02C060E0D0DFC093DE
:100910004C038091EE04882331F08C2FA3DE60E03D
:100920008C2F0E94A1268C2F90E0FC01ED5FFD4FE3
:10093000E081F0E0EE0FFF1FE750FE4F2081318194
:100940003093F2042093F104FC01E552FE4F8081C4
:100950008093DB04CF9108954F925F926F927F92C4
:100960008F929F92AF92BF92CF92DF92EF92FF92BF
:100970000F931F93CF93DF93CDB7DEB729970FB6B1
:10098000F894DEBF0FBECDBF722EC32ED42E598376
:1009900028E631E040E050E00E947F2D4B015C01F1
:1009A000ED82FE820F8318872D813E814F8158850D
:1009B000243631054105510540F083E690E0A0E082
:1009C000B0E08D839E83AF83B8878D819E81AF8198
:1009D000B885C297A109B048880F991F97FF03C037
:1009E00091958195910924E630E0281B390B032E5F
:1009F000000C440B550B672D7C2D8D2D9981643691
:100A000071058105910520F063E670E080E090E0DB
:100A10000E94492D982F872F762F662720E137E2F5
:100A200040E050E00E947F2D29013A01ACE3CA2E3C
:100A3000D12CE12CF12CC501B401A70196010E9433
:100A40007F2D29833A834B835C83998199872CE39B
:100A5000A981BA812A9FC0012B9F900D1124092ED4
:100A6000000CAA0BBB0BA5019401281B390B4A0BE8
:100A70005B0B942F832F722F6627A70196010E948C
:100A80007F2D89818170C82ED12CDC2CCC24DA9466
:100A9000C20ED31ED7FE03C0D194C194D1080D2C31
:100AA000000CEE08FF0880E091E0A0E0B0E09C01BF
:100AB000AD012C193D094E095F09C301B2010E9425
:100AC000492DC72ED82EE92EFF249985992379F038
:100AD000913081F09230B9F09330E1F0943011F11F
:100AE000C982DA82EB82FC825301420121C05301A8
:100AF000420104C0460157017301620119821A8242
:100B00001B821C8218C0C982DA82EB82FC827301CC
:100B1000620104C049825A826B827C82812C912CB2
:100B2000540109C049825A826B827C824601570176
:100B3000C12CD12C76018D819E81AF81B885880F23
:100B4000991FAA1FBB1F6627782F892F9A2F24E68B
:100B500030E040E050E00E947F2DDA01C9018419A5
:100B60009509A609B7098C019D013695279517951A
:100B70000795D501C401800F911FA21FB31F9927AC
:100B8000AA27BB27DC0199278827C00ED11EE21EA9
:100B9000F31EFE2CED2CDC2CCC24EE24FF248C291F
:100BA0009D29AE29BF2949815A816B817C81400FE3
:100BB000511F621F731FBC01CD01642B29960FB614
:100BC000F894DEBF0FBECDBFDF91CF911F910F9183
:100BD000FF90EF90DF90CF90BF90AF909F908F905D
:100BE0007F906F905F904F900895CF932091FA047B
:100BF0003091FB046217730708F058C02091E0049D
:100C0000C091F40490E05091E904A22FB0E040912B
:100C1000F004880F991FFC012C1322C0E95CFD4FE2
:100C20009B01220F331F620F731F20813181260F1A
:100C3000371FF901E50FF11D5081A20FB31F6C9111
:100C4000862F90E0A0E0B0E0DC0199278827952B63
:100C5000F901E40FF11D2081BC01CD01622B29C0F7
:100C6000EF5AFD4F660F771F660F771F2081318186
:100C7000260F371FA20FB31FEC91D901AC0FB11D86
:100C80006C91862F90E0A0E0B0E0DC0199278827E6
:100C9000BE2BF901E40FF11D4081842BF901E50F12
:100CA000F11D2081BC01CD01722B03C060E070E01A
:100CB000CB01CF9108951F93CF93DF93CDB7DEB7CC
:100CC00029970FB6F894DEBF0FBECDBF182F13DEE5
:100CD0008091E1049091E2049A838983E12FF0E00E
:100CE000EE0FFF1FEF5AFD4F0190F081E02DDF0165
:100CF0001196808189879091F304E091F104F0913D
:100D0000F2048091DB04992309F436C09081982B7A
:100D100098879081809589238F838F818E8388E047
:100D20008D83F89458856F81E091F104F091F2047D
:100D300049853D812E8189819A81508347FD252FE8
:100D40003A952083262F39F0441F00C000006083AD
:100D5000000000C0F2CF38E04D91608300000197A1
:100D600061F7F093F204E093F10449873D832E8309
:100D70009A83898378943AC09081982B9887908140
:100D8000809589238F838F818C8388E08B8358851E
:100D90006F8149853B812C8189819A81508347FDF0
:100DA000252F00C000C0208300C000C000C000C0CC
:100DB00000C060830000262F3A9541F0441F0000D8
:100DC00000C000C000C000C000C0E8CF38E04D91B6
:100DD00000C0608300C0019709F7F093F204E0932C
:100DE000F10449873B832C839A83898329960FB624
:100DF000F894DEBF0FBECDBFDF91CF911F91089554
:100E0000CF92DF92EF92FF920F931F93CF93DF93D6
:100E10006093EF042091FA043091FB04232B09F432
:100E200061C0A0E0B0E0C0E0D0E0E82FF0E0EE0F5D
:100E3000FF1F8F010F5A1D4F9F01295C3D4F690114
:100E40002091FA043091FB04C217D30708F041C087
:100E5000F801408151817A01EA0EFB1EF6012081E2
:100E600031812A0F3B1F4091F40450E0B901640F17
:100E7000751FFB0190816091EF044E0D5F1D969FE1
:100E8000B0011124FA0170836091E90470E0A901B6
:100E9000460F571FFA0190814091EF046E0D7F1DA0
:100EA000949FA0011124FB0150839091F004492FDD
:100EB00050E0240F351FF90190812091EF044E0D71
:100EC0005F1D929F90011124FA01308321961396A1
:100ED000B7CFDF91CF911F910F91FF90EF90DF90EF
:100EE000CF90E9CEDF91CF911F910F91FF90EF90BE
:100EF000DF90CF9008954F925F926F927F928F9282
:100F00009F92AF92BF92CF92DF92EF92FF920F9398
:100F10001F93CF93DF9369017A01902F2091FA04F8
:100F20003091FB046217730708F093C087012227F2
:100F300033274D2C5E2C6F2C7724A091E004E09198
:100F4000F404482F50E0AE1317C0FB01EE0FFF1F53
:100F50006E0F7F1F440F551FFA01EF5AFD4F01908E
:100F6000F081E02DE60FF71FDA01A95CBD4F4D912E
:100F70005C91640F751F3FC0660F771F660F771F68
:100F8000440F551FFA01EF5AFD4F0190F081E02DFB
:100F9000E60FF71FEA01C95CDD4F48815981640FF4
:100FA000751F8F2C9924AA24BB24EF01CA0FD11DD1
:100FB0004091EF04442351F050E0489DD001499DF9
:100FC000B00D589DB00D11244B2F01C0482D488302
:100FD0004091E004EB01C40FD11D4091EF04442384
:100FE00049F050E0489DD001499DB00D589DB00D8D
:100FF00011248B2E88824091F404DB01A40FB11DD3
:101000000C934091E904DB01A40FB11D4C92409177
:10101000F004DB01A40FB11DCC924091EF04049FBA
:1010200080011124449D200111244C9D6001112454
:101030002091F404DF01A20FB11D1C932091E9045B
:10104000DF01A20FB11D5C922091F004E20FF11DAF
:10105000D082992389F0DF91CF911F910F91FF905A
:10106000EF90DF90CF90BF90AF909F908F907F9048
:101070006F905F904F901FCEDF91CF911F910F9196
:10108000FF90EF90DF90CF90BF90AF909F908F90A8
:101090007F906F905F904F9008958F929F92AF9244
:1010A000BF92DF92EF92FF920F931F93CF93DF9344
:1010B000D82E480159018091FA049091FB0477FDE4
:1010C00002C057FF05C0AC014150510960E070E01B
:1010D000461757072CF4362F272FBA01432F522FCC
:1010E000009769F177FF02C060E070E07B0186172E
:1010F000970708F47C0157FF02C040E050E08417D6
:10110000950708F4AC01EA012196EC16FD0650F4AF
:1011100000E0A5019401B7018D2DEDDE8FEFE81AF7
:10112000F80AF3CF8D2DDF91CF911F910F91FF9092
:10113000EF90DF90BF90AF909F908F90BCCDDF91EC
:10114000CF911F910F91FF90EF90DF90BF90AF90E4
:101150009F908F9008951F93CF93DF932091FA046F
:101160003091FB04232B19F1182FC82FD0E0CC0F9E
:10117000DD1FFE01EF5AFD4F4091E1045091E20462
:1011800060E070E0808191810E94B52FC95CDD4FE5
:101190004091E1045091E20460E070E0888199811F
:1011A0000E94B52F812FDF91CF911F9184CDDF91C8
:1011B000CF911F9108952F923F924F925F926F921D
:1011C0007F928F929F92AF92BF92CF92DF92EF92D7
:1011D000FF920F931F93CF93DF9300D000D01F9205
:1011E000CDB7DEB78983480159011601270146179B
:1011F000570728F4962F872FBA01492F582F80912F
:10120000FA049091FB04009709F4C9C07D836C83B4
:101210008617970710F49D838C838417950708F42D
:10122000AC014F5F5F4F9A018C819D81281B390B68
:101230003B832A83C10188599E4F8819990968E622
:1012400071E00E94582D9C0144E6429FC001439FDB
:10125000900D11246A817B810E94582D6B018A8137
:101260009B810197A9F4860E971EB40180E090E05F
:1012700012E3E12EF12C00E010E024E630E040E043
:1012800050E06ADB9B01AC0100E06C817D816CC0A9
:1012900012E3E12EF12C00E010E024E630E040E023
:1012A00050E0C501B40158DB9B01AC0100E06C814A
:1012B0007D81898120DE6C807D809FEF691A790AAB
:1012C000C69C9001C79C300DD69C300D11242C1962
:1012D0003D0944E6489DC001499D900D11244901F6
:1012E000880E991EA12CB12C8C819D8101972A8199
:1012F0003B81820F931F9B838A83AC0CBD1C8A8128
:101300009B8168167906F8F4C501880D991D64E67D
:1013100070E00E94582D68597E4F80E090E012E303
:10132000E12EF12C00E010E024E630E040E050E057
:1013300013DB9B01AC0100E0B3018981DCDD3FEFF1
:10134000631A730ADACF12E3E12EF12C00E010E009
:1013500024E630E040E050E0C201B101FDDA9B013B
:10136000AC0100E06A817B818981C5DD89810F90B4
:101370000F900F900F900F90DF91CF911F910F91D1
:10138000FF90EF90DF90CF90BF90AF909F908F90A5
:101390007F906F905F904F903F902F908CCC0F90EC
:1013A0000F900F900F900F90DF91CF911F910F91A1
:1013B000FF90EF90DF90CF90BF90AF909F908F9075
:1013C0007F906F905F904F903F902F900895AF92D5
:1013D000BF92CF92DF92EF92FF920F931F93CF9322
:1013E000DF93662309F46BC0C091FA04D091FB042B
:1013F000209709F464C0C62E062E000CDD08CC151B
:10140000DD0558F4DF91CF911F910F91FF90EF9080
:10141000DF90CF90BF90AF909ECE182F161634F06D
:10142000A12CB12C7E01EC0CFD1C29C02197CC1500
:10143000DD0564F0BE016C197D09812FD6DB9B01AF
:10144000AC0100E0BE01812F56DDF0CFC0E0D0E05E
:1014500000E020E030E0A901BE01812F4CDD2196A3
:10146000CC16DD06A9F7812FDF91CF911F910F9147
:10147000FF90EF90DF90CF90BF90AF901CCCEA141C
:10148000FB0478F0B5016C197D09812FAEDB9B015F
:10149000AC0100E0B501812F2EDD8FEFA81AB80A4C
:1014A000EECFEC16FD06F8F600E020E030E0A901F2
:1014B000B701812F20DD8FEFE81AF80AF2CFDF9114
:1014C000CF911F910F91FF90EF90DF90CF90BF9041
:1014D000AF9008952F923F924F925F926F927F92BA
:1014E0008F929F92AF92BF92CF92DF92EF92FF9234
:1014F0000F931F93CF93DF9300D0CDB7DEB7382E75
:101500002DB73EB73A832983662309F4D9C0E0900A
:10151000FA04F090FB04E114F10409F4D1C0862F21
:10152000660F990BB7010E94582D282EC82E082E41
:10153000000CDD084DB65EB618160CF04EC0C601A4
:10154000880F991F880F991FEDB7FEB7E81BF90B9D
:101550000FB6F894FEBF0FBEEDBF2DB73EB72F5F9D
:101560003F4F3901590100E010E047018C189D08F8
:10157000B401600F711F832D38DBF5016193719306
:10158000819391935F010F5F1F4F0C151D0584F32D
:10159000F1E0EF1AF108EC14FD0464F0B7016C19E6
:1015A0007D09832D22DB9B01AC0100E0B701832D77
:1015B000A2DCEECFE12CF12CF3012191319141918C
:1015C00051913F0100E0B701832D95DCFFEFEF1A49
:1015D000FF0AEC14FD0484F36CC0D194C194D108CB
:1015E000C601880F991F880F991F2DB73EB7281B7A
:1015F000390B0FB6F8943EBF0FBE2DBF8DB79EB707
:1016000001963C018C01A12CB12CAC14BD0469F0F5
:10161000B501832DEADAF801619371938193919377
:101620008F01FFEFAF1ABF0AF0CF812C912CA22CB3
:10163000220CBB086701CA0CDB1CC814D90478F063
:10164000B4016A197B09832DD0DA9B01AC0100E05B
:10165000B401832D50DC2FEF821A920AEECF8FEF68
:101660009FE3E89E4001E99E900CF89E900C1124A7
:101670008A189B088C0C9D1C880C991C880C991C42
:10168000A12CB12CCE14DF04A0F4F501E80DF91D56
:10169000E60DF71D208131814281538100E0B601C2
:1016A000832D29DC3FEFC31AD30A84E0A80EB11CB6
:1016B000E9CF0FB6F8945EBE0FBE4DBE832DFBDAA8
:1016C000E981FA810FB6F894FEBF0FBEEDBF0F900F
:1016D0000F90DF91CF911F910F91FF90EF90DF90CE
:1016E000CF90BF90AF909F908F907F906F905F90C2
:1016F0004F903F902F9008952F923F924F925F927C
:101700007F928F929F92AF92BF92CF92DF92EF9291
:10171000FF920F931F93CF93DF9300D000D0CDB7EC
:10172000DEB7782E7C836B83B8018B819C81481750
:10173000590730F49B818C815C834B83492F582F50
:101740008091FA049091FB04009709F49DC0EB810D
:10175000FC818E179F0710F49C838B838417950759
:1017600008F4AC011616170664F0872DF4DC00E0CF
:1017700020E03FEF4FEF50E06B817C81872DBBDB9A
:1017800067C0CA01EB81FC818E1B9F0B9A83898302
:101790006C01FFEFCF1ADF0AA90137FF03C0519593
:1017A000419551094C9DC0014D9D900D5C9D900D42
:1017B00011240E94582D4B01672B49F0A12CB12C0C
:1017C000E12CF12C212C312C21012A943EC0EE2455
:1017D000E394F12CEC14FD04D8F56B817C816E0D43
:1017E0007F1D00E020E030E0A901872D84DB8FEF32
:1017F000E81AF80AEFCFE814F90408F040C0C50170
:1018000069817A810E94582D9B013327C901A0E08C
:10181000B0E09C0111270027D201C101861B970B64
:10182000A109B109A9019801282B00E06B817C81F5
:10183000872D61DB9FEFE91AF90AEFEFAE0EB11CBD
:101840008B819C8101969C838B83EC14FD0498F220
:10185000872D0F900F900F900F90DF91CF911F91D8
:101860000F91FF90EF90DF90CF90BF90AF909F903F
:101870008F907F905F904F903F902F901CCA00E018
:1018800020E030E0A901D2CF0F900F900F900F9081
:10189000DF91CF911F910F91FF90EF90DF90CF904C
:1018A000BF90AF909F908F907F905F904F903F90B0
:1018B0002F90089504C06150710981099109611543
:1018C000710581059105B9F70895AF92BF92CF9246
:1018D000DF92EF92FF920F931F93CF93DF931092BB
:1018E000FC041092FD041092FE041092FF0410926A
:1018F0000005FC01E95FFA4FC081FC01E35FFA4F8C
:10190000D08161E070E08C2F0E94512660E08C2F26
:101910000E94A126DD2371F1A12C24E2B22E34EF26
:10192000C32ED12CE12CF12C00E010E02D2F30E063
:1019300040E050E060E070E080E090E00E94DC2D4C
:10194000E6E0AE2EB12CC12C0E942F2E29513C4F27
:101950004F4F5F4F6F4F7F4F8F4F9F4F0E940E2C07
:1019600020E030E04AE754E40E94382B0E94A52B87
:10197000A1DF05C063E070E080E090E09BDF60E005
:1019800070E08C2F0E94512688E290E00E94A61CF5
:1019900000E911E08C2F0E94CF26811106C0015072
:1019A0001109C1F78EEF9FEF49C000E911E08C2FBC
:1019B0000E94CF26882321F001501109C1F7F2CFF0
:1019C00018E200E0D0E890E9E92EFF24F3948C2F90
:1019D0000E94CF26811105C081E0E81AF108B9F70D
:1019E000E1CF0E94481C6B017C0180E9A82EBB243A
:1019F000B3948C2F0E94CF26882329F081E0A81A67
:101A0000B108B9F7CFCF0E94481CDC01CB018C197B
:101A10009D09AE09BF098997A105B10538F0E02FEE
:101A2000F0E0E450FB4F80818D2B8083D69511F43C
:101A30000F5FD0E8115039F680E090E0DF91CF9150
:101A40001F910F91FF90EF90DF90CF90BF90AF90DC
:101A500008951092200510921F0510921D05EDE1CA
:101A6000F5E0129285E0E531F807D9F70895CF93B4
:101A7000C82F60E00E9457048C2F90E0FC01E552D3
:101A8000FE4F208120931E05FC01ED5FFD4FE0819C
:101A9000F0E0EE0FFF1FE151FE4F808191819093A6
:101AA000140580931305D5DFCF910895FF920F930E
:101AB0001F93CF93DF93F0901E05C0911305D09133
:101AC0001405F89489810F2D0095802389837894DB
:101AD0001DE7115029F182E090E00E94A61C888148
:101AE0008F21B9F3F8948A8180238A8389818F2991
:101AF0008983789480EE91E00E94A61CF8948981F5
:101B00000823098386E490E00E94A61C8881F822BD
:101B100011E009F010E078948AE991E00E94A61C97
:101B2000812FDF91CF911F910F91FF9008950F9317
:101B30001F93CF93DF9300911E05C0911305D091A1
:101B40001405F8948981802B89838A81102F109540
:101B500081238A8383E090E00E94A61C8981182358
:101B600019838AE090E00E94A61CC881789485E3DE
:101B700090E00E94A61CC02381E009F480E0DF9180
:101B8000CF911F910F9108950F931F93CF93DF93E0
:101B900008E010E0C0E0D1E0CADF8111CD2BDD0FFD
:101BA00001501109C9F78C2FDF91CF911F910F912F
:101BB00008951F93CF93DF9310911E05C0911305D5
:101BC000D0911405912F909580FF16C0F8948A81CA
:101BD00089238A838981812B89838AE090E00E940E
:101BE000A61C8A81182B1A83789487E390E0DF91F2
:101BF000CF911F910C94A61CF8948A8189238A8323
:101C00008981812B898381E490E00E94A61C8A81CE
:101C1000182B1A83789485E090E0DF91CF911F9183
:101C20000C94A61CFF920F931F93CF93DF93F82E73
:101C3000062FC8E0D0E011E081E09F2D912309F448
:101C400080E0B7DF110F2197B9F7011113C0F894A5
:101C5000E0911305F0911405918180911E05809506
:101C600098239183E0911305F091140592818923C3
:101C700082837894DF91CF911F910F91FF90089507
:101C80000F931F93CF93DF938C0160E085E5CADF4C
:101C9000E801085F1F4F60E08991C4DFC017D107DA
:101CA000D1F7DF91CF911F910F910895DF92EF92BD
:101CB000FF920F931F93CF93DF9320911F05211164
:101CC00004C07C01F3DE811108C01092200510923F
:101CD0001F0510921D0580E05BC060E080EFA2DF71
:101CE000D1E000E0D12CC1E022DF182F20DF11303D
:101CF00019F48130C1F432C0202F30E018131DC018
:101D000080912005C81738F4F901EB5EFA4F808105
:101D10008D2349F402C0C81731F010E0C93060F4D7
:101D2000C0931D0509C0E02FF0E0EB5EFA4F808103
:101D30008D2B808311E009C0DC2EF901EB5EFA4F98
:101D400080812D2F209528232083812F32DFCF5FA4
:101D5000DD0F11F40F5FD1E0083030F2C13408F428
:101D6000B4CFD0922005D11003C081E080931F052D
:101D700080911505882309F4A8CFA5E1B5E0F70106
:101D80008DE195E02D9121938A179B07D9F781E08A
:101D9000DF91CF911F910F91FF90EF90DF90089509
:101DA000DC0180E0615040F09D91E82FE927F0E0F0
:101DB000E859FF4F8491F6CF0895AF92BF92CF922A
:101DC000DF92EF92FF920F931F93CF93DF93CDB7E4
:101DD000DEB764970FB6F894DEBF0FBECDBF5C01CF
:101DE000CE010D9663DF811102C033DE32C067E0A1
:101DF000CE010D96D5DF9C8989132BC08D8580314E
:101E000011F0883231F552DECE010D9639DF61E0F6
:101E100084E408DF4BDECE010D9632DF60E08EEB0E
:101E200001DF8E010F5F1F4F6E018AE0C80ED11CCB
:101E30007801AADED7018D937D01AC15BD05C9F7E8
:101E400008DEF501D8018D918D018193CA16DB065C
:101E5000C9F764960FB6F894DEBF0FBECDBFDF9111
:101E6000CF911F910F91FF90EF90DF90CF90BF9097
:101E7000AF9008951F920F920FB60F9211242F93D7
:101E80003F934F935F936F937F938F939F93AF9302
:101E9000BF93EF93FF938091750287FF05C0109267
:101EA0008500109284002DC020917502022E000C36
:101EB000330B8091060190E02817390714F58091C3
:101EC0007502082E000C990BFC01EE0FFF1F8E0F00
:101ED0009F1FFC01EA58FD4F808186FF12C0809150
:101EE0007502082E000C990BFC01EE0FFF1F8E0FE0
:101EF0009F1FFC01EA58FD4F808160E08F730E94B4
:101F0000A126809175028F5F8093750220917502E2
:101F1000022E000C330B8091060190E02817390740
:101F20000CF040C0809175028630E4F52091840069
:101F30003091850080917502082E000C990BFC01F0
:101F4000EE0FFF1F8E0F9F1FFC01EA58FD4F81818E
:101F50009281820F931F90938900809388008091D3
:101F60007502082E000C990BFC01EE0FFF1F8E0F5F
:101F70009F1FFC01EA58FD4F808186FF2EC0809193
:101F80007502082E000C990BFC01EE0FFF1F8E0F3F
:101F90009F1FFC01EA58FD4F808161E08F730E9412
:101FA000A1261BC080918400909185000496803406
:101FB0009C4938F480E49CE99093890080938800E0
:101FC00009C08091840090918500049690938900C7
:101FD000809388008FEF80937502FF91EF91BF91FE
:101FE000AF919F918F917F916F915F914F913F91B1
:101FF0002F910F900FBE0F901F901895EF92FF92A8
:102000000F931F93CF93C82F7B018A0161E070E08B
:102010000E945126CF7380917602807CC82BC0939A
:10202000760280E292E08E199F0997FD03969595BE
:102030008795959587958093740280E699E0801B3B
:10204000910B97FD03969595879595958795809328
:10205000730280E090E0FC01EE0FFF1FE80FF91F14
:10206000EA58FD4F208126FD13C001968630910568
:1020700091F71092800082E0809381001092850099
:1020800010928400B19A80916F00826080936F00FB
:102090008091760280648093760280E0CF911F91D8
:1020A0000F91FF90EF900895AC018091740228E8A1
:1020B00030E0281B310987FD3395C901880F991F2E
:1020C000880F991F481759078CF08091730228E5F3
:1020D00032E0281B310987FD3395220F331F220F71
:1020E000331FCA01241735070CF4C90102972FB713
:1020F000F894092E000CAA0BBB0B34E0880F991F33
:10210000AA1FBB1F3A95D1F743E0B695A7959795BF
:1021100087954A95D1F790937802809377022FBFE5
:102120000895CF92DF92EF92FF92803222E09207E1
:102130000CF03FC097FD06C0853B91052CF084EB69
:1021400090E002C080E090E02091740248E850E006
:102150006A01C21AD10827FDD394CC0CDD1CCC0C2B
:10216000DD1C0D2C000CEE08FF084091730228E5E1
:1021700032E0241B310947FD3395220F331F220F14
:10218000331FA901330F660B770B9A01AB012C1992
:102190003D094E095F09DC010E94D62D24EB30E099
:1021A00040E050E00E94A12DC20ED31EE41EF51E99
:1021B000C601FF90EF90DF90CF9076CF8CE08093B8
:1021C000060180E090E028EB3BE0FC01EE0FFF1FF2
:1021D000E80FF91FEA58FD4F3283218301968C30B6
:1021E000910599F708958EBD00000DB407FEFDCF4F
:1021F0008EB50895CF93CFB7F894E0910D02F0E03B
:10220000EE0FFF1FE859FE4F0190F081E02D908105
:102210008091E501892321F461E08AE00E94A126F2
:1022200061E070E08AE00E9451268CB580618CBD2F
:102230008CB580648CBD61E070E08DE00E94512619
:1022400061E070E08BE00E945126CFBFCF910895EE
:1022500061E070E08AE00E94512661E08AE00C941F
:10226000A126EF92FF920F931F93CF93DF93D82F66
:10227000C92F7B0160E08AE00E94A12682E0B3DFE3
:1022800080E0B1DF0D2F1C2FE00EF11EC0E00E1517
:102290001F0591F0C03231F0CF5FF80181918F01BD
:1022A000A2DFF5CF61E08AE0DF91CF911F910F911E
:1022B000FF90EF900C94A126CF5FC13299F380E09C
:1022C00092DFFACF0F931F93CF93DF93CDB7DEB793
:1022D000A0970FB6F894DEBF0FBECDBFDC018E0114
:1022E0000F5F1F4F80E2F80111928A95E9F785E5AB
:1022F00089836A839C9184E0890F8B834C8360E09F
:10230000492F990F550B262F30E02417350774F409
:1023100085E090E08C0F9D1F820F931F2A0F3B1FBB
:10232000F9012181FC0120836F5FEDCF60E270E055
:10233000C80197DF61E070E080E090E00E946D1CD2
:10234000A0960FB6F894DEBF0FBECDBFDF91CF9140
:102350001F910F9108950F931F93CF93DF938C01DB
:1023600060E08AE00E94A12683E03DDF80E03BDF61
:10237000E801005E1F4F80E036DF8993C017D10768
:10238000D1F761E08AE0DF91CF911F910F910C941A
:10239000A1260F931F93CF93DF93CDB7DEB7C0561F
:1023A000D1090FB6F894DEBF0FBECDBF8E010F5F0F
:1023B0001F4F20E4F80111922A95E9F725E52983BA
:1023C0006A83FC0101900020E9F7E81BED5FEB83D5
:1023D0004C83FC0101900020E9F73197AF01481BC5
:1023E000590BBC01CE0105960E94AC2F60E270E053
:1023F000C80137DF61E070E080E090E00E946D1C72
:10240000CE018F5B9F4F20E2FC0111922A95E9F7E4
:10241000A2DFC05ADF4F0FB6F894DEBF0FBECDBFAC
:10242000DF91CF911F910F910895FF920F931F930A
:10243000CF93DF93CDB7DEB7C054D1090FB6F89470
:10244000DEBF0FBECDBF20E2F22E8E010F5D1F4F0B
:10245000F8012F2D11922A95E9F725E529A36AA302
:10246000FC0101900020E9F7E81BED5FEBA34CA312
:10247000FC0101900020E9F73197AF01481B590B8F
:10248000BC01CE0185960E94AC2F60E270E0C801CD
:10249000E8DE61E070E080E090E00E946D1CCE011B
:1024A0000196FC011192FA94E9F755DF898185358F
:1024B00039F48A81883221F481E09D81913309F0D9
:1024C00080E0C05CDF4F0FB6F894DEBF0FBECDBF1B
:1024D000DF91CF911F910F91FF900895FF920F937D
:1024E0001F93CF93DF93CDB7DEB7C054D1090FB69A
:1024F000F894DEBF0FBECDBF20E2F22E8E010F5D3D
:102500001F4FF8012F2D11922A95E9F725E529A3F0
:102510006AA3FC0101900020E9F7E81BED5FEBA343
:102520004CA3FC0101900020E9F73197AF01481B53
:10253000590BBC01CE0185960E94AC2F60E270E081
:10254000C8018FDE61E070E080E090E00E946D1CC9
:10255000CE010196FC011192FA94E9F7FCDE898123
:102560008535F1F48A818832D9F480EF5DD68DE02B
:102570005BD680E559D610E0212F30E08B8190E0CA
:1025800004972817390754F4E5E0F0E0EC0FFD1F3D
:10259000E20FF31F808148D61F5FEECF87EF44D64E
:1025A000C05CDF4F0FB6F894DEBF0FBECDBFDF912A
:1025B000CF911F910F91FF9008950F931F93CF9389
:1025C000DF93CDB7DEB7C056D1090FB6F894DEBFA2
:1025D0000FBECDBF8E010F5F1F4F20E4F801119297
:1025E0002A95E9F725E529836A83FC0101900020FB
:1025F000E9F7E81BED5FEB834C83FC0101900020C1
:10260000E9F73197AF01481B590BBC01CE01059684
:102610000E94AC2F60E270E0C80123DE61E070E050
:1026200080E090E00E946D1C005C1F4F80E2F8018A
:1026300011928A95E9F7C8018EDEF801808185350F
:1026400029F58181883211F59091890282819C312E
:1026500079F49CEF980F885E80938902A6EAB2E035
:102660008E2F801B891790F484818D933196F8CF3B
:10267000845080938902AAE8B2E0F8019E2F901B53
:10268000981720F494819D933196F8CFC05ADF4F6C
:102690000FB6F894DEBF0FBECDBFDF91CF911F9173
:1026A0000F9108950F931F93CF93DF93CDB7DEB7AC
:1026B000C054D1090FB6F894DEBF0FBECDBFDE0106
:1026C000119620E4FD0111922A95E9F725E5298369
:1026D00029E22A8324E0260F2B832AE12C83482F2A
:1026E0009E012B5F3F4F8C01802F841B861738F48F
:1026F000F80181918F01F90181939F01F5CF60E28B
:1027000070E0CD01AEDDC05CDF4F0FB6F894DEBFE8
:102710000FBECDBFDF91CF911F910F9108958F9282
:102720009F92AF92BF92CF92DF92EF92FF921F9350
:10273000CF93DF9390910701891759F19F3F09F0DB
:1027400013C1809307011092B0001092B1009091D4
:10275000B00092609093B0009091B100916090931E
:10276000B100A82FB0E0FD01ED5FFD4FE081F0E08A
:10277000EE0FFF1FE750FE4F0190F081E02DF09328
:102780002205E0932105FD01E552FE4F90819093D3
:10279000230549015A01EB01182F61E070E00E9406
:1027A00051269E0140E050E060E074E284EF90E04A
:1027B0000E947F2D69017A01F694E794D794C7941B
:1027C00081E0C81AD108E108F1088FEFC816D104DA
:1027D000E104F10409F008F4BFC069017A01F4E0F2
:1027E000F694E794D794C794FA95D1F781E0C81A84
:1027F000D108E108F1088FEFC816D104E104F10413
:10280000C1F0B8F069017A01E6E0F694E794D79454
:10281000C794EA95D1F781E0C81AD108E108F10818
:102820008FEFC816D104E104F10409F020F493E01D
:1028300050C092E04EC069017A0187E0F694E794B7
:10284000D794C7948A95D1F781E0C81AD108E108D6
:10285000F1088FEFC816D104E104F10409F008F47F
:1028600081C0C32ED42EE52EFF2481E0C81AD108E2
:10287000E108F1088FEFC816D104E104F10409F072
:1028800008F46CC069017A0169E0F694E794D79482
:10289000C7946A95D1F781E0C81AD108E108F10818
:1028A0008FEFC816D104E104F10409F008F458C010
:1028B000DA01C9013BE0B695A795979587953A95BA
:1028C000D1F76C017D0121E0C21AD108E108F108BD
:1028D00097E08091B100887F982B9093B10020976A
:1028E000A1F4809170008D7F8093700060E0812F53
:1028F000DF91CF911F91FF90EF90DF90CF90BF902D
:10290000AF909F908F900C94A12681149104A10404
:10291000B10471F0DE01AA0FBB1FA50194010E9452
:10292000CC2D28EE33E040E050E00E947F2D04C023
:1029300020E03AEC4AE95BE3C092B30020932B0518
:1029400030932C0540932D0550932E0580917000F7
:1029500082608093700008C091E0BBCF95E0B9CF52
:1029600096E0B7CF94E0B5CFDF91CF911F91FF9064
:10297000EF90DF90CF90BF90AF909F908F90089591
:1029800090910701891313C09FEF909307019091D5
:1029900070009D7F9093700091E09093B0009091B3
:1029A000B100987794609093B1001092B30060E00A
:1029B0000C94A1261F920F920FB60F9211242F9301
:1029C0003F934F935F936F937F938F939F93AF93B7
:1029D000BF93EF93FF9380912B0590912C05A091CD
:1029E0002D05B0912E05892B8A2B8B2B51F19091BF
:1029F0002305E0912105F0912205808189278083BC
:102A000080912B0590912C05A0912D05B0912E055C
:102A1000181619061A061B06BCF480912B05909116
:102A20002C05A0912D05B0912E050197A109B109A2
:102A300080932B0590932C05A0932D05B0932E0524
:102A400003C0809107019CDFFF91EF91BF91AF918F
:102A50009F918F917F916F915F914F913F912F91B6
:102A60000F900FBE0F901F901895AC01E09171056B
:102A7000F09172053097E1F09091BF028091BE0213
:102A80009817B0F090E0292F30E02617370754F45C
:102A9000DA01A20FB31F8C91D901AF5CBA4F8C93AE
:102AA0009F5FF1CF1092BF026093BE02CB010994E9
:102AB0000895E0912F05F0913005309729F010929C
:102AC000BC021092BB020994089510922D0381E07C
:102AD00080932B0310922A0361E082E10E94A126D9
:102AE00061E083E10E94A126E9EBF0E080818E7F26
:102AF000808380818D7F808388E48093B80085E423
:102B00008093BC000895413208F045C090912D0398
:102B10009111FCCF91E090932D0320932B032FEF85
:102B20002093C00210920503240F20930403909376
:102B30002C0390912C03880F892B80932C03809178
:102B40002A03813071F410922A0380912C03809320
:102B5000BB008091BC0083FDF8CF85EC8093BC0066
:102B600003C085EE8093BC0080912D038130E1F39A
:102B700080910503841710F440910503A6E0B3E0AB
:102B8000962FFB018E2F891B841718F48D9181934A
:102B9000F9CF842F089580E008950F93413208F013
:102BA0004CC090912D039111FCCF32E030932D0356
:102BB00000932B033FEF3093C00210920503409324
:102BC0000403562FA6E0B3E0FB013E2F351B34175C
:102BD00018F431913D93F9CF10922C0330912C03CE
:102BE000880F832B80932C0380912A03813071F40A
:102BF00010922A0380912C038093BB008091BC002B
:102C000083FDF8CF85EC8093BC0003C085EE8093F4
:102C1000BC00222321F080912D038230D1F38091DA
:102C2000C0028F3F79F08091C002803241F08091E4
:102C3000C002803331F094E005C091E003C092E01F
:102C400001C093E0892F0F9108954091E202262F51
:102C500030E0240F311D21323105DCF420912D03A9
:102C60002430C9F4FC0180E090E0861758F43091DC
:102C7000E2022191DC01AC51BD4FA30FB11D2C9399
:102C80000196F3CF8091E202680F6093E20280E048
:102C9000089581E0089582E0089585ED8093BC0059
:102CA0008091BC0084FDFCCF10922D03089585EC2B
:102CB0008093BC0010922D0308951F920F920FB6BF
:102CC0000F9211242F933F934F935F936F937F93B2
:102CD0008F939F93AF93BF93EF93FF938091B9002E
:102CE000887F803609F4ACC070F5883209F461C081
:102CF00090F4803109F455C038F4882309F40BC1ED
:102D0000883009F44EC00AC1883109F452C08032BB
:102D100009F465C003C1803409F471C050F48033F4
:102D200009F45DC0883309F0F9C08093C002BFDFA9
:102D3000F5C0803509F457C0883509F468C0883477
:102D400009F0ECC0EAC0883909F4DBC0A8F4883780
:102D500009F476C038F4883609F472C0803709F473
:102D60006FC0DCC0883809F4CCC0803909F471C068
:102D7000803809F0D3C06DC0803B09F497C038F4A7
:102D8000803A09F47BC0883A09F490C0C7C0803CFF
:102D900009F4BBC0883C09F4B8C0883B09F49BC067
:102DA000BDC080912C038093BB0085EC8093BC0058
:102DB000B5C090910503809104039817A0F5E091A8
:102DC000050381E08E0F80930503F0E0EA5FFC4F7E
:102DD00080818093BB0085EC8093BC009FC0809372
:102DE000C0025BDF9BC0E091050381E08E0F809302
:102DF00005038091BB00F0E0EA5FFC4F8083909177
:102E0000050380910403981708F07BC076C0E09119
:102E1000050381E08E0F809305038091BB00F0E0F5
:102E2000EA5FFC4F808380912B03811176C081E0A3
:102E300080932A0384EA8093BC0010922D036EC015
:102E400083E080932D031092C10285EC8093BC0037
:102E500065C08091C102803208F053C0E091C10288
:102E600081E08E0F8093C1028091BB00F0E0EE53B1
:102E7000FD4F808385EC8093BC0050C018DF8091AB
:102E8000C102803230F4E091C102F0E0EE53FD4F18
:102E900010826091C10270E0E0912603F091270357
:102EA00082EC92E009951092C10238C084E08093D0
:102EB0002D031092E3021092E202E0912803F091B8
:102EC000290309958091E202811105C081E0809378
:102ED000E2021092E402E091E30281E08E0F80931F
:102EE000E302F0E0EC51FD4F80818093BB009091B4
:102EF000E3028091E202981720F485EC8093BC00F5
:102F00000DC085E88093BC0009C085EC8093BC00AF
:102F100010922D0303C01092C002BFDEFF91EF910B
:102F2000BF91AF919F918F917F916F915F914F91E1
:102F30003F912F910F900FBE0F901F9018951092F8
:102F4000BF021092BE021092BC021092BB02BDDD05
:102F500089E595E1909329038093280385E395E122
:102F600090932703809326030895462F613208F03B
:102F700040E221E061E375E0C6DD1092BF0280937C
:102F8000BE02089591E09093BA028093BD02109220
:102F9000BC021092BB0208950F93CF93C82F0C2F41
:102FA00021E04091BB0261E575E08091BD02F5DD55
:102FB0009091BB02992311F08111F1CF1092BC02C4
:102FC0001092BB021092BA02CF910F910895CF9345
:102FD000DF931F92CDB7DEB789838091BA02882331
:102FE000A1F08091BB028032B8F48091BC02E82F3E
:102FF000F0E0EF5AFA4F998190838F5F8093BC0283
:103000008093BB0281E090E009C061E0CE010196AF
:103010001CDE81E090E002C080E090E00F90DF9144
:10302000CF9108958091BE0290E02091BF02821B53
:10303000910908959091BF028091BE02981750F4B3
:10304000E92FF0E0EF5CFA4F208130E09F5F909332
:10305000BF0202C02FEF3FEFC90108958F929F92E8
:10306000AF92BF92CF92DF92EF92FF92CF93DF9316
:1030700090E0FC01EF56FA4FC081FC01ED58FA4F89
:10308000D081880F991F880F991FFC01E758FA4FCC
:10309000C080D180E280F3802C2F277081E090E007
:1030A000AC0102C0440F551F2A95E2F79A01EC2F9C
:1030B000F0E033E0F695E7953A95E1F7AF01440F7C
:1030C000551FE40FF51FB096322F309542813423FF
:1030D00032833181232B2183ED2FF0E073E0F695CD
:1030E000E7957A95E1F79F01220F331FE20FF31F57
:1030F000B0962D2F277001C0880F2A95EAF780958A
:1031000091819823918392818923828360E08C2F1F
:103110000E94A12682E090E019D461E08C2F0E94E9
:10312000A1268AE090E012D460E08C2F0E94A126B4
:10313000AFD34B015C018D2F0E94CF26882321F055
:10314000A7D34B015C0119C0A3D3DC01CB018819C3
:103150009909AA09BB09C816D906EA06FB0658F759
:10316000EFCF96D3DC01CB0188199909AA09BB09D5
:10317000C816D906EA06FB0628F08D2F0E94CF2636
:103180008111EFCF85D3681979098A099B0928E352
:1031900030E040E050E00E947F2DC901DF91CF91E7
:1031A000FF90EF90DF90CF90BF90AF909F908F9067
:1031B0000895CF93DF931F92CDB7DEB78FB7898382
:1031C000F89489815F9350E85093610050E05093E8
:1031D00061005F918FBF0F90DF91CF910895CF93E2
:1031E000DF931F92CDB7DEB79FB79983F89499818B
:1031F000811106C06095809164006823609364002B
:103200009FBF0F90DF91CF91089595B184B18062F7
:103210008F7784B9892F806A85B908958091C0001D
:10322000881F8827881F08959091C00095FFFCCFC4
:103230008093C60080E008958091C60008954F9263
:103240005F926F927F928F929F92AF92BF92CF9236
:10325000DF92EF92FF920F931F93CF93DF93EC01D6
:103260006A017B01C901B80143E09695879577957E
:1032700067954A95D1F7488141FD0CC04801590135
:10328000B3E1B694A79497948794BA95D1F72B019C
:103290003C0112C028013901F4E0769467945794F8
:1032A0004794FA95D1F748015901A4E1B694A7943F
:1032B00097948794AA95D1F74C145D046E047F040B
:1032C00060F1C814D904EA04FB0438F1488141FFD5
:1032D0000EC0A7019601220F331F441F551F0E94E5
:1032E0007F2DDA01C9010197A109B10912C0C901F5
:1032F000B80124E096958795779567952A95D1F73B
:10330000A70196010E947F2DDA01C9010197A10949
:10331000B1099D838C8381E001C080E0DF91CF9172
:103320001F910F91FF90EF90DF90CF90BF90AF90E3
:103330009F908F907F906F905F904F9008950F9324
:103340001F93CF93DF93EC018B01803C910519F41F
:1033500062E080E044DF8A818F738A8388818260A3
:103360008883F8019681358184812A81482F4370B2
:10337000440F297F242B2A8329818470880F880F8A
:103380002B7F822B89838A818F7C832B8A838A81FE
:10339000282F277FF8E09F9FC0011124822B8A836A
:1033A000F801408151816281738100E014E224EFD1
:1033B00030E0CE0144DF99819860998399819061D2
:1033C0009983DF91CF911F910F9108955F926F9232
:1033D0007F928F929F92AF92BF92CF92DF92EF92A5
:1033E000FF920F931F93CF93DF934A01FB0150800D
:1033F000452B19F488248A94982C7B013B01680E94
:10340000791EC0E0D0E000E010E087E0C82ED12CAB
:10341000E614F70489F10815190508F04AC05701A8
:10342000F70181917F010C2E01C0880F0A94EAF701
:1034300085298F77F9DE0F5F1F4FF501808190E0BE
:1034400096012C1B3D0B02C0959587952A95E2F7B6
:10345000582E2196C730D105D8F28016910651F02A
:10346000852D8F77E1DE0F5F1F4F551C5524551CAE
:103470002797F0CF8401CCCF2097D9F008151905F4
:10348000C0F481E090E001C0880FCA95EAF781504E
:103490008521DF91CF911F910F91FF90EF90DF90E9
:1034A000CF90BF90AF909F908F907F906F905F90E4
:1034B000BBCEDF91CF911F910F91FF90EF90DF90E6
:1034C000CF90BF90AF909F908F907F906F905F90C4
:1034D0000895AF92BF92CF92DF92EF92FF920F9337
:1034E0001F93CF93DF9328E0829F70011124082F50
:1034F000000F000F000FC0E0D0E010E082E0E81AFB
:10350000F108C62ED12CAA24A394B12CC7018C0F8C
:103510009D1F4297B0F4C6010C2E02C09595879569
:103520000A94E2F780FF0DC08C2F800F0E94CF26F7
:10353000882339F0C5010C2E01C0880F0A94EAF7E0
:10354000182B2196C830D10509F7812FDF91CF9133
:103550001F910F91FF90EF90DF90CF90BF90AF90B1
:103560000895AF92BF92DF92EF92FF920F931F9355
:10357000CF93DF93CDB7DEB7A0970FB6F894DEBF39
:103580000FBECDBFB82ED62E8A0180918802882327
:1035900009F4EFC09E012F5F3F4F790183EF860F43
:1035A0008E3008F040C080E2D9011D928A95E9F77B
:1035B00080EF8983BA825901BA01265E3F4FF70135
:1035C000AB01DB018D91BD018F778283DA018C9194
:1035D000881F8827881F83833296E217F30781F7B5
:1035E0006CE1C7015FD880E2F70111928A95E9F793
:1035F000F8013D966DE06D1591F09F0181918F77F7
:10360000D5018C93D9018C91881F8827881FD501FB
:1036100011968C936F5FB2E0AB0EB11CECCF70E0F3
:103620006D5071096EC0EAE180E2E61708F076C0DD
:10363000D9011D928A95E9F780EF8983BA825901F1
:10364000BA019E01255E3F4FF701AB01DB018D9171
:10365000BD018F778283DA018C91881F8827881FAC
:1036600083833296E217F30781F76CE1C7011AD81A
:1036700080E2F70111928A95E9F7F8013D969E01E3
:10368000235E3F4FAF0181918F77D5018C93DA0193
:103690008C91881F8827881FD50111968C93B2E0E2
:1036A000AB0EB11CA216B30669F76CE1C7010E940C
:1036B000521380E2F70111928A95E9F7F8017B969F
:1036C0006BE185E6860F880F6D15C1F090E08F01E4
:1036D000A701480F591F21912F77DA012C9322E07F
:1036E00030E02C0F3D1F820F931FD8012C91221F19
:1036F0002227221FDC012C936F5FE3CF70E06B5118
:103700007109FB01EE0FFF1FEE0DFF1D87EF808398
:10371000660F6F5FC7010E94521340C0F9011192FA
:103720008A95E9F780EF8983BA82D901942F12969E
:10373000842F891B8D1578F49A01FA018191AF01CC
:103740008F778C93F9018081881F8827881F1196B5
:103750008C931197ECCFF701ED0DF11DED0DF11DDF
:1037600087EF82836D2D660F6D5FC7010E94521334
:1037700015C080EF59DD8B2D57DD7801ED0CF11C64
:103780000E151F0549F040E050E0B80181E090E0DF
:103790001DDE0F5F1F4FF4CF87EF46DDA0960FB6FB
:1037A000F894DEBF0FBECDBFDF91CF911F910F9177
:1037B000FF90EF90DF90BF90AF900895FC010190D3
:1037C0000020E9F73197BF01681B790BAC0181E755
:1037D000C8CEEF92FF921F93CF93DF9300D000D01B
:1037E0001F92CDB7DEB7282F30E0F901E656FA4F29
:1037F0009081162F1923A9014C515A4F7A01FA01D1
:103800009081191731F1212F30E03D832C83909165
:1038100088028F708069992389F08983812F8F773F
:103820008A83220F232F221F330B31952F772B836F
:1038300063E0CE0101960E94521309C0F5DC42E01C
:1038400050E0BE016C5F7F4F82E090E0BFDDF7018A
:1038500010830F900F900F900F900F90DF91CF91EA
:103860001F91FF90EF9008950F931F93CF93DF93D5
:10387000EC018C01060F111DC017D10719F08991B9
:10388000D3DCFACFDF91CF911F910F910895089566
:103890003FB7F8948091950490919604A091970475
:1038A000B091980426B5A89B05C02F3F19F001964A
:1038B000A11DB11D3FBFBA2FA92F982F8827820FB6
:1038C000911DA11DB11DBC01CD0142E0660F771F06
:1038D000881F991F4A95D1F708958F929F92AF92B2
:1038E000BF92CF92DF92EF92FF926B017C01D0DF0B
:1038F0004B015C01C114D104E104F104F1F0C7DF14
:10390000C7DFDC01CB0188199909AA09BB09883EE8
:103910009340A105B10570F321E0C21AD108E10876
:10392000F10888EE880E83E0981EA11CB11CC1141A
:10393000D104E104F10421F7DDCFFF90EF90DF9097
:10394000CF90BF90AF909F908F9008958230910557
:1039500038F0880F991F880F991F05970197F1F785
:10396000089510925206109229061092280610927D
:103970009F0510929E051092E10510929D0580E42E
:1039800080935306089580919705882339F06091BC
:103990009A0580E09EDD682F80E01BDF809198050E
:1039A000882339F060919B0581E093DD682F81E0E9
:1039B00010DF80919905882339F060919C0582E0A1
:1039C00088DD682F82E005CF0895CF93DF9300D084
:1039D00000D01F92CDB7DEB77D836C8390918802B3
:1039E000992399F0806E8983CB01262F2F772A8324
:1039F000880F892F881F990B91958F778B8363E0B0
:103A0000CE0101960E94521318C0803180F42C819F
:103A10003D812115304458F4806E06DC42E050E0D0
:103A2000BE016C5F7F4F82E090E0D0DC06C08FEF7C
:103A3000FBDB8FEFF9DB8FEFF7DB0F900F900F9031
:103A40000F900F90DF91CF910895CF93C2EF8EE04A
:103A50008C0FC830A8F40E944B26823089F48091E4
:103A6000490390E00C2E02C0959587950A94E2F7E1
:103A700080FF06C08C2F0E94FE26BC018C2FA5DF84
:103A8000CF5FC83021F7CF910895EF92FF920F9347
:103A90001F93CF93DF93D82F8B01C42FF22E6F3F4C
:103AA0007F4F71F08D2F6EDA802F91DA8F2D74DABF
:103AB00080913A0390913B03009721F047DF02C0C9
:103AC00000E010E06C2F8D2F50DAEC2EF12CAADAEA
:103AD000E816F9060CF0A6DAD093A0050093A1052C
:103AE000A1DA892B61F462E06C0F40EA55E087E7C8
:103AF000DF91CF911F910F91FF90EF9032CD00EAAF
:103B000015E0C801805A95408E159F0564F792DA3A
:103B1000F801828387DA0F5F1F4F892B91F7E3CF7C
:103B2000CF93C0E08EEE8C0F823028F466E070E018
:103B30008C2F0E945126CF5FC631A1F781E0809380
:103B40003903CF91FCC9EF92FF921F93CF93DF937C
:103B5000CDB7DEB72A970FB6F894DEBF0FBECDBF44
:103B600080916F02909170029C012F5F3F4F3093C4
:103B7000700220936F022091710230917202281717
:103B800039070CF077C080916D0290916E02892BFD
:103B900009F470C080916C0290E00E94650CBC0139
:103BA00090916C02492F50E0FA01E95FFA4FE080F2
:103BB000FA01EF5FFA4FF0801092700210926F02DC
:103BC00090936B029F5F90936C0220916D023091F5
:103BD0006E02215031094217530714F010926C0203
:103BE000672B09F047C05091FC044091FD043091CF
:103BF000FE042091FF04852F840F830F820F11E0B4
:103C000090910005891301C010E0809188028823FB
:103C1000C1F0CE0101966AE0FC0111926A95E9F7C4
:103C200060EF698365E66A83EB82FC825D834E8385
:103C30003F832887198727EF2A876AE00E9452135B
:103C400019C080EFF1DA85E6EFDA8E2DEDDA8F2DEF
:103C5000EBDA8CEFE82E84E0F82EF70181917F01FA
:103C6000E3DAF0E0EF16F5E0FF06B9F7812FDCDAD2
:103C700087EFDADA2A960FB6F894DEBF0FBECDBF13
:103C8000DF91CF911F91FF90EF9008950F931F93B5
:103C9000CF93DF9300D000D000D0CDB7DEB78091B6
:103CA0003303909134039C012F5F3F4F30933403D3
:103CB00020933303209131033091320328173907C1
:103CC0000CF05FC0109234031092330380913703DD
:103CD00090913803892B09F454C080912F03BED9E9
:103CE00020912F033091300320932E03A9014F5FC1
:103CF0005F4F5093300340932F034091370350910F
:103D00003803415051092417350724F0109230032D
:103D100010922F03182F1F77880F892F881F990B58
:103D20009195082F0F77809188028823C9F0CE01E2
:103D3000019646E0FC0111924A95E9F740EF49836C
:103D400043E64A833327F901EF56FA4F20812B834C
:103D50001C830D8327EF2E8366E00E94521311C04F
:103D600080EF62DA83E660DAE0912E03F0E0EF564E
:103D7000FA4F808159DA812F57DA802F55DA87EF91
:103D800053DA26960FB6F894DEBF0FBECDBFDF9193
:103D9000CF911F910F9108951F920F920FB60F921E
:103DA00011240F931F932F933F934F935F936F9320
:103DB0007F938F939F93AF93BF93EF93FF93E09A7B
:103DC0000E9430290091E5041091E6042091E70457
:103DD0003091E804DC01CB01801B910BA20BB30BEB
:103DE000883C9105A105B10528F082E00E94ED0113
:103DF0000E94F3000E9430296093E5047093E6046A
:103E00008093E7049093E804FF91EF91BF91AF9105
:103E10009F918F917F916F915F914F913F912F91E2
:103E20001F910F910F900FBE0F901F9018951F922A
:103E30000F920FB60F9211240F931F932F933F935E
:103E40004F935F936F937F938F939F93AF93BF93A2
:103E5000EF93FF93E19A0E9430290091E5041091BD
:103E6000E6042091E7043091E804DC01CB01801BDB
:103E7000910BA20BB30B883C9105A105B10528F06D
:103E800083E00E94ED010E94F3000E9430296093BC
:103E9000E5047093E6048093E7049093E804FF91AF
:103EA000EF91BF91AF919F918F917F916F915F91B2
:103EB0004F913F912F911F910F910F900FBE0F9037
:103EC0001F901895CF92DF92EF92FF920F931F935E
:103ED000CF93DF93CDB7DEB7E4970FB6F894DEBF8C
:103EE0000FBECDBF9091E805993409F44AC09937C7
:103EF00009F04DC020919E0530919F05233031057A
:103F000008F033C5C0900901D0900A01F601019074
:103F10000020E9F731978F010C191D098091880263
:103F20008823A9F0FE01319685E0DF011D928A9574
:103F3000E9F780EF89839A8382E08B8386E08C8324
:103F400087EF8D8365E0CF010E9452130EC580EF8D
:103F50006BD989E769D982E067D986E065D9E12C18
:103F6000F12C0E151F0509F469C3B6016E0D7F1DF6
:103F700040E050E081E090E029DABFEFEB1AFB0A65
:103F8000F0CFE0913C03F0913D030995EEC4009120
:103F90009E050150943609F4F2C170F49135E9F0B0
:103FA00020F49D3009F43CC2E0C49F3509F478C187
:103FB000923609F4A1C1D9C49637E1F038F49936A4
:103FC00009F40AC1903709F445C1CFC4983709F400
:103FD000EBC09A3709F419C1C8C480EF898382E520
:103FE0008A8381E08B8387EF8C8364E0CE01019626
:103FF0003BDCBBC41091EA0515FDB7C40E946515F2
:104000008091E9052091EA0526FB222720F991E01D
:104010002927912F9871983051F130F49111A5C44E
:104020000E94C21712E007C0903109F43DC09831D8
:1040300009F46DC09AC4101790F4212F30E0F901F3
:10404000E651FA4F8081879588278795F901E751D6
:10405000FA4F9081890F0E94E7171E5FECCF81E035
:104060000E94CC1783E191E00197F1F77EC4409163
:10407000EC056091EB05063079F470E0E0E84E9FC6
:10408000600D711D11244091EE0547954427479519
:104090009091ED05490F06C0479544274795460F77
:1040A0006FEF7FEFF2DC61C4E0910801E73024F0AC
:1040B00086E491E083DB59C49091EC053091EB05E7
:1040C000063081F4632F70E0F0E89F9F600D711D52
:1040D00011249091EE059795992797954091ED05BC
:1040E000940F06C0979599279795930F6FEF7FEFE1
:1040F000EF5FE093080135E0E302F0011124E65D93
:10410000F94F808372836183938324832EC420912B
:10411000080112163CF490E0622F022E000C770B7F
:1041200035E00FC08FEF809308011FC4349FF0016A
:10413000359FF00D1124E65DF94F4081841739F069
:104140009F5F492F50E06417750784F790E085E082
:10415000492F50E0641775071CF19830F8F4FA0104
:1041600031968E9FD0018F9FB00D1124A65DB94F5F
:104170003C91849FF001859FF00D1124E65DF94F7D
:10418000308311964D915C9112975283418313961F
:104190003C911397338314963C9134839F5FD8CF1F
:1041A000215020930801E1C3023080F02091EA05FC
:1041B0008091E90590E040E8249F800D911D112435
:1041C000009721F090933B0380933A038091390349
:1041D0008111CBC3A5DCC9C380EF89838AE68A83BA
:1041E000FE01339682EF883010F4982F01C09FE7CC
:1041F00091938F5F8830B9F787EF898F809188021C
:1042000069E1882309F451C14BC18091EA052091ED
:10421000E90530E070E8879F200D311D11243093AF
:104220000C0120930B012115310509F49EC388E28E
:1042300090E0B9010E94582D7093320360933103CE
:1042400080ED97E0B9010E94582D7093720260933F
:1042500071028BC3053008F488C31091E9058EEF15
:10426000810F823108F081C38091ED054091EC050A
:1042700050E090E8899F400D511D11248091EB057D
:104280006091EA0570E0A0E88A9F600D711D11241D
:10429000812F0E94FE0F64E070E0812F02D565C37C
:1042A0009091E9058091EA0591111BC09091EE056E
:1042B0002091ED0530E0B0E89B9F200D311D1124C9
:1042C000032E000C440B550B9091EC056091EB050F
:1042D00070E0E0E89E9F600D711D11240E948F1315
:1042E00044C3913009F041C320E030E0A90160E00F
:1042F00070E00E948F1339C3209137033091380347
:10430000263031050CF031C38091E90580933603E6
:104310009091EA0590933503F901EE0FFF1FEE0F20
:10432000FF1FE758FA4F6091EC054091EB0550E014
:1043300070E8679F400D511D1124052E000C660B7F
:10434000770B4083518362837383F901EF56FA4FF1
:104350008083F901ED58FA4F90836CE070E0A1D4AE
:104360006CE070E0809135039CD48091370390918C
:10437000380301969093380380933703F6C2209157
:104380006D0230916E02263031050CF045C08091EF
:10439000E9059091EA05492F50E04631510531F485
:1043A00041E0F901E35FFA4F40830DC04B30510506
:1043B00031F44AE0F901E35FFA4F408304C087E536
:1043C00091E0FCD9D2C2F901E95FFA4F8083F9018B
:1043D000EF5FFA4F90836FE070E063D480916D02DD
:1043E00090916E020E94650C892B09F0BEC260910B
:1043F0006D0270916E026F5F7F4F70936E026093DB
:104400006D0280917102909172020E946C2D7093E6
:10441000720260937102A9C28CE891E0CFD9A5C263
:104420008091E9057E0191E2E90EF11C94E1D7014A
:104430001D929A95E9F78E30E1F50E94651510E01E
:1044400001E0802F0E94C21781E00E94CC178111E9
:1044500005C0F701E10FF11D00831F5F0F5F0F37EC
:1044600081F780EF89838DE08A838EE08B831C83C4
:10447000CE010596D701AC012A2F2E19211728F459
:104480002D91FC012193CF01F7CFFA01E10FF11D2E
:1044900087EF80838091880265E0610F882329F08F
:1044A000CE0101960E94521360C2CE010196DCD962
:1044B0005CC281119DC08091EA05813009F04DC038
:1044C000E091EB05E093EC04F0E0E953FE4F8081CE
:1044D000E82FF0E033E0F695E7953A95E1F79F0194
:1044E000220F331FE20FF31FB096282F277081E0B1
:1044F00090E001C0880F2A95EAF780959181982372
:1045000091839281892382830E94D7008091EC0459
:10451000823081F480914B03811127C281E0809326
:104520004B03F894E89A8091690082608093690057
:1045300078941BC2833009F018C280914A0381111C
:1045400014C281E080934A03F894E99A809169004B
:10455000886080936900789408C2811106C24091F6
:10456000EC0550E060E070E0ACE1440F551F661FC1
:10457000771FAA95D1F78091ED0590E0A0E0B0E01B
:1045800015E1880F991FAA1FBB1F1A95D1F7482B59
:10459000592B6A2B7B2B8091EE0590E0A0E0B0E0D8
:1045A0000EE0880F991FAA1FBB1F0A95D1F7482B51
:1045B000592B6A2B7B2B8091EF0590E0A0E0B0E0B7
:1045C00027E0880F991FAA1FBB1F2A95D1F7842BBC
:1045D000952BA62BB72B2091F0052F77BC01CD0191
:1045E000622B20E230E04091EB050E94F002BDC159
:1045F000873109F033C18091EA05811123C0F09021
:10460000EB050091EC05F0E80F9F800111248091EB
:10461000ED058F77082B80EF0E9414198DE00E9422
:10462000141987E10E94141922E54FEFB8018F2D6C
:104630000E941304811181E00E94141987EF0E94E7
:10464000141993C1813009F049C00091F00510E0C0
:1046500020E030E075E1000F111F221F331F7A9513
:10466000D1F78091F10590E0A0E0B0E0EEE0880F96
:10467000991FAA1FBB1FEA95D1F7082B192B2A2BCC
:104680003B2B8091F20590E0A0E0B0E0F7E0880FCE
:10469000991FAA1FBB1FFA95D1F7082B192B2A2B9C
:1046A0003B2B8091F3058F77082B4091EE0570E846
:1046B000479FA00111248091EF058F77482B6091CF
:1046C000EC0580E8689FB00111248091ED058F779B
:1046D000682B8091EB050E944D0847C1823039F468
:1046E0006091EC058091EB050E9400073EC183308C
:1046F00009F079C0C090F405D12CE12CF12C85E1B2
:10470000CC0CDD1CEE1CFF1C8A95D1F78091F505C1
:1047100090E0A0E0B0E02EE0880F991FAA1FBB1F19
:104720002A95D1F7C82AD92AEA2AFB2A8091F605C8
:1047300090E0A0E0B0E037E0880F991FAA1FBB1FF0
:104740003A95D1F7C82AD92AEA2AFB2A8091F70597
:104750008F77C82A0091F00510E020E030E045E1B5
:10476000000F111F221F331F4A95D1F78091F105C9
:1047700090E0A0E0B0E05EE0880F991FAA1FBB1F89
:104780005A95D1F7082B192B2A2B3B2B8091F20538
:1047900090E0A0E0B0E067E0880F991FAA1FBB1F60
:1047A0006A95D1F7082B192B2A2B3B2B8091F30507
:1047B0008F77082B4091EE0590E8499FA0011124C6
:1047C0008091EF058F77482B6091EC05A0E86A9FF8
:1047D000B00111248091ED058F77682B8091EB0556
:1047E0000E94DB08C2C0843039F46091EC058091EE
:1047F000EB050E94E709B9C0853039F46091EC05FA
:104800008091EB050E946A0AB0C08630F9F40091ED
:10481000F10510E02091F00530E04091EE05B0E8A0
:104820004B9FA00111248091EF058F77482B609159
:10483000EC05E0E86E9FB00111248091ED058F77C3
:10484000682B8091EB050E947C0B8FC0873009F0AC
:104850008CC08091EB050E94AB0887C08931F9F4C8
:104860008091EA05893009F080C08091EB050E94B3
:10487000370DCE0101962CE0DC011D922A95E9F757
:104880000E94DD0E2091880280E090E067E0222304
:1048900019F00E94521369C00E94341C66C0803413
:1048A00011F44AE003C0813461F44BE069E28AEE1E
:1048B00095E00E94621161E070E080E090E00DD828
:1048C00054C0833409F051C0CBD46B017C014CE05F
:1048D00069E28BE891E00E94C91161E070E080E03C
:1048E00090E00E946D1CEE24FF244DE069E28BE80D
:1048F00091E00E941512811120C0B2D4DC01CB01DD
:104900008C199D09AE09BF0989399A43A105B105E2
:1049100068F080EF0E9414198DE00E94141980E560
:104920000E94141987EF0E9414191FC068EE73E0EB
:1049300080E090E00E946D1CD8CF64E670E080E0DB
:1049400090E00E946D1C4EE069E28BE891E00E94CD
:104950006E126AE070E080E090E00E946D1C46E11B
:1049600069E28BE891E00E94C911E4960FB6F894D1
:10497000DEBF0FBECDBFDF91CF911F910F91FF9092
:10498000EF90DF90CF9008951F93CF93DF93182F70
:10499000EB018091530690E068177907A0F0E09151
:1049A000E304F091E40481E0309799F08093E70507
:1049B0008091EA049091EB0409958091530690E070
:1049C000C817D90728F4C851DA4F188380E001C00E
:1049D00081E0DF91CF911F910895CF92DF92FF92F6
:1049E0000F931F93CF93DF93909152069923D9F0A1
:1049F000873F51F410925206DF91CF911F910F9192
:104A0000FF90DF90CF905ECA60919E0570919F05E8
:104A1000BBDF80919E0590919F05019690939F0525
:104A200080939E0530C1609128067091290661151A
:104A3000710509F4EFC087FDEDC0615071097093F5
:104A4000290660932806A0DF809128069091290608
:104A5000892B09F018C180919D05882309F413C1A1
:104A6000803D09F4CAC030F48039B1F1803C09F4CA
:104A7000A5C0CDC0843F09F452C0853F09F48EC063
:104A8000803E09F0C4C01091E105163108F0BFC0A6
:104A90008091E9058770C091E805CF77D0E090E874
:104AA000899FC00DD11D11240091EA05812FF3D0FB
:104AB000833039F0843009F0AAC0CE010E949110F1
:104AC000A6C08EEF810F823108F0A1C0602F6F77F2
:104AD000AE01812FADD19BC08091E8050091E90521
:104AE00010E090E8899F000D111D1124F090E10560
:104AF000FF0CFF0CFF0CC0E0D0E0CC24C394D12C01
:104B0000B6018C2F0C2E01C0660F0A94EAF76023C1
:104B10008F0D17D12196C830D10591F778C0D0916B
:104B2000E8050D2F10E0C091E9058C2FB4D08F3728
:104B300009F46DC08EEF8C0F8231E8F4EC2FE6950E
:104B4000E695E6952C2F2770F0E0E656FA4F81E0C7
:104B500090E001C0880F2A95EAF70115110519F0B8
:104B60000B30110521F49081892B808304C080953E
:104B7000908189238083B8018C2F93D0D23009F0A3
:104B800046C0CE5081E090E001C0880FCA95EAF798
:104B900090914903892B8093490339C0C091E9055D
:104BA0008EEF8C0F823198F5D091E8058C2F73D061
:104BB000813069F56D2F8C2FC4D029C04091E1055B
:104BC000483028F58091E8055091490381110BC0C8
:104BD00081E090E001C0880F4A95EAF7809585232F
:104BE0008093490314C021E030E001C0220F4A95B0
:104BF000EAF7252B209349030AC0E091E105E33051
:104C000030F4F0E0E956FA4F8091E8058083109285
:104C10009D0539C0803F28F4982F9F709093E1053F
:104C2000807F803EB1F038F4803C29F1803D19F15D
:104C3000803949F517C0843FA9F0853F99F0803F3E
:104C400011F581E08093520610929F0510929E0507
:104C50001AC023E030E03093290620932806809381
:104C60009D0511C022E030E03093290620932806EC
:104C700080939D0508C021E030E030932906209301
:104C8000280680939D05DF91CF911F910F91FF9092
:104C9000DF90CF900895E82FF0E0EC5AF94F808133
:104CA000089590E0FC01EC5AF94F20812F3709F468
:104CB00047C060836115710521F06130710511F104
:104CC0000895FC01E95EFD4F8081E82FF0E033E0BC
:104CD000F695E7953A95E1F79F01220F331FE20F12
:104CE000F31FB096282F277081E090E001C0880F55
:104CF0002A95EAF78095918198239183928189235F
:104D000082830895FC01E95EFD4FE0818E2F87705C
:104D100001C0660F8A95EAF7F0E083E0F695E79523
:104D20008A95E1F7CF01880F991FE80FF91FB09618
:104D3000862F80959281892382838181682B61836C
:104D40000895E82FF0E0E95EFD4FE0819E2F977017
:104D500021E030E0A90102C0440F551F9A95E2F707
:104D6000CA01F0E093E0F695E7959A95E1F79F0187
:104D7000220F331FE20FF31FB096282F20953281A8
:104D8000322332833181382B3183662321F09281A3
:104D9000892B828308958281282322830895E82F16
:104DA000F0E0E95EFD4FE0812E2F277081E090E07A
:104DB00001C0880F2A95EAF7F0E093E0F695E795B1
:104DC0009A95E1F79F01220F331FE20FF31FDF01D6
:104DD0009096982F909511962C91119729231196C2
:104DE0002C93119712962C911297922312969C93C2
:104DF00090A1982381E009F480E0089590917A00D1
:104E0000906490937A0090917A0094FFFCCF806434
:104E100080937C0080917A00806480937A008091F6
:104E20007A0086FDFCCF80917800909179000895FA
:104E30002F923F924F925F926F927F928F929F92AA
:104E4000AF92BF92CF92DF92EF92FF920F931F9398
:104E5000CF93DF93C82FD0E0FE01E95EFD4F0081C4
:104E6000902F977021E030E0190101C0220C9A9533
:104E7000EAF710E073E0169507957A95E1F7980147
:104E8000220F331F020F131F005E1F4F922D9095AC
:104E9000F801228192239283918192299183F4E0F7
:104EA000CC0FDD1FFA95E1F7662319F0643639F46B
:104EB00061E047DFC45BDC4F1F861E866EC0FE01CB
:104EC000E45BFC4F88EC90E09387828787E390E077
:104ED000958784874115510511F053874287C45B3C
:104EE000DC4FE62EF12CFD86EC86CC24C394D12C2D
:104EF000DF86CE862A853B85032E000C440B550B9E
:104F000060E970ED83E090E01CD649015A01F1E0C0
:104F10008F1A9108A108B108C501B40144D420E05A
:104F200030E048EC52E4A4D32B013C01B7010F2C34
:104F3000000C880B990B37D49B01AC01C301B20163
:104F4000FCD45ED5FDD32B013C0179836883C50178
:104F5000B40129D420E030E048EC52E489D34B017D
:104F60005C0164E670E06E197F09072E000C880B67
:104F7000990B19D49B01AC01C501B401DED440D515
:104F8000DFD37B836A835D824C82DF82CE82198687
:104F90001886F8018281282A2282ECE4F3E080E07E
:104FA00090E020E030E0468557854130510541F4DE
:104FB000DC01AA0FBB1FA659B94F2D933C93019654
:104FC0002F5F3F4F70962431310569F790938D0420
:104FD00080938C04F89410928000109281001092BB
:104FE00085001092840081E090E090938900809386
:104FF0008800809181008860809381008091810089
:105000008160809381008091810082608093810023
:1050100080916F00846080936F007894DF91CF91CE
:105020001F910F91FF90EF90DF90CF90BF90AF90C6
:105030009F908F907F906F905F904F903F902F90B8
:1050400008951F920F920FB60F9211244F925F9204
:105050007F928F929F92AF92BF92CF92DF92EF9208
:10506000FF920F931F932F933F934F935F936F93F1
:105070007F938F939F93AF93BF93CF93DF93EF93E0
:10508000FF930E940E19882361F080918E04909105
:105090008F04019690938F0480938E040E941C19B4
:1050A000F0CF40906A0650906B0680908C049090F0
:1050B0008D049AE6A92E96E0B92E8501E0E0F0E095
:1050C000A201A4E0440F551FAA95E1F7E815F905E0
:1050D0000CF054C0E801A991B9918E01BD0184E0A2
:1050E000660F771F8A95E1F7CB01845B9C4F7C01AB
:1050F000EC01288539852130310581F5CD01895EA6
:105100009D4FEC017880872D90E0C3E096958795C0
:10511000CA95E1F76C01CC0CDD1C8C0D9D1D8096B1
:10512000E701EE80FF80D72DD7707D2EEC01EF28B0
:1051300039F0FA8001C0220F7A94EAF72F2907C0CC
:10514000FA8001C0220F7A94EAF720952F212A8352
:10515000CB01845B9C4FEC0119861886645B7C4F05
:10516000445B5C4FEB012C813D81EA018C819D8188
:10517000821793070CF02D013196A2CFFA01E45B60
:10518000FC4F4481558120E030E061E070E028155B
:105190003905F4F5F501819191915F01DC01E4E0BD
:1051A000AA0FBB1FEA95E1F7FD01E45BFC4FC48148
:1051B000D581C41BD50BD583C483CD2B31F5C681D6
:1051C000D781219719F4C281D38102C0C081D181D6
:1051D000D583C483A45BBC4F1696CD91DC91179701
:1051E000FC01FF2784E0EE0FFF1F8A95E1F7E45BE7
:1051F000FC4F7187608781E090E0CD2B11F080E05B
:1052000090E017969C938E9316972F5F3F4FBFCFDA
:10521000509389004093880010928500109284007A
:10522000FF91EF91DF91CF91BF91AF919F918F91BE
:105230007F916F915F914F913F912F911F910F91AE
:10524000FF90EF90DF90CF90BF90AF909F908F90A6
:105250007F905F904F900F900FBE0F901F9018950A
:105260002FB7F89460919104709192048091930407
:10527000909194042FBF08951F920F920FB60F9232
:1052800011242F933F938F939F93AF93BF9380915C
:10529000910490919204A0919304B0919404309160
:1052A000900423E0230F2D3720F40196A11DB11D9A
:1052B00005C026E8230F0296A11DB11D209390047E
:1052C0008093910490939204A0939304B0939404D8
:1052D0008091950490919604A0919704B0919804C0
:1052E0000196A11DB11D8093950490939604A093FF
:1052F0009704B0939804BF91AF919F918F913F9184
:105300002F910F900FBE0F901F9018951F920F9224
:105310000FB60F9211242F934F935F938F939F9308
:10532000EF93FF932091C6008091990490919A0485
:10533000AC014F5F5F4F50939A0440939904FC0176
:10534000E554FB4F2083FF91EF919F918F915F91E7
:105350004F912F910F900FBE0F901F901895E1EC79
:10536000F0E0808180688083808180618083E2ECCE
:10537000F0E08081846080838081826080830895F2
:10538000CF93DF93CDB7DEB727970FB6F894DEBF84
:105390000FBECDBF80E091EEA0E0B0E089839A839C
:1053A000AB83BC8383E08D831E821F82BE016F5F4F
:1053B0007F4F80EC90E00E949F190E94D91878944A
:1053C00084B5826084BD84B5816084BD85B582600A
:1053D00085BD85B5816085BD80916E0081608093BB
:1053E0006E00109281008091810082608093810024
:1053F0008091810081608093810080918000816034
:10540000809380008091B10084608093B10080918E
:10541000B00081608093B0000E94051987E88093F6
:105420007A000E94B11C0E94DE1099DF0E94FA10DF
:105430008CB583608CBD8DB58E7F8DBD0E9428118B
:105440006AE070E080E090E00E946D1C47E169E254
:105450008BE891E00E941512882319F081E0809377
:1054600088020AE812E090E3E92E0E94C31C8091B2
:105470008802882301F140E068E28BE891E00E9415
:10548000DD12809189028823B1F08C31A1F0F12CDA
:1054900080918902F81640F4EF2DF0E0E657FD4FB9
:1054A00080819BDAF394F4CFF8018E2D11928A95C6
:1054B000E9F7109289028091990490919A040097DB
:1054C00011F040E038C0CCDE6093920670939306F2
:1054D00080939406909395068090960690909706F8
:1054E000A0909806B090990620910B0130910C0184
:1054F0002901612C712CAB01BC01481959096A09B9
:105500007B094416550666067706B8F5D501C40131
:10551000840D951DA61DB71D809396069093970642
:10552000A0939806B09399060E94461E0E94A31D60
:105530000E94251D22C0242F30E02817390754F47B
:10554000F901E556FB4FD901A554BB4F2C9120839F
:105550004F5FF1CFF82E10929A04109299048BE9C4
:10556000A82E84E0B82ED12CDF1408F0ACCFF501C2
:1055700081915F0132DAD394F7CF80913E03882383
:1055800009F473CF10923E03809188026AE0882369
:1055900029F08FE393E00E94521367CF8FE393E0EB
:1055A0000E94341C62CF5058BB27AA270ED08BC153
:1055B0007CD130F081D120F031F49F3F11F41EF402
:1055C00071C10EF4E095E7FB67C1E92F8DD180F33F
:1055D000BA17620773078407950718F071F49EF5F0
:1055E000A5C10EF4E0950B2EBA2FA02D0B01B90129
:1055F00090010C01CA01A0011124FF27591B99F049
:10560000593F50F4503E68F11A16F040A22F232F54
:10561000342F4427585FF3CF469537952795A795A4
:10562000F0405395C9F77EF41F16BA0B620B730B4B
:10563000840BBAF09150A1F0FF0FBB1F661F771FBC
:10564000881FC2F70EC0BA0F621F731F841F48F471
:10565000879577956795B795F7959E3F08F0B3CFF7
:105660009395880F08F09927EE0F979587950895E1
:105670000CD029C121D140F018D130F021F45F3F86
:1056800019F00AC1511153C10DC12ED198F39923BC
:10569000C9F35523B1F3951B550BBB27AA276217F6
:1056A0007307840738F09F5F5F4F220F331F441F3B
:1056B000AA1FA9F333D00E2E3AF0E0E830D0915073
:1056C0005040E695001CCAF729D0FE2F27D0660F60
:1056D000771F881FBB1F261737074807AB07B0E89F
:1056E00009F0BB0B802DBF01FF2793585F4F2AF0B5
:1056F0009E3F510568F0D0C01AC15F3FECF3983E61
:10570000DCF3869577956795B795F7959F5FC9F711
:10571000880F911D9695879597F90895E1E0660F9A
:10572000771F881FBB1F621773078407BA0720F013
:10573000621B730B840BBA0BEE1F88F7E09508957C
:1057400004D06894B111F3C00895D6D088F09F5763
:1057500090F0B92F9927B751A0F0D1F0660F771FBD
:10576000881F991F1AF0BA95C9F712C0B13081F09D
:10577000DDD0B1E00895DAC0672F782F8827B85FB1
:1057800039F0B93FCCF3869577956795B395D9F7FE
:105790003EF490958095709561957F4F8F4F9F4F08
:1057A0000895E89409C097FB3EF490958095709514
:1057B00061957F4F8F4F9F4F9923A9F0F92F96E95D
:1057C000BB279395F695879577956795B795F111D2
:1057D000F8CFFAF4BB0F11F460FF1BC06F5F7F4F6F
:1057E0008F4F9F4F16C0882311F096E911C0772381
:1057F00021F09EE8872F762F05C0662371F096E88A
:10580000862F70E060E02AF09A95660F771F881F58
:10581000DAF7880F9695879597F90895E894F92F08
:1058200096EBFF2381F0121613061406440B939592
:10583000F69587957795679557954040FF23B9F77B
:105840001BC099270895882351F49850D2F7872BCD
:10585000762F652F542F432F322F20E0B1F31216ED
:1058600013061406440B88233AF09A95440F551FEB
:10587000661F771F881FCAF755234AF4440F551F28
:1058800011F460FF04C06F5F7F4F8F4F9F4F880FF1
:105890009695879597F9089597F99F6780E870E046
:1058A00060E008959FEF80EC089500240A94161696
:1058B000170618060906089500240A9412161306FE
:1058C000140605060895092E0394000C11F488238C
:1058D00052F0BB0F40F4BF2B11F460FF04C06F5FA8
:1058E0007F4F8F4F9F4F089557FD9058440F551F7E
:1058F00059F05F3F71F04795880F97FB991F61F052
:105900009F3F79F087950895121613061406551FC8
:10591000F2CF4695F1DF08C0161617061806991F34
:10592000F1CF86957105610508940895E894BB2729
:1059300066277727CB0197F908950BD0C4CFB5DF41
:1059400028F0BADF18F0952309F0A6CFABCF1124C9
:10595000EECFCADFA0F3959FD1F3950F50E0551F0E
:10596000629FF001729FBB27F00DB11D639FAA27B4
:10597000F00DB11DAA1F649F6627B00DA11D661F03
:10598000829F2227B00DA11D621F739FB00DA11D24
:10599000621F839FA00D611D221F749F3327A00DDE
:1059A000611D231F849F600D211D822F762F6A2F7A
:1059B00011249F5750408AF0E1F088234AF0EE0FFF
:1059C000FF1FBB1F661F771F881F91505040A9F70C
:1059D0009E3F510570F060CFAACF5F3FECF3983E39
:1059E000DCF3869577956795B795F795E7959F5F73
:1059F000C1F7FE2B880F911D9695879597F908950D
:105A00007BDFE0F09E37D8F09639B8F49E3848F442
:105A1000672F782F8827985FF9CF869577956795B8
:105A200093959539D0F3B62FB1706B0F711D811D11
:105A300020F4879577956795939502C01CC077CF22
:105A4000882371F4772321F09850872B762F07C095
:105A5000662311F499270DC09051862B70E060E009
:105A60002AF09A95660F771F881FDAF7880F9695A8
:105A7000879597F908959F3F31F0915020F48795CD
:105A800077956795B795880F911D9695879597F9A6
:105A90000895DB018F939F937FD0BF91AF91A29F19
:105AA000800D911DA39F900DB29F900D112408951C
:105AB000AA1BBB1B51E107C0AA1FBB1FA617B70734
:105AC00010F0A61BB70B881F991F5A95A9F7809550
:105AD0009095BC01CD01089597FB072E16F4009414
