:10000000B3C000000C94171C0C94621CCAC0000002
:10001000C8C00000C6C00000C4C000000C94E713B4
:10002000C0C0000062C10000BCC000000C94E3101E
:100030000C94B425B6C00000B4C00000B2C00000EB
:100040000C94CF26AEC000000C941927AAC0000063
:10005000A8C00000A6C00000A4C00000A2C000000C
:100060000C946A159EC00000005EBCE2613FDD8317
:10007000C29C7E20A3FD1F419DC3217FFCA2401E88
:100080005F01E3BD3E6082DC237D9FC1421CFEA078
:10009000E1BF5D0380DE3C62BEE0025CDF81633D68
:1000A0007C22C09E1D43A1FF4618FAA427799BC558
:1000B00084DA3866E5BB5907DB856739BAE4065848
:1000C0001947A5FB7826C49A653BD987045AB8E638
:1000D000A7F91B45C6987A24F8A6441A99C7257B28
:1000E0003A6486D85B05E7B98CD2306EEDB3510F18
:1000F0004E10F2AC2F7193CD114FADF3702ECC9208
:10010000D38D6F31B2EC0E50AFF1134DCE90722CF7
:100110006D33D18F0C52B0EE326C8ED0530DEFB1E7
:10012000F0AE4C1291CF2D73CA947628ABF51749D7
:100130000856B4EA6937D58B5709EBB536688AD4C7
:1001400095CB2977F4AA4816E9B7550B88D6346AB7
:100150002B7597C94A14F6A8742AC896154BA9F7A7
:10016000B6E80A54D7896B3511241FBECFEFD8E00B
:10017000DEBFCDBF12E0A0E0B1E0E2E4FAE502C0EC
:1001800005900D92AC32B107D9F726E0ACE2B2E0AF
:1001900001C01D92A338B207E1F70E9453270C94C7
:1001A0001F2D2ECF60E08091B4040E94342461E0C2
:1001B0008091B5040E94342461E08091B4040E94CF
:1001C000342460E08091B4040E94342460E0809183
:1001D000B5040E94342488E490E00C94441A80937F
:1001E000B4046093B5044093D70461E070E00E94CA
:1001F000E42361E070E08091B5040E94E423D2CF53
:10020000CF92DF92EF92FF920F931F93CF93DF93E2
:10021000182F092F80912C02811113C00E94C32630
:100220006093C2047093C3048093C4049093C50484
:1002300081E080932C02C12FD02F8E01025F1F4FCF
:1002400021C00E94C3266093C8047093C9048093A0
:10025000CA049093CB04C090C204D090C304E09031
:10026000C404F090C504DC01CB018C199D09AE09D2
:10027000BF09893B9B40A105B105E8F293DF1092CD
:100280002C02D9CF8AE090E00E94441A8091D704D2
:100290000E9491248993999382E390E00E94441AEA
:1002A00061E08091B4040E94342482E190E00E94D5
:1002B000441A60E08091B4040E943424C017D1072E
:1002C00009F7DF91CF911F910F91FF90EF90DF9091
:1002D000CF9008951092B00087E08093B100109203
:1002E000B20081E08093700008951F920F920FB6C4
:1002F0000F9211248F93809131028F5F809331028E
:100300008F910F900FBE0F901F90189580912D0226
:1003100090912E02A0912F02B0913002892B8A2B4E
:100320008B2B09F464C080EF0E9418188DE00E94A6
:10033000181880E00E9418188091DA040E9418189A
:1003400080912D028F770E94181880912D02909134
:100350002E02A0912F02B091300227E0B695A7950A
:10036000979587952A95D1F78F770E9418188091D5
:100370002D0290912E02A0912F02B09130023EE00A
:10038000B695A795979587953A95D1F78F770E945F
:10039000181880912D0290912E02A0912F02B091F9
:1003A000300245E1B695A795979587954A95D1F77F
:1003B0008F770E94181880912D0290912E02A091A3
:1003C0002F02B09130025CE1B695A795979587957D
:1003D0005A95D1F70E94181887EF0E9418181092AA
:1003E0002D0210922E0210922F02109230020895C8
:1003F0008091DA040E9462248823D1F38091B200B4
:1004000090E090933702809336021092B200809170
:1004100036029091370207970497E0F48091DA044E
:100420000E9462248111FACF8091B20090E09093F3
:100430003702809336021092B2008091360290917A
:1004400037029C01275031092430310528F04997A3
:10045000039720F08FEF089580E0089581E00895DC
:100460000F931F93CF93DF9310922D0210922E02C1
:1004700010922F0210923002C8E0D0E0B9DF811153
:100480004AC02197D9F7C6E0D0E0B2DF813009F049
:1004900042C02197D1F7ACDF81113DC0A9DF813087
:1004A000D1F5CFE0D0E001E010E0A2DF8130F9F437
:1004B000C8010C2E02C0880F991F0A94E2F7092E7A
:1004C000000CAA0BBB0B40912D0250912E026091A3
:1004D0002F0270913002842B952BA62BB72B809383
:1004E0002D0290932E02A0932F02B09330022197F9
:1004F000E0F680912D0290912E02A0912F02B091F2
:100500003002AA27BB2780932D0290932E02A0933E
:100510002F02B0933002DF91CF911F910F91089578
:100520008093DA041092B2008091DA040E9462246F
:10053000882329F08091B20010923102F5CF1092F9
:10054000B2008091DA040E9462248823D1F3809162
:10055000B20090E090933702809336021092B2007E
:1005600080913602909137028C589109049760F57A
:100570008091DA040E9462248111FACF8091B20046
:1005800090E090933702809336021092B2008091EF
:100590003602909137029C012454310925303105EF
:1005A00008F45ECF8297039778F48091DA040E9472
:1005B00062248823D1F38091B20090E090933702B7
:1005C000809336021092B20008958F929F92AF925C
:1005D000BF92CF92DF92EF92FF92CF936C01C62F22
:1005E0000E94E6194B015C010D2C000CEE08FF087F
:1005F00061E08C2F0E94342480913202909133026A
:100600000E94441A60E08C2F0E94342480913202B0
:10061000909133020E94441A0E94E619DC01CB013A
:1006200088199909AA09BB098C159D05AE05BF0556
:10063000F8F2CF91FF90EF90DF90CF90BF90AF9006
:100640009F908F9008958F929F92AF92BF92CF927A
:10065000DF92EF92FF926C01F62E0E94E6194B0199
:100660005C0160E08F2D0E9434240D2C000CEE08FC
:10067000FF080E94E619DC01CB0188199909AA0933
:10068000BB098C159D05AE05BF0598F3FF90EF9053
:10069000DF90CF90BF90AF909F908F900895E62FFE
:1006A000F0E0E25EFE4FE0819E2F977041E050E067
:1006B0009A0101C0220F9A95EAF7F0E093E0F695CF
:1006C000E7959A95E1F7BF01660F771FE60FF71FD1
:1006D000B096922F90953281932392839181292B0A
:1006E0002183682F70E0CA010E94D82A072E000CCF
:1006F000880B990B0E940F2920E030E04AE754E470
:100700000E94FD2920E030E040EC50E40E940C28DB
:100710000E94DC286093320270933302809334028B
:10072000909335020895AF92BF92CF92DF92EF92ED
:10073000FF920F931F93CF936B017C01C42F59013C
:10074000642F86E2ACDF6C2F88E293E23EDF6C2FF1
:1007500084E991E178DF00E010E06C2F80E392E023
:100760000A151B05A4F4F7FE06C02FDF6C2F80E4EA
:1007700096E069DF05C029DF6C2F80E392E063DF3C
:10078000CC0CDD1CEE1CFF1C0F5F1F4FE6CF1DDFE6
:100790006C2F80E090E0CF911F910F91FF90EF9030
:1007A000DF90CF90BF90AF904ECFE82FF0E0EE5C9F
:1007B000FE4FE0812E2F277081E090E001C0880F6E
:1007C0002A95EAF7F0E093E0F695E7959A95E1F738
:1007D0009F01220F331FE20FF31FB096982F9095C1
:1007E0002281922392839181892B81830895AF92F4
:1007F000BF92CF92DF92EF92FF920F931F93CF930E
:10080000DF936C01C62FD0E0CC0FDD1F8E010E5A96
:100810001D4FF80180819181009729F00E948F2C53
:10082000F801118210828E01085C1D4FF801808151
:100830009181009729F00E948F2CF801118210827B
:100840009091B6048091D104981719F084E090E05B
:1008500002C083E090E08C9D50018D9DB00C9C9D6A
:10086000B00C1124B092B804A092B704C5010E9444
:10087000F72B8C01FE01EE5AFD4F91838083892B6B
:10088000E9F0C5010E94F72B7C01FE01E85CFD4FF9
:1008900091838083892B91F0A50160E070E0C8010D
:1008A0000E94182DA50160E070E0C7010E94182D7C
:1008B000D092D904C092D80481E019C0C8010E9426
:1008C0008F2CFE01EE5AFD4F11821082C85CDD4F65
:1008D000888199810E948F2C198218821092B80405
:1008E0001092B7041092D9041092D80480E0DF91DE
:1008F000CF911F910F91FF90EF90DF90CF90BF901D
:10090000AF90089531E02091B6049091D10429135D
:1009100030E0482F42954695469543704093B60483
:10092000982F929593709093D104282F2695269511
:1009300023702093BF0483708093CD0481E0809363
:10094000D004E62FF0E0EE0FFF1FEE5AFD4F0190AE
:10095000F081E02DEF2B49F0491380E0381729F0A2
:100960008091D8049091D90442CF08950F931F939A
:10097000CF93C82F809120038F3F99F08091D204AC
:100980008C130FC08091D3049091D40486179707DD
:1009900041F48091D504841304C08091D604821759
:1009A00029F1822F8B01C093D2047093D4046093F9
:1009B000D3044093D5042093D6044093CC046C2FE9
:1009C000A1DF6C2FC80113DFC82F882369F0809145
:1009D000200387FD06C0E9DE60E0809120030E94CD
:1009E000342481E08093C7048C2F00C0CF911F91E5
:1009F0000F9108956111D9CEE82FF0E0EE5CFE4F23
:100A00008081E82FF0E093E0F695E7959A95E1F77D
:100A10009F01220F331FE20FF31FB096282F27707C
:100A200081E090E001C0880F2A95EAF780959181D6
:100A3000982391839281892382830895CF93C82F2D
:100A40008091C704882331F08091200387FD02C084
:100A500060E0D0DFC09320038091C704882331F089
:100A60008C2FA3DE60E08C2F0E9434248C2F90E02A
:100A7000FC01ED5FFD4FE081F0E0EE0FFF1FE7505E
:100A8000FE4F208131813093CF042093CE04FC01AE
:100A9000E552FE4F80818093AF04CF9108954F922D
:100AA0005F926F927F928F929F92AF92BF92CF92FE
:100AB000DF92EF92FF920F931F93CF93DF93CDB707
:100AC000DEB729970FB6F894DEBF0FBECDBF722EEA
:100AD000C32ED42E598328E631E040E050E00E9436
:100AE000EB2A4B015C01ED82FE820F8318872D817A
:100AF0003E814F815885243631054105510540F02E
:100B000083E690E0A0E0B0E08D839E83AF83B8875A
:100B10008D819E81AF81B885C297A109B048880FA9
:100B2000991F97FF03C091958195910924E630E0C4
:100B3000281B390B032E000C440B550B672D7C2D05
:100B40008D2D9981643671058105910520F063E64C
:100B500070E080E090E00E94A92A982F872F762FDE
:100B6000662720E137E240E050E00E94EB2A2901AD
:100B70003A01ACE3CA2ED12CE12CF12CC501B40111
:100B8000A70196010E94EB2A29833A834B835C8359
:100B9000998199872CE3A981BA812A9FC0012B9F53
:100BA000900D1124092E000CAA0BBB0BA50194017A
:100BB000281B390B4A0B5B0B942F832F722F662750
:100BC000A70196010E94EB2A89818170C82ED12C41
:100BD000DC2CCC24DA94C20ED31ED7FE03C0D194F1
:100BE000C194D1080D2C000CEE08FF0880E091E0C4
:100BF000A0E0B0E09C01AD012C193D094E095F0950
:100C0000C301B2010E94A92AC72ED82EE92EFF24C3
:100C10009985992379F0913081F09230B9F0933031
:100C2000E1F0943011F1C982DA82EB82FC82530147
:100C3000420121C05301420104C046015701730122
:100C4000620119821A821B821C8218C0C982DA8250
:100C5000EB82FC827301620104C049825A826B827A
:100C60007C82812C912C540109C049825A826B826A
:100C70007C8246015701C12CD12C76018D819E8149
:100C8000AF81B885880F991FAA1FBB1F6627782FD1
:100C9000892F9A2F24E630E040E050E00E94EB2AB2
:100CA000DA01C90184199509A609B7098C019D01CA
:100CB0003695279517950795D501C401800F911F8B
:100CC000A21FB31F9927AA27BB27DC0199278827D2
:100CD000C00ED11EE21EF31EFE2CED2CDC2CCC240B
:100CE000EE24FF248C299D29AE29BF2949815A81F0
:100CF0006B817C81400F511F621F731FBC01CD01AE
:100D0000642B29960FB6F894DEBF0FBECDBFDF91DE
:100D1000CF911F910F91FF90EF90DF90CF90BF90F8
:100D2000AF909F908F907F906F905F904F900895BD
:100D3000CF932091D8043091D9046217730708F03B
:100D400058C02091B604C091D10490E05091BF04E6
:100D5000A22FB0E04091CD04880F991FFC012C1305
:100D600022C0E85CFD4F9B01220F331F620F731FEF
:100D700020813181260F371FF901E50FF11D5081C8
:100D8000A20FB31F6C91862F90E0A0E0B0E0DC01D1
:100D900099278827952BF901E40FF11D2081BC01CB
:100DA000CD01622B29C0EE5AFD4F660F771F660FEB
:100DB000771F20813181260F371FA20FB31FEC91BF
:100DC000D901AC0FB11D6C91862F90E0A0E0B0E08E
:100DD000DC0199278827BE2BF901E40FF11D408122
:100DE000842BF901E50FF11D2081BC01CD01722B8F
:100DF00003C060E070E0CB01CF9108951F93CF93C3
:100E0000DF93CDB7DEB729970FB6F894DEBF0FBEDC
:100E1000CDBF182F13DE8091B7049091B8049A8348
:100E20008983E12FF0E0EE0FFF1FEE5AFD4F019096
:100E3000F081E02DDF011196808189879091D004A7
:100E4000E091CE04F091CF048091AF04992309F48E
:100E500036C09081982B98879081809589238F83C5
:100E60008F818E8388E08D83F89458856F81E0911F
:100E7000CE04F091CF0449853D812E8189819A81EC
:100E8000508347FD252F3A952083262F39F0441FA4
:100E900000C000006083000000C0F2CF38E04D9138
:100EA00060830000019761F7F093CF04E093CE04D4
:100EB00049873D832E839A83898378943AC09081B1
:100EC000982B98879081809589238F838F818C833D
:100ED00088E08B8358856F8149853B812C8189818E
:100EE0009A81508347FD252F00C000C0208300C099
:100EF00000C000C000C000C060830000262F3A95EB
:100F000041F0441F000000C000C000C000C000C08D
:100F1000E8CF38E04D9100C0608300C0019709F729
:100F2000F093CF04E093CE0449873B832C839A83CC
:100F3000898329960FB6F894DEBF0FBECDBFDF912F
:100F4000CF911F910895CF92DF92EF92FF920F936E
:100F50001F93CF93DF936093CC042091D8043091FA
:100F6000D904232B09F461C0A0E0B0E0C0E0D0E0D8
:100F7000E82FF0E0EE0FFF1F8F010E5A1D4F9F016B
:100F8000285C3D4F69012091D8043091D904C217E3
:100F9000D30708F041C0F801408151817A01EA0E7F
:100FA000FB1EF601208131812A0F3B1F4091D104A5
:100FB00050E0B901640F751FFB0190816091CC0472
:100FC0004E0D5F1D969FB0011124FA017083609150
:100FD000BF0470E0A901460F571FFA0190814091AC
:100FE000CC046E0D7F1D949FA0011124FB01508342
:100FF0009091CD04492F50E0240F351FF9019081C5
:101000002091CC044E0D5F1D929F90011124FA0196
:10101000308321961396B7CFDF91CF911F910F9117
:10102000FF90EF90DF90CF90E9CEDF91CF911F91AD
:101030000F91FF90EF90DF90CF9008954F925F92C5
:101040006F927F928F929F92AF92BF92CF92DF92D8
:10105000EF92FF920F931F93CF93DF9369017A0171
:10106000902F2091D8043091D9046217730708F0AB
:1010700093C08701222733274D2C5E2C6F2C7724B9
:10108000A091B604E091D104482F50E0AE1317C0F0
:10109000FB01EE0FFF1F6E0F7F1F440F551FFA015C
:1010A000EE5AFD4F0190F081E02DE60FF71FDA01B7
:1010B000A85CBD4F4D915C91640F751F3FC0660FDA
:1010C000771F660F771F440F551FFA01EE5AFD4F29
:1010D0000190F081E02DE60FF71FEA01C85CDD4FBB
:1010E00048815981640F751F8F2C9924AA24BB2431
:1010F000EF01CA0FD11D4091CC04442351F050E0C0
:10110000489DD001499DB00D589DB00D11244B2F25
:1011100001C0482D48834091B604EB01C40FD11D96
:101120004091CC04442349F050E0489DD001499DB2
:10113000B00D589DB00D11248B2E88824091D104A2
:10114000DB01A40FB11D0C934091BF04DB01A40F80
:10115000B11D4C924091CD04DB01A40FB11DCC9286
:101160004091CC04049F80011124449D200111244E
:101170004C9D600111242091D104DF01A20FB11D0B
:101180001C932091BF04DF01A20FB11D5C9220913E
:10119000CD04E20FF11DD082992389F0DF91CF9128
:1011A0001F910F91FF90EF90DF90CF90BF90AF9085
:1011B0009F908F907F906F905F904F901FCEDF91A8
:1011C000CF911F910F91FF90EF90DF90CF90BF9044
:1011D000AF909F908F907F906F905F904F90089509
:1011E0008F929F92AF92BF92DF92EF92FF920F93F6
:1011F0001F93CF93DF93D82E480159018091D804D3
:101200009091D90477FD02C057FF05C0AC01415051
:10121000510960E070E0461757072CF4362F272F4E
:10122000BA01432F522F009769F177FF02C060E0A7
:1012300070E07B018617970708F47C0157FF02C016
:1012400040E050E08417950708F4AC01EA012196CC
:10125000EC16FD0650F400E0A5019401B7018D2DB8
:10126000EDDE8FEFE81AF80AF3CF8D2DDF91CF91E5
:101270001F910F91FF90EF90DF90BF90AF909F90E4
:101280008F90BCCDDF91CF911F910F91FF90EF9088
:10129000DF90BF90AF909F908F9008951F93CF9352
:1012A000DF932091D8043091D904232B19F1182F02
:1012B000C82FD0E0CC0FDD1FFE01EE5AFD4F40914C
:1012C000B7045091B80460E070E0808191810E9481
:1012D000182DC85CDD4F4091B7045091B80460E010
:1012E00070E0888199810E94182D812FDF91CF9124
:1012F0001F9184CDDF91CF911F9108952F923F923E
:101300004F925F926F927F928F929F92AF92BF9215
:10131000CF92DF92EF92FF920F931F93CF93DF93C1
:1013200000D000D01F92CDB7DEB7898348015901A4
:10133000160127014617570728F4962F872FBA0161
:10134000492F582F8091D8049091D904009709F41F
:10135000C9C07D836C838617970710F49D838C83A7
:101360008417950708F4AC014F5F5F4F9A018C8199
:101370009D81281B390B3B832A83C10188599E4FCD
:101380008819990968E671E00E94C42A9C0144E624
:10139000429FC001439F900D11246A817B810E946E
:1013A000C42A6B018A819B810197A9F4860E971E3E
:1013B000B40180E090E012E3E12EF12C00E010E0B7
:1013C00024E630E040E050E06ADB9B01AC0100E045
:1013D0006C817D816CC012E3E12EF12C00E010E005
:1013E00024E630E040E050E0C501B40158DB9B0149
:1013F000AC0100E06C817D81898120DE6C807D8084
:101400009FEF691A790AC69C9001C79C300DD69C43
:10141000300D11242C193D0944E6489DC001499D19
:10142000900D11244901880E991EA12CB12C8C819C
:101430009D8101972A813B81820F931F9B838A8321
:10144000AC0CBD1C8A819B8168167906F8F4C50135
:10145000880D991D64E670E00E94C42A68597E4F89
:1014600080E090E012E3E12EF12C00E010E024E6B1
:1014700030E040E050E013DB9B01AC0100E0B30141
:101480008981DCDD3FEF631A730ADACF12E3E12EC4
:10149000F12C00E010E024E630E040E050E0C20132
:1014A000B101FDDA9B01AC0100E06A817B81898199
:1014B000C5DD89810F900F900F900F900F90DF91F5
:1014C000CF911F910F91FF90EF90DF90CF90BF9041
:1014D000AF909F908F907F906F905F904F903F90D4
:1014E0002F908CCC0F900F900F900F900F90DF915A
:1014F000CF911F910F91FF90EF90DF90CF90BF9011
:10150000AF909F908F907F906F905F904F903F90A3
:101510002F900895AF92BF92CF92DF92EF92FF92F9
:101520000F931F93CF93DF93662309F46BC0C09191
:10153000D804D091D904209709F464C0C62E062E91
:10154000000CDD08CC15DD0558F4DF91CF911F911B
:101550000F91FF90EF90DF90CF90BF90AF909ECE15
:10156000182F161634F0A12CB12C7E01EC0CFD1CAA
:1015700029C02197CC15DD0564F0BE016C197D09E9
:10158000812FD6DB9B01AC0100E0BE01812F56DD2F
:10159000F0CFC0E0D0E000E020E030E0A901BE01E3
:1015A000812F4CDD2196CC16DD06A9F7812FDF9126
:1015B000CF911F910F91FF90EF90DF90CF90BF9050
:1015C000AF901CCCEA14FB0478F0B5016C197D09CE
:1015D000812FAEDB9B01AC0100E0B501812F2EDD38
:1015E0008FEFA81AB80AEECFEC16FD06F8F600E069
:1015F00020E030E0A901B701812F20DD8FEFE81A4C
:10160000F80AF2CFDF91CF911F910F91FF90EF90E9
:10161000DF90CF90BF90AF9008952F923F924F925E
:101620005F926F927F928F929F92AF92BF92CF9272
:10163000DF92EF92FF920F931F93CF93DF9300D02F
:10164000CDB7DEB7382E2DB73EB73A832983662350
:1016500009F4D9C0E090D804F090D904E114F10461
:1016600009F4D1C0862F660F990BB7010E94C42AD6
:10167000282EC82E082E000CDD084DB65EB61816B2
:101680000CF04EC0C601880F991F880F991FEDB747
:10169000FEB7E81BF90B0FB6F894FEBF0FBEEDBF07
:1016A0002DB73EB72F5F3F4F3901590100E010E0E1
:1016B00047018C189D08B401600F711F832D38DB22
:1016C000F50161937193819391935F010F5F1F4FB8
:1016D0000C151D0584F3F1E0EF1AF108EC14FD047C
:1016E00064F0B7016C197D09832D22DB9B01AC01ED
:1016F00000E0B701832DA2DCEECFE12CF12CF30149
:1017000021913191419151913F0100E0B701832D29
:1017100095DCFFEFEF1AFF0AEC14FD0484F36CC0B4
:10172000D194C194D108C601880F991F880F991FC1
:101730002DB73EB7281B390B0FB6F8943EBF0FBE2E
:101740002DBF8DB79EB701963C018C01A12CB12C09
:10175000AC14BD0469F0B501832DEADAF801619398
:101760007193819391938F01FFEFAF1ABF0AF0CF6E
:10177000812C912CA22C220CBB086701CA0CDB1C0B
:10178000C814D90478F0B4016A197B09832DD0DA22
:101790009B01AC0100E0B401832D50DC2FEF821AD5
:1017A000920AEECF8FEF9FE3E89E4001E99E900CF6
:1017B000F89E900C11248A189B088C0C9D1C880C98
:1017C000991C880C991CA12CB12CCE14DF04A0F418
:1017D000F501E80DF91DE60DF71D208131814281EB
:1017E000538100E0B601832D29DC3FEFC31AD30AF1
:1017F00084E0A80EB11CE9CF0FB6F8945EBE0FBE10
:101800004DBE832DFBDAE981FA810FB6F894FEBF55
:101810000FBEEDBF0F900F90DF91CF911F910F91F1
:10182000FF90EF90DF90CF90BF90AF909F908F9000
:101830007F906F905F904F903F902F9008952F92E0
:101840003F924F925F927F928F929F92AF92BF9200
:10185000CF92DF92EF92FF920F931F93CF93DF937C
:1018600000D000D0CDB7DEB7782E7C836B83B80173
:101870008B819C814817590730F49B818C815C8354
:101880004B83492F582F8091D8049091D904009709
:1018900009F49DC0EB81FC818E179F0710F49C8397
:1018A0008B838417950708F4AC011616170664F0AD
:1018B000872DF4DC00E020E03FEF4FEF50E06B813C
:1018C0007C81872DBBDB67C0CA01EB81FC818E1B4D
:1018D0009F0B9A8389836C01FFEFCF1ADF0AA9015E
:1018E00037FF03C05195419551094C9DC0014D9D55
:1018F000900D5C9D900D11240E94C42A4B01672B12
:1019000049F0A12CB12CE12CF12C212C312C2101FE
:101910002A943EC0EE24E394F12CEC14FD04D8F597
:101920006B817C816E0D7F1D00E020E030E0A9011D
:10193000872D84DB8FEFE81AF80AEFCFE814F9045B
:1019400008F040C0C50169817A810E94C42A9B01C8
:101950003327C901A0E0B0E09C0111270027D20184
:10196000C101861B970BA109B109A9019801282B78
:1019700000E06B817C81872D61DB9FEFE91AF90A1A
:10198000EFEFAE0EB11C8B819C8101969C838B8303
:10199000EC14FD0498F2872D0F900F900F900F908C
:1019A000DF91CF911F910F91FF90EF90DF90CF903B
:1019B000BF90AF909F908F907F905F904F903F909F
:1019C0002F901CCA00E020E030E0A901D2CF0F9098
:1019D0000F900F900F90DF91CF911F910F91FF907B
:1019E000EF90DF90CF90BF90AF909F908F907F90BF
:1019F0005F904F903F902F90089504C061507109FF
:101A0000810991096115710581059105B9F708955D
:101A1000AF92BF92CF92DF92EF92FF920F931F93FC
:101A2000CF93DF931092DB041092DC041092DD045C
:101A30001092DE041092DF04FC01EA51FB4FC081DA
:101A4000FC01E451FB4FD08161E070E08C2F0E94DB
:101A5000E42360E08C2F0E943424DD2371F1A12C5B
:101A600024E2B22E34EFC32ED12CE12CF12C00E075
:101A700010E02D2F30E040E050E060E070E080E0CA
:101A800090E00E94482BE6E0AE2EB12CC12C0E94C3
:101A90009B2B29513C4F4F4F5F4F6F4F7F4F8F4FC5
:101AA0009F4F0E944A2920E030E04AE754E40E9418
:101AB00074280E94E128A1DF05C063E070E080E0A7
:101AC00090E09BDF60E070E08C2F0E94E42388E2CE
:101AD00090E00E94441A00E911E08C2F0E946224D9
:101AE000811106C001501109C1F78EEF9FEF49C067
:101AF00000E911E08C2F0E946224882321F001501C
:101B00001109C1F7F2CF18E200E0D0E890E9E92E20
:101B1000FF24F3948C2F0E946224811105C081E080
:101B2000E81AF108B9F7E1CF0E94E6196B017C01D0
:101B300080E9A82EBB24B3948C2F0E9462248823B2
:101B400029F081E0A81AB108B9F7CFCF0E94E619B1
:101B5000DC01CB018C199D09AE09BF098997A1054C
:101B6000B10538F0E02FF0E0E552FB4F80818D2B7E
:101B70008083D69511F40F5FD0E8115039F680E0DC
:101B800090E0DF91CF911F910F91FF90EF90DF9048
:101B9000CF90BF90AF9008951092FF041092FE0472
:101BA0001092FC04ECEFF4E0129284E0E43FF807BA
:101BB000D9F70895CF93C82F60E00E94FA048C2FC4
:101BC00090E0FC01E552FE4F20812093FD04FC01D2
:101BD000ED5FFD4FE081F0E0EE0FFF1FE151FE4FA2
:101BE000808191819093F3048093F204D5DFCF91AB
:101BF0000895FF920F931F93CF93DF93F090FD040E
:101C0000C091F204D091F304F89489810F2D0095CE
:101C10008023898378941DE7115029F182E090E0B8
:101C20000E94441A88818F21B9F3F8948A81802315
:101C30008A8389818F298983789480EE91E00E943C
:101C4000441AF89489810823098386E490E00E946D
:101C5000441A8881F82211E009F010E078948AE9AA
:101C600091E00E94441A812FDF91CF911F910F9133
:101C7000FF9008950F931F93CF93DF930091FD047E
:101C8000C091F204D091F304F8948981802B898368
:101C90008A81102F109581238A8383E090E00E942F
:101CA000441A8981182319838AE090E00E94441A1B
:101CB000C881789485E390E00E94441AC02381E0B3
:101CC00009F480E0DF91CF911F910F9108950F9358
:101CD0001F93CF93DF9308E010E0C0E0D1E0CADFAC
:101CE0008111CD2BDD0F01501109C9F78C2FDF9128
:101CF000CF911F910F9108951F93CF93DF93109170
:101D0000FD04C091F204D091F304912F909580FFCF
:101D100016C0F8948A8189238A838981812B8983DB
:101D20008AE090E00E94441A8A81182B1A837894E2
:101D300087E390E0DF91CF911F910C94441AF894BF
:101D40008A8189238A838981812B898381E490E038
:101D50000E94441A8A81182B1A83789485E090E0B7
:101D6000DF91CF911F910C94441AFF920F931F9310
:101D7000CF93DF93F82E062FC8E0D0E011E081E08A
:101D80009F2D912309F480E0B7DF110F2197B9F758
:101D9000011113C0F894E091F204F091F3049181E1
:101DA0008091FD04809598239183E091F204F09155
:101DB000F3049281892382837894DF91CF911F91DC
:101DC0000F91FF9008950F931F93CF93DF938C0192
:101DD00060E085E5CADFE801085F1F4F60E0899198
:101DE000C4DFC017D107D1F7DF91CF911F910F91B9
:101DF0000895DF92EF92FF920F931F93CF93DF939B
:101E00002091FE04211104C07C01F3DE811108C081
:101E10001092FF041092FE041092FC0480E05BC05C
:101E200060E080EFA2DFD1E000E0D12CC1E022DF52
:101E3000182F20DF113019F48130C1F432C0202F67
:101E400030E018131DC08091FF04C81738F4F90161
:101E5000EC50FB4F80818D2349F402C0C81731F04C
:101E600010E0C93060F4C093FC0409C0E02FF0E03A
:101E7000EC50FB4F80818D2B808311E009C0DC2E5C
:101E8000F901EC50FB4F80812D2F209528232083D2
:101E9000812F32DFCF5FDD0F11F40F5FD1E008300B
:101EA00030F2C13408F4B4CFD092FF04D11003C093
:101EB00081E08093FE048091F404882309F4A8CF84
:101EC000A4EFB4E0F7018CEF94E02D9121938A17F1
:101ED0009B07D9F781E0DF91CF911F910F91FF9080
:101EE000EF90DF900895DC0180E0615040F09D911B
:101EF000E82FE927F0E0E859FF4F8491F6CF0895E5
:101F0000AF92BF92CF92DF92EF92FF920F931F9307
:101F1000CF93DF93CDB7DEB764970FB6F894DEBFEB
:101F20000FBECDBF5C01CE010D9663DF811102C0F3
:101F300033DE32C067E0CE010D96D5DF9C89891370
:101F40002BC08D85803111F0883231F552DECE0103
:101F50000D9639DF61E084E408DF4BDECE010D969B
:101F600032DF60E08EEB01DF8E010F5F1F4F6E01ED
:101F70008AE0C80ED11C7801AADED7018D937D01BD
:101F8000AC15BD05C9F708DEF501D8018D918D01AD
:101F90008193CA16DB06C9F764960FB6F894DEBFC4
:101FA0000FBECDBFDF91CF911F910F91FF90EF90AA
:101FB000DF90CF90BF90AF9008958F929F92AF9295
:101FC000BF92DF92EF92FF920F931F93CF93DF9315
:101FD00000D01F92CDB7DEB7809103050E94622426
:101FE000882339F061E070E080E090E00E940B1AF5
:101FF000F3CF8E010F5F1F4F53E0D52E812C912C14
:102000005401839447E0E42EF12C61E080910005B7
:102010000E943424809103050E946224882379F071
:10202000F8012281D501C4010E2C04C0880F991F2C
:10203000AA1FBB1F0A94D2F7822B82830FC0D5013F
:10204000C4010E2C04C0880F991FAA1FBB1F0A943D
:10205000D2F78095F80192818923828360E0809194
:1020600000050E943424F1E0EF1AF10870F6DA94CA
:1020700001501109D110C6CF61E0809100050E9486
:10208000342460E0809100050E9434242B816A8111
:10209000862F90E0A0E0B0E0BA2FA92F982F8827D4
:1020A000A22B2981822BBC01CD0180580F900F906B
:1020B0000F90DF91CF911F910F91FF90EF90DF90E4
:1020C000BF90AF909F908F900895CF92DF92EF9244
:1020D000FF92CF93C9E1C12CD12C76016EDFC60EE1
:1020E000D71EE81EF91EC150C9F7C701B60129E184
:1020F00030E040E050E00E940D2BCA01B901CF91C1
:10210000FF90EF90DF90CF900895CF93DF93962FBD
:10211000EA01809303056093000561E070E0892F78
:102120000E94E42360E070E0809103050E94E423B4
:1021300061E0809100050E94342484E690E00E94D2
:10214000441A60E0809100050E943424BEDFBDDFA8
:102150006093040570930505809306059093070529
:10216000D0930205C0930105DF91CF910895CF92DE
:10217000DF92EF92FF9220910305FC012083A5DFFF
:10218000C0900405D0900505E0900605F090070585
:102190006C197D098E099F090E940F296B017C0132
:1021A000609101057091020580E090E00E940D2988
:1021B0009B01AC01C701B6010E947428FF90EF900B
:1021C000DF90CF9008951F920F920FB60F921124B7
:1021D0002F933F934F935F936F937F938F939F932F
:1021E000AF93BF93EF93FF938091760287FF05C073
:1021F00010928500109284002DC020917602022E4C
:10220000000C330B8091060190E02817390714F574
:1022100080917602082E000C990BFC01EE0FFF1F37
:102220008E0F9F1FFC01E958FD4F808186FF12C071
:1022300080917602082E000C990BFC01EE0FFF1F17
:102240008E0F9F1FFC01E958FD4F808160E08F7366
:102250000E943424809176028F5F809376022091D1
:102260007602022E000C330B8091060190E02817B5
:1022700039070CF040C0809176028C30E4F5209153
:1022800084003091850080917602082E000C990B15
:10229000FC01EE0FFF1F8E0F9F1FFC01E958FD4F41
:1022A00081819281820F931F90938900809388008F
:1022B00080917602082E000C990BFC01EE0FFF1F97
:1022C0008E0F9F1FFC01E958FD4F808186FF2EC0B5
:1022D00080917602082E000C990BFC01EE0FFF1F77
:1022E0008E0F9F1FFC01E958FD4F808161E08F73C5
:1022F0000E9434241BC08091840090918500049634
:1023000080349C4938F480E49CE990938900809360
:10231000880009C080918400909185000496909374
:102320008900809388008FEF80937602FF91EF9170
:10233000BF91AF919F918F917F916F915F914F91DD
:102340003F912F910F900FBE0F901F901895EF9215
:10235000FF920F931F93CF93C82F7B018A0161E0F7
:1023600070E00E94E423CF7380917702807CC82BB9
:10237000C093770280E292E08E199F0997FD039641
:1023800095958795959587958093750280E699E058
:10239000801B910B97FD039695958795959587954D
:1023A0008093740280E090E0FC01EE0FFF1FE80FC5
:1023B000F91FE958FD4F208126FD13C001968C308E
:1023C000910591F71092800082E080938100109235
:1023D000850010928400B19A80916F008260809392
:1023E0006F008091770280648093770280E0CF91C4
:1023F0001F910F91FF90EF900895AC0180917502AD
:1024000028E830E0281B310987FD3395C901880F82
:10241000991F880F991F481759078CF080917402F3
:1024200028E532E0281B310987FD3395220F331F41
:10243000220F331FCA01241735070CF4C901029774
:102440002FB7F894092E000CAA0BBB0B34E0880FB1
:10245000991FAA1FBB1F3A95D1F743E0B695A795E0
:10246000979587954A95D1F7909379028093780252
:102470002FBF0895CF92DF92EF92FF92803222E039
:1024800092070CF03FC097FD06C0853B91052CF0EC
:1024900084EB90E002C080E090E02091750248E873
:1024A00050E06A01C21AD10827FDD394CC0CDD1C80
:1024B000CC0CDD1C0D2C000CEE08FF0840917402C2
:1024C00028E532E0241B310947FD3395220F331FE5
:1024D000220F331FA901330F660B770B9A01AB0153
:1024E0002C193D094E095F09DC010E94422B24EBA7
:1024F00030E040E050E00E940D2BC20ED31EE41EDF
:10250000F51EC601FF90EF90DF90CF9076CF8CE064
:102510008093060180E090E028EB3BE0FC01EE0FA9
:10252000FF1FE80FF91FE958FD4F32832183019601
:102530008C30910599F708958F929F92AF92BF9238
:10254000CF92DF92EF92FF921F93CF93DF93909100
:102550000701891759F19F3F09F013C180930701C3
:102560001092B0001092B1009091B00092609093E0
:10257000B0009091B10091609093B100A82FB0E0AD
:10258000FD01ED5FFD4FE081F0E0EE0FFF1FE75032
:10259000FE4F0190F081E02DF0930905E0930805CE
:1025A000FD01E552FE4F908190930A0549015A01C1
:1025B000EB01182F61E070E00E94E4239E0140E0EF
:1025C00050E060E074E284EF90E00E94EB2A690141
:1025D0007A01F694E794D794C79481E0C81AD10899
:1025E000E108F1088FEFC816D104E104F10409F005
:1025F00008F4BFC069017A01F4E0F694E794D79437
:10260000C794FA95D1F781E0C81AD108E108F1081A
:102610008FEFC816D104E104F104C1F0B8F06901EC
:102620007A01E6E0F694E794D794C794EA95D1F757
:1026300081E0C81AD108E108F1088FEFC816D1046B
:10264000E104F10409F020F493E050C092E04EC0A0
:1026500069017A0187E0F694E794D794C7948A9544
:10266000D1F781E0C81AD108E108F1088FEFC81648
:10267000D104E104F10409F008F481C0C32ED42E82
:10268000E52EFF2481E0C81AD108E108F1088FEF98
:10269000C816D104E104F10409F008F46CC0690122
:1026A0007A0169E0F694E794D794C7946A95D1F7D4
:1026B00081E0C81AD108E108F1088FEFC816D104EB
:1026C000E104F10409F008F458C0DA01C9013BE063
:1026D000B695A795979587953A95D1F76C017D01A9
:1026E00021E0C21AD108E108F10897E08091B10019
:1026F000887F982B9093B1002097A1F4809170006F
:102700008D7F8093700060E0812FDF91CF911F91CA
:10271000FF90EF90DF90CF90BF90AF909F908F9001
:102720000C94342481149104A104B10471F0DE01ED
:10273000AA0FBB1FA50194010E94382B28EE33E09D
:1027400040E050E00E94EB2A04C020E03AEC4AE965
:102750005BE3C092B30020931205309313054093BE
:10276000140550931505809170008260809370006D
:1027700008C091E0BBCF95E0B9CF96E0B7CF94E029
:10278000B5CFDF91CF911F91FF90EF90DF90CF9069
:10279000BF90AF909F908F900895909107018913FB
:1027A00013C09FEF90930701909170009D7F9093CD
:1027B000700091E09093B0009091B1009877946090
:1027C0009093B1001092B30060E00C9434241F92F7
:1027D0000F920FB60F9211242F933F934F935F9355
:1027E0006F937F938F939F93AF93BF93EF93FF93D9
:1027F0008091120590911305A0911405B0911505D3
:10280000892B8A2B8B2B51F190910A05E0910805B9
:10281000F09109058081892780838091120590912C
:102820001305A0911405B0911505181619061A067E
:102830001B06BCF48091120590911305A09114051C
:10284000B09115050197A109B109809312059093E4
:102850001305A0931405B093150503C080910701DB
:102860009CDFFF91EF91BF91AF919F918F917F91ED
:102870006F915F914F913F912F910F900FBE0F90ED
:102880001F901895AC01E0915805F09159053097CB
:10289000E1F09091A00280919F029817B0F090E033
:1028A000292F30E02617370754F4DA01A20FB31F9F
:1028B0008C91D901A85EBA4F8C939F5FF1CF109293
:1028C000A00260939F02CB0109940895E091160540
:1028D000F0911705309729F010929D0210929C02FA
:1028E0000994089510920E0381E080930C031092D6
:1028F0000B0361E082E10E94342461E083E10E94E5
:102900003424E9EBF0E080818E7F808380818D7FAD
:10291000808388E48093B80085E48093BC000895A8
:10292000413208F045C090910E039111FCCF91E027
:1029300090930E0320930C032FEF2093A10210928B
:10294000E602240F2093E50290930D0390910D036E
:10295000880F892B80930D0380910B03813071F4D4
:1029600010920B0380910D038093BB008091BC00FB
:1029700083FDF8CF85EC8093BC0003C085EE809387
:10298000BC0080910E038130E1F38091E602841750
:1029900010F44091E602A7EEB2E0962FFB018E2FD5
:1029A000891B841718F48D918193F9CF842F089592
:1029B00080E008950F93413208F04CC090910E03CF
:1029C0009111FCCF32E030930E0300930C033FEFE4
:1029D0003093A1021092E6024093E502562FA7EE33
:1029E000B2E0FB013E2F351B341718F431913D93B3
:1029F000F9CF10920D0330910D03880F832B809334
:102A00000D0380910B03813071F410920B038091C0
:102A10000D038093BB008091BC0083FDF8CF85EC53
:102A20008093BC0003C085EE8093BC00222321F07C
:102A300080910E038230D1F38091A1028F3F79F013
:102A40008091A102803241F08091A102803331F067
:102A500094E005C091E003C092E001C093E0892FAB
:102A60000F9108954091C302262F30E0240F311DAD
:102A700021323105DCF420910E032430C9F4FC012D
:102A800080E090E0861758F43091C3022191DC0178
:102A9000AB53BD4FA30FB11D2C930196F3CF809183
:102AA000C302680F6093C30280E0089581E0089537
:102AB00082E0089585ED8093BC008091BC0084FD88
:102AC000FCCF10920E03089585EC8093BC00109209
:102AD0000E0308951F920F920FB60F9211242F9399
:102AE0003F934F935F936F937F938F939F93AF9396
:102AF000BF93EF93FF938091B900887F803609F4EC
:102B0000ACC070F5883209F461C090F4803109F4EA
:102B100055C038F4882309F40BC1883009F44EC03D
:102B20000AC1883109F452C0803209F465C003C17A
:102B3000803409F471C050F4803309F45DC08833E7
:102B400009F0F9C08093A102BFDFF5C0803509F418
:102B500057C0883509F468C0883409F0ECC0EAC071
:102B6000883909F4DBC0A8F4883709F476C038F452
:102B7000883609F472C0803709F46FC0DCC0883829
:102B800009F4CCC0803909F471C0803809F0D3C091
:102B90006DC0803B09F497C038F4803A09F47BC0DB
:102BA000883A09F490C0C7C0803C09F4BBC0883C97
:102BB00009F4B8C0883B09F49BC0BDC080910D03E7
:102BC0008093BB0085EC8093BC00B5C09091E60279
:102BD0008091E5029817A0F5E091E60281E08E0F62
:102BE0008093E602F0E0E951FD4F80818093BB00C5
:102BF00085EC8093BC009FC08093A1025BDF9BC0EB
:102C0000E091E60281E08E0F8093E6028091BB00A6
:102C1000F0E0E951FD4F80839091E6028091E5025A
:102C2000981708F07BC076C0E091E60281E08E0F35
:102C30008093E6028091BB00F0E0E951FD4F808374
:102C400080910C03811176C081E080930B0384EAAC
:102C50008093BC0010920E036EC083E080930E033D
:102C60001092A20285EC8093BC0065C08091A20204
:102C7000803208F053C0E091A20281E08E0F809371
:102C8000A2028091BB00F0E0ED55FD4F808385EC02
:102C90008093BC0050C018DF8091A202803230F4D3
:102CA000E091A202F0E0ED55FD4F10826091A2028A
:102CB00070E0E0910703F091080383EA92E0099540
:102CC0001092A20238C084E080930E031092C402D6
:102CD0001092C302E0910903F0910A0309958091D3
:102CE000C302811105C081E08093C3021092C50226
:102CF000E091C40281E08E0F8093C402F0E0EB53B8
:102D0000FD4F80818093BB009091C4028091C302EB
:102D1000981720F485EC8093BC000DC085E8809363
:102D2000BC0009C085EC8093BC0010920E0303C068
:102D30001092A102BFDEFF91EF91BF91AF919F91E1
:102D40008F917F916F915F914F913F912F910F9054
:102D50000FBE0F901F9018951092A00210929F0224
:102D600010929D0210929C02BDDD86E694E1909344
:102D70000A038093090382E494E19093080380930B
:102D800007030895462F613208F040E221E068E130
:102D900075E0C6DD1092A00280939F02089591E035
:102DA00090939B0280939E0210929D0210929C022F
:102DB00008950F93CF93C82F0C2F21E040919C02D0
:102DC00068E375E080919E02F5DD90919C02992365
:102DD00011F08111F1CF10929D0210929C0210927D
:102DE0009B02CF910F910895CF93DF931F92CDB7A0
:102DF000DEB7898380919B028823A1F080919C0299
:102E00008032B8F480919D02E82FF0E0E85CFA4F40
:102E1000998190838F5F80939D0280939C0281E0D3
:102E200090E009C061E0CE0101961CDE81E090E0F7
:102E300002C080E090E00F90DF91CF9108958091E3
:102E40009F0290E02091A002821B91090895909129
:102E5000A00280919F02981750F4E92FF0E0E85EFD
:102E6000FA4F208130E09F5F9093A00202C02FEFC5
:102E70003FEFC90108958F929F92AF92BF92CF9278
:102E8000DF92EF92FF92CF93DF9390E0FC01E8583E
:102E9000FA4FC081FC01E65AFA4FD081880F991F82
:102EA000880F991FFC01E05AFA4FC080D180E28060
:102EB000F3802C2F277081E090E0AC0102C0440F1A
:102EC000551F2A95E2F79A01EC2FF0E033E0F695D2
:102ED000E7953A95E1F7AF01440F551FE40FF51F51
:102EE000B096322F30954281342332833181232BA7
:102EF0002183ED2FF0E073E0F695E7957A95E1F701
:102F00009F01220F331FE20FF31FB0962D2F277062
:102F100001C0880F2A95EAF78095918198239183C3
:102F200092818923828360E08C2F0E94342482E086
:102F300090E0AAD261E08C2F0E9434248AE090E0D5
:102F4000A3D260E08C2F0E94342440D24B015C015C
:102F50008D2F0E946224882321F038D24B015C011E
:102F600019C034D2DC01CB0188199909AA09BB091F
:102F7000C816D906EA06FB0658F7EFCF27D2DC01C0
:102F8000CB0188199909AA09BB09C816D906EA060E
:102F9000FB0628F08D2F0E9462248111EFCF16D2FC
:102FA000681979098A099B0928E330E040E050E07C
:102FB0000E94EB2AC901DF91CF91FF90EF90DF9043
:102FC000CF90BF90AF909F908F900895CF93DF9355
:102FD0001F92CDB7DEB78FB78983F89489815F934D
:102FE00050E85093610050E0509361005F918FBFB3
:102FF0000F90DF91CF910895CF93DF931F92CDB7BC
:10300000DEB79FB79983F8949981811106C06095C6
:10301000809164006823609364009FBF0F90DF91EC
:10302000CF9108958091C000881F8827881F089538
:103030009091C00095FFFCCF8093C60080E008957A
:103040008091C60008954F925F926F927F928F9207
:103050009F92AF92BF92CF92DF92EF92FF920F9327
:103060001F93CF93DF93EC016A017B01C901B80183
:1030700043E096958795779567954A95D1F748816E
:1030800041FD0CC048015901B3E1B694A79497944F
:103090008794BA95D1F72B013C0112C02801390160
:1030A000F4E07694679457944794FA95D1F74801E1
:1030B0005901A4E1B694A79497948794AA95D1F75F
:1030C0004C145D046E047F0460F1C814D904EA0452
:1030D000FB0438F1488141FF0EC0A7019601220F81
:1030E000331F441F551F0E94EB2ADA01C9010197C3
:1030F000A109B10912C0C901B80124E096958795CC
:10310000779567952A95D1F7A70196010E94EB2A3A
:10311000DA01C9010197A109B1099D838C8381E07E
:1031200001C080E0DF91CF911F910F91FF90EF9050
:10313000DF90CF90BF90AF909F908F907F906F90D7
:103140005F904F9008950F931F93CF93DF93EC01FF
:103150008B01803C910519F462E080E04DDF8A81AB
:103160008F738A83888182608883F8019681358194
:1031700084812A81482F4370440F297F242B2A837E
:1031800029818470880F880F2B7F822B89838A8105
:103190008F7C832B8A838A81282F277FF8E09F9F4B
:1031A000C0011124822B8A83F80140815181628100
:1031B000738100E014E224EF30E0CE0144DF998116
:1031C00098609983998190619983DF91CF911F9144
:1031D0000F910895AF92BF92CF92DF92EF92FF923C
:1031E0000F931F93CF93DF9328E0829F70011124E8
:1031F000082F000F000F000FC0E0D0E010E082E0C9
:10320000E81AF108C62ED12CAA24A394B12CC70128
:103210008C0F9D1F4297B0F4C6010C2E02C09595ED
:1032200087950A94E2F780FF0DC08C2F800F0E94D3
:103230006224882339F0C5010C2E01C0880F0A943E
:10324000EAF7182B2196C830D10509F7812FDF91B5
:10325000CF911F910F91FF90EF90DF90CF90BF9093
:10326000AF9008955F926F927F928F929F92AF92EC
:10327000BF92CF92DF92EF92FF920F931F93CF9363
:10328000DF934A01FB015080452B19F488248A946E
:10329000982C7B013B01680E791EC0E0D0E000E075
:1032A00010E087E0C82ED12CE614F70489F1081548
:1032B000190508F04AC05701F70181917F010C2ED2
:1032C00001C0880F0A94EAF785298F77B1DE0F5F76
:1032D0001F4FF501808190E096012C1B3D0B02C031
:1032E000959587952A95E2F7582E2196C730D105F6
:1032F000D8F28016910651F0852D8F7799DE0F5FF9
:103300001F4F551C5524551C2797F0CF8401CCCF57
:103310002097D9F008151905C0F481E090E001C0AC
:10332000880FCA95EAF781508521DF91CF911F91CF
:103330000F91FF90EF90DF90CF90BF90AF909F9054
:103340008F907F906F905F9073CEDF91CF911F91A0
:103350000F91FF90EF90DF90CF90BF90AF909F9034
:103360008F907F906F905F900895FF920F931F93BF
:10337000CF93DF93C82F162FF42E052F80EF58DE42
:103380008C2F56DECF2DD02FCE01810F911D8C01B9
:10339000C017D10741F040E050E0BE0181E090E06D
:1033A00061DF2196F5CF87EFDF91CF911F910F91CC
:1033B000FF903ECEFC0101900020E9F73197BF015C
:1033C000681B790BAC0181E7D0CF08953FB7F89423
:1033D0008091690490916A04A0916B04B0916C048F
:1033E00026B5A89B05C02F3F19F00196A11DB11D60
:1033F0003FBFBA2FA92F982F8827820F911DA11D9B
:10340000B11DBC01CD0142E0660F771F881F991FD7
:103410004A95D1F708958F929F92AF92BF92CF9223
:10342000DF92EF92FF926B017C01D0DF4B015C01D8
:10343000C114D104E104F104F1F0C7DFC7DFDC01FE
:10344000CB0188199909AA09BB09883E9340A105B7
:10345000B10570F321E0C21AD108E108F10888EE45
:10346000880E83E0981EA11CB11CC114D104E10494
:10347000F10421F7DDCFFF90EF90DF90CF90BF9068
:10348000AF909F908F9008958230910538F0880F0B
:10349000991F880F991F05970197F1F708951092CA
:1034A00039061092100610920F061092860510929F
:1034B00085051092C8051092840580E480933A0631
:1034C00008951F93CF93DF9300D000D0CDB7DEB720
:1034D00080917E058823D9F06091810580E07ADEB5
:1034E0001091810518238091CB05181781F0812F49
:1034F00090E09C838B8380E99BDD42E050E0BE013D
:103500006D5F7F4F82E090E0ADDE1093CB05809140
:103510007F058823D9F06091820581E05BDE109100
:10352000820518238091CC05181781F0812F90E037
:103530009A83898381E97CDD42E050E0BE016F5FC0
:103540007F4F82E090E08EDE1093CC050F900F90BD
:103550000F900F90DF91CF911F910895CF93DF933C
:1035600000D0CDB7DEB77A836983803170F46115FE
:10357000704458F4806E5CDD42E050E0BE016F5F45
:103580007F4F82E090E06EDE06C08FEF51DD8FEF5F
:103590004FDD8FEF4DDD0F900F90DF91CF910895AC
:1035A000CF93C2EF8EE08C0FC630A8F40E94DE23CA
:1035B000823089F480911D0390E00C2E02C0959515
:1035C00087950A94E2F780FF06C08C2F0E94912411
:1035D000BC018C2FC3DFCF5FC63021F7CF91089598
:1035E000EF92FF920F931F93CF93DF93D82F8B010E
:1035F000C42FF22E6F3F7F4F71F08D2FD0DB802FC5
:10360000F3DB8F2DD6DB80911B0390911C03009779
:1036100021F03ADF02C000E010E06C2F8D2FB2DB0A
:10362000EC2EF12C0CDCE816F9060CF008DCD0933B
:1036300087050093880503DC892B61F462E06C0F39
:1036400047E855E087E7DF91CF911F910F91FF90F9
:10365000EF908BCE07E815E0C801875895408E158E
:103660009F0564F7F4DBF8018283E9DB0F5F1F4FEE
:10367000892B91F7E3CFCF93C0E08EEE8C0F823091
:1036800028F466E070E08C2F0E94E423CF5FC43101
:10369000A1F781E080931A03CF915ECB1F93CF9364
:1036A000DF9380917002909171029C012F5F3F4FD8
:1036B0003093710220937002209172023091730254
:1036C000281739070CF057C080916E0290916F0255
:1036D000892B09F450C080916D0290E00E94080D82
:1036E000BC0190916D02492F50E0FA01EA51FB4F65
:1036F000D081FA01E052FB4FC0811092710210920A
:10370000700290936C029F5F90936D0220916E0205
:1037100030916F02215031094217530714F0109273
:103720006D02672B41F59091DB048091DC04890FD9
:103730009091DD04890F9091DE04890F11E0909142
:10374000DF04891301C010E080EF72DC85E670DCD5
:103750008D2F6EDC8C2F6CDCCBEDD4E0899168DC96
:1037600084E0CF3DD807D1F7812F62DC87EFDF916E
:10377000CF911F915DCCDF91CF911F910895CF9391
:10378000DF9380911403909115039C012F5F3F4FAD
:1037900030931503209314032091120330911303E7
:1037A000281739070CF040C010921503109214032B
:1037B0008091180390911903892BB1F18091100326
:1037C0005ADBEC01209110033091110320930F0379
:1037D000C9010196909311038093100380911803FF
:1037E0009091190301972817390724F010921103BB
:1037F0001092100380EF1CDC83E61ADCE0910F03CB
:10380000F0E0E858FA4F808113DC8C2F8F7710DCC2
:10381000CE01880F892F881F990B91958F7708DC2F
:1038200087EFDF91CF9104CCDF91CF9108951F9264
:103830000F920FB60F9211240F931F932F933F9364
:103840004F935F936F937F938F939F93AF93BF93A8
:10385000EF93FF93E09A0E94C3260091BB0410915E
:10386000BC042091BD043091BE04DC01CB01801B5F
:10387000910BA20BB30B883C9105A105B10528F073
:1038800082E00E9490020E9486010E94C3266093FB
:10389000BB047093BC048093BD049093BE04FF915D
:1038A000EF91BF91AF919F918F917F916F915F91B8
:1038B0004F913F912F911F910F910F900FBE0F903D
:1038C0001F9018951F920F920FB60F9211240F930D
:1038D0001F932F933F934F935F936F937F938F9398
:1038E0009F93AF93BF93EF93FF93E19A0E94C326F8
:1038F0000091BB041091BC042091BD043091BE0422
:10390000DC01CB01801B910BA20BB30B883C910512
:10391000A105B10528F083E00E9490020E94860173
:103920000E94C3266093BB047093BC048093BD04C3
:103930009093BE04FF91EF91BF91AF919F918F91B2
:103940007F916F915F914F913F912F911F910F91B7
:103950000F900FBE0F901F901895CF92DF92EF92AD
:10396000FF920F931F93CF93DF93CDB7DEB7CD5860
:10397000D1090FB6F894DEBF0FBECDBF8091CF0541
:10398000893769F58091850590918605039708F040
:103990007EC5C0900901D0900A01F6010190002077
:1039A000E9F731978F010C191D0980EF41DB89E799
:1039B0003FDB82E03DDB86E03BDBE12CF12CE016D7
:1039C000F10609F461C5B6016E0D7F1D40E050E0BF
:1039D00081E090E047DC2FEFE21AF20AF0CF00918D
:1039E00085050150843609F4E1C170F48135E9F0B0
:1039F00020F48D3009F42BC24AC58F3509F467C114
:103A0000823609F490C143C58637C1F038F489364F
:103A100009F403C1803709F434C139C5883709F482
:103A2000E4C08A3709F408C132C580EF01DB82E5C2
:103A3000FFDA81E0FDDA87EFFBDA29C51091D105C5
:103A400015FD25C50E9472148091D0052091D105E5
:103A500026FB222720F991E02927912F9871983091
:103A600039F128F4911113C59AD912E007C09031A9
:103A700009F43BC0983109F46BC009C5101788F4EC
:103A8000212F30E0F901EF52FA4F80818795882786
:103A90008795F901E053FA4F9081890FA5D91E5FF0
:103AA000EDCF81E086D983E191E00197F1F7EFC492
:103AB0004091D3056091D205063079F470E030E88A
:103AC000439F600D711D11244091D50547954427F2
:103AD00047959091D405490F06C0479544274795CF
:103AE000460F6FEF7FEF7CDDD2C4E0910801E73035
:103AF00024F086E491E05EDCCAC49091D305309155
:103B0000D205063081F4632F70E040E8949F600D89
:103B1000711D11249091D5059795992797954091FE
:103B2000D405940F06C0979599279795930F6FEF3B
:103B30007FEFEF5FE093080135E0E302F00111242D
:103B4000EF5EF94F808372836183938324839FC4E4
:103B50002091080112163CF490E0622F022E000C16
:103B6000770B35E00FC08FEF8093080190C4349F2E
:103B7000F001359FF00D1124EF5EF94F408184175D
:103B800039F09F5F492F50E06417750784F790E084
:103B900085E0492F50E0641775071CF19830F8F460
:103BA000FA0131968E9FD0018F9FB00D1124AF5E28
:103BB000B94F3C91849FF001859FF00D1124EF5E79
:103BC000F94F308311964D915C9112975283418346
:103BD00013963C911397338314963C9134839F5FE3
:103BE000D8CF21502093080152C4023080F0209198
:103BF000D1058091D00590E040E8249F800D911D73
:103C00001124009721F090931C0380931B03809153
:103C10001A0381113CC42FDD3AC480EF09DA8AE629
:103C200007DA12EF163010F4812F01C08FE700DAA7
:103C30001F5F1630B9F728C48091D1052091D005B7
:103C400030E070E8879F200D311D112430930C0166
:103C500020930B012115310509F419C488E290E085
:103C6000B9010E94C42A709313036093120380ED7C
:103C700097E0B9010E94C42A7093730260937202A4
:103C800006C4053008F403C41091D0058EEF810FEF
:103C9000823108F0FCC38091D4054091D30550E0F7
:103CA00090E8899F400D511D11248091D2056091AB
:103CB000D10570E0E0E88E9F600D711D1124812F09
:103CC0000E94A71164E070E0812F7ED5E0C390913F
:103CD000D0058091D10591111BC09091D5052091FF
:103CE000D40530E0F0E89F9F200D311D1124032EF4
:103CF000000C440B550B9091D3056091D20570E0F8
:103D0000E0E89E9F600D711D11240E949C12BFC3AC
:103D1000913009F0BCC320E030E0A90160E070E020
:103D20000E949C12B4C320911803309119032630CD
:103D300031050CF0ACC38091D005809317039091AE
:103D4000D10590931603F901EE0FFF1FEE0FFF1F31
:103D5000E05AFA4F6091D3054091D20550E070E8E7
:103D6000679F400D511D1124052E000C660B770B2B
:103D70004083518362837383F901E858FA4F80834B
:103D8000F901E65AFA4F90836CE070E01DD56CE0C3
:103D900070E08091160318D5809118039091190353
:103DA0000196909319038093180371C320916E02BA
:103DB00030916F02263031050CF045C08091D0055E
:103DC0009091D105492F50E04631510531F441E041
:103DD000F901E451FB4F40830DC04B30510531F4E4
:103DE0004AE0F901E451FB4F408304C087E591E0CC
:103DF000E1DA4DC3F901EA51FB4F8083F901E0524A
:103E0000FB4F90836FE070E0DFD480916E02909161
:103E10006F020E94080D892B09F039C360916E0270
:103E200070916F026F5F7F4F70936F0260936E02AD
:103E300080917202909173020E94D82A709373024B
:103E40006093720224C38CE891E0B4DA20C38091BD
:103E5000D005FE0131967F019FE711929A95E9F70F
:103E60008E3051F50E94721400E011E0812F0E9403
:103E7000CF1681E00E94D916811105C0F701E00F2D
:103E8000F11D10830F5F1F5F1F3781F780EFD0D8C0
:103E90008DE0CED88EE0CCD8802FCAD8670110E054
:103EA000C6018E199F09801791070CF0EDC2F6012B
:103EB00081916F01BDD8F4CF81119DC08091D10552
:103EC000813009F04DC0E091D205E093C604F0E0E6
:103ED000E953FE4F8081E82FF0E033E0F695E79557
:103EE0003A95E1F79F01220F331FE20FF31FB096BF
:103EF000282F277081E090E001C0880F2A95EAF70B
:103F000080959181982391839281892382830E9455
:103F10006A018091C604823081F480911F0381116F
:103F2000B6C281E080931F03F894E89A80916900FB
:103F30008260809369007894AAC2833009F0A7C296
:103F400080911E038111A3C281E080931E03F89427
:103F5000E99A80916900886080936900789497C29B
:103F6000811195C24091D30550E060E070E0FCE122
:103F7000440F551F661F771FFA95D1F78091D4051E
:103F800090E0A0E0B0E015E1880F991FAA1FBB1FC9
:103F90001A95D1F7482B592B6A2B7B2B8091D5058D
:103FA00090E0A0E0B0E00EE0880F991FAA1FBB1FB1
:103FB0000A95D1F7482B592B6A2B7B2B8091D6057C
:103FC00090E0A0E0B0E027E0880F991FAA1FBB1F78
:103FD0002A95D1F7842B952BA62BB72B2091D705AB
:103FE0002F77BC01CD01622B20E230E04091D20559
:103FF0000E9493034CC2873109F02DC18091D105F5
:1040000081111DC0F090D2050091D305F0E80F9FFB
:10401000800111248091D4058F77082B80EF08D878
:104020008DE006D887E104D822E54FEFB8018F2D47
:104030000E94B604882309F425C281E023C281309E
:1040400009F049C00091D70510E020E030E065E1BB
:10405000000F111F221F331F6A95D1F78091D805D9
:1040600090E0A0E0B0E07EE0880F991FAA1FBB1F80
:104070007A95D1F7082B192B2A2B3B2B8091D90548
:1040800090E0A0E0B0E0E7E0880F991FAA1FBB1FF7
:10409000EA95D1F7082B192B2A2B3B2B8091DA05B7
:1040A0008F77082B4091D50570E8479FA001112418
:1040B0008091D6058F77482B6091D30580E8689F63
:1040C000B00111248091D4058F77682B8091D2059F
:1040D0000E94F008DCC1823039F46091D3058091F0
:1040E000D2050E94A307D3C1833009F079C0C090E4
:1040F000DB05D12CE12CF12CF5E1CC0CDD1CEE1C08
:10410000FF1CFA95D1F78091DC0590E0A0E0B0E0CB
:104110001EE0880F991FAA1FBB1F1A95D1F7C82A46
:10412000D92AEA2AFB2A8091DD0590E0A0E0B0E0E0
:1041300007E0880F991FAA1FBB1F0A95D1F7C82A4D
:10414000D92AEA2AFB2A8091DE058F77C82A0091B6
:10415000D70510E020E030E085E1000F111F221F9D
:10416000331F8A95D1F78091D80590E0A0E0B0E0A8
:104170004EE0880F991FAA1FBB1F4A95D1F7082B45
:10418000192B2A2B3B2B8091D90590E0A0E0B0E0C1
:1041900057E0880F991FAA1FBB1F5A95D1F7082B0C
:1041A000192B2A2B3B2B8091DA058F77082B409116
:1041B000D50590E8499FA00111248091D6058F77FD
:1041C000482B6091D305E0E86E9FB00111248091E7
:1041D000D4058F77682B8091D2050E947E0957C144
:1041E000843039F46091D3058091D2050E948A0A07
:1041F0004EC1853039F46091D3058091D2050E947B
:104200000D0B45C18630F9F40091D80510E02091DE
:10421000D70530E04091D505F0E84F9FA00111246B
:104220008091D6058F77482B6091D30580E8689FF1
:10423000B00111248091D4058F77682B8091D2052D
:104240000E941F0C24C1873009F021C18091D20542
:104250000E944E091CC1893169F58091D1058930D0
:1042600009F015C1F090D2058F2D0E94DA0D8E0154
:1042700000581F4F8CE0F80111928A95E9F7C801A8
:104280000E94800F80EF0E9418188DE00E9418187D
:1042900089E10E9418188F2D0E941818F80180815A
:1042A0000E941818F80181810E94181887EF0E9457
:1042B0001818EDC0813209F092C08091D105863185
:1042C00051F44091D4054E506091D3058091D205B0
:1042D0000E94EF00DCC0823109F0D9C08E01005885
:1042E0001F4F8EE0F80111928A95E9F7C8010E94EC
:1042F000000180EF0E9418188DE00E94181881E2DA
:104300000E941818F80180819181880F892F881FD9
:10431000990B8F770E941818F80180818F770E947F
:104320001818F80182819381880F892F881F990BB3
:104330008F770E941818F80182818F770E941818D1
:10434000F80184819581880F892F881F990B8F77B9
:104350000E941818F80184818F770E941818F801BC
:1043600086819781880F892F881F990B8F770E94EC
:104370001818F80186818F770E941818F801808537
:104380009185880F892F881F990B8F770E941818A5
:10439000F80180858F770E941818F801828593852F
:1043A000880F892F881F990B8F770E941818F801A2
:1043B00082858F770E941818F80184859585880F6B
:1043C000892F881F990B8F770E941818F801848510
:1043D0008F770E94181887EF0E94181858C08332F0
:1043E00009F055C08091D105873081F44091D40502
:1043F000F0E84F9FA00111248091D505482B6091D2
:10440000D3058091D2050E94851041C08A3009F001
:104410003EC0CE0180589F4F0E94B7106B017C01B7
:1044200020E030E0A9015CD687FF04C0F7FAF094E1
:10443000F7F8F094C701B601C4D6162F072F80EF06
:104440000E9418188DE00E94181883E20E94181824
:10445000C058DF4F8881C058D0400E941818802F64
:104460000E941818812F0E94181820E030E048ECB4
:1044700052E4C701B601C1D7A4D6862F64E60E94D4
:10448000B82A892F0E94181887EF0E941818C3575E
:10449000DF4F0FB6F894DEBF0FBECDBFDF91CF91D7
:1044A0001F910F91FF90EF90DF90CF9008951F9391
:1044B000CF93DF93182FEB0180913A0690E06817B5
:1044C0007907A0F0E091B904F091BA0481E0309747
:1044D00099F08093CE058091C0049091C104099514
:1044E00080913A0690E0C817D90728F4C153DA4FF3
:1044F000188380E001C081E0DF91CF911F91089582
:10450000CF92DF92FF920F931F93CF93DF939091FF
:1045100039069923D9F0873F51F410923906DF917B
:10452000CF911F910F91FF90DF90CF9016CA6091AD
:10453000850570918605BBDF809185059091860584
:104540000196909386058093850530C160910F0692
:10455000709110066115710509F4EFC087FDEDC07B
:10456000615071097093100660930F06A0DF80916F
:104570000F0690911006892B09F018C180918405CF
:10458000882309F413C1803D09F4CAC030F480398E
:10459000B1F1803C09F4A5C0CDC0843F09F452C0FC
:1045A000853F09F48EC0803E09F0C4C01091C80553
:1045B000143108F0BFC08091D0058770C091CF053D
:1045C000CF77D0E090E8899FC00DD11D11240091D4
:1045D000D105812FF3D0833039F0843009F0AAC09F
:1045E000CE010E943A12A6C08EEF810F823108F0F0
:1045F000A1C0602F6F77AE01812FADD19BC080919C
:10460000CF050091D00510E090E8899F000D111DA5
:104610001124F090C805FF0CFF0CFF0CC0E0D0E0A7
:10462000CC24C394D12CB6018C2F0C2E01C0660F64
:104630000A94EAF760238F0D17D12196C830D1056F
:1046400091F778C0D091CF050D2F10E0C091D00523
:104650008C2FB4D08F3709F46DC08EEF8C0F823160
:10466000E8F4EC2FE695E695E6952C2F2770F0E020
:10467000EF57FA4F81E090E001C0880F2A95EAF7E2
:104680000115110519F00B30110521F49081892BCA
:10469000808304C08095908189238083B8018C2F0A
:1046A00093D0D23009F046C0CE5081E090E001C0F6
:1046B000880FCA95EAF790911D03892B80931D03FB
:1046C00039C0C091D0058EEF8C0F823198F5D09112
:1046D000CF058C2F73D0813069F56D2F8C2FC4D00E
:1046E00029C04091C805463028F58091CF055091EA
:1046F0001D0381110BC081E090E001C0880F4A9535
:10470000EAF78095852380931D0314C021E030E0F3
:1047100001C0220F4A95EAF7252B20931D030AC0FA
:10472000E091C805E33030F4F0E0E258FA4F8091B0
:10473000CF0580831092840539C0803F28F4982FDC
:104740009F709093C805807F803EB1F038F4803C24
:1047500029F1803D19F1803949F517C0843FA9F04E
:10476000853F99F0803F11F581E0809339061092E2
:104770008605109285051AC023E030E030931006BC
:1047800020930F068093840511C022E030E030931F
:10479000100620930F068093840508C021E030E0C6
:1047A0003093100620930F0680938405DF91CF91FC
:1047B0001F910F91FF90DF90CF900895E82FF0E0C8
:1047C000E55CF94F8081089590E0FC01E55CF94FCC
:1047D00020812F3709F447C060836115710521F0EE
:1047E0006130710511F10895FC01E95EFD4F808192
:1047F000E82FF0E033E0F695E7953A95E1F79F0171
:10480000220F331FE20FF31FB096282F277081E08D
:1048100090E001C0880F2A95EAF78095918198234E
:1048200091839281892382830895FC01E95EFD4F83
:10483000E0818E2F877001C0660F8A95EAF7F0E05D
:1048400083E0F695E7958A95E1F7CF01880F991FE8
:10485000E80FF91FB096862F809592818923828375
:104860008181682B61830895E82FF0E0E95EFD4FB8
:10487000E0819E2F977021E030E0A90102C0440F33
:10488000551F9A95E2F7CA01F0E093E0F695E79597
:104890009A95E1F79F01220F331FE20FF31FB096A5
:1048A000282F20953281322332833181382B318376
:1048B000662321F09281892B8283089582812823A7
:1048C00022830895E82FF0E0E95EFD4FE0812E2F6E
:1048D000277081E090E001C0880F2A95EAF7F0E0A8
:1048E00093E0F695E7959A95E1F79F01220F331F24
:1048F000E20FF31FDF019096982F909511962C915F
:104900001197292311962C93119712962C91129797
:10491000922312969C9390A1982381E009F480E061
:10492000089590917A00906490937A0090917A0023
:1049300094FFFCCF806480937C0080917A00806437
:1049400080937A0080917A0086FDFCCF8091780078
:104950009091790008952F923F924F925F926F92BB
:104960007F928F929F92AF92BF92CF92DF92EF92FF
:10497000FF920F931F93CF93DF93C82FD0E0FE01D8
:10498000E95EFD4F0081902F977021E030E0190122
:1049900001C0220C9A95EAF710E073E0169507958E
:1049A0007A95E1F79801220F331F020F131F005E63
:1049B0001F4F922D9095F80122819223928391812D
:1049C00092299183F4E0CC0FDD1FFA95E1F766237D
:1049D00019F0643639F461E047DFC05EDC4F1F86B2
:1049E0001E866EC0FE01E05EFC4F88EC90E093876F
:1049F000828787E390E0958784874115510511F000
:104A000053874287C05EDC4FE62EF12CFD86EC8694
:104A1000CC24C394D12CDF86CE862A853B85032EF9
:104A2000000C440B550B60E970ED83E090E0F5D588
:104A300049015A01F1E08F1A9108A108B108C50196
:104A4000B401EDD320E030E048EC52E44DD32B012B
:104A50003C01B7010F2C000C880B990BE0D39B0194
:104A6000AC01C301B201C9D42BD5A6D32B013C01A3
:104A700079836883C501B401D2D320E030E048ECEB
:104A800052E432D34B015C0164E670E06E197F0999
:104A9000072E000C880B990BC2D39B01AC01C501FA
:104AA000B401ABD40DD588D37B836A835D824C82FD
:104AB000DF82CE8219861886F8018281282A228216
:104AC000E0E2F3E080E090E020E030E046855785CA
:104AD0004130510541F4DC01AA0FBB1FA15BB94F66
:104AE0002D933C9301962F5F3F4F709624313105F3
:104AF00069F79093610480936004F89410928000A9
:104B000010928100109285001092840081E090E064
:104B100090938900809388008091810088608093C1
:104B2000810080918100816080938100809181006B
:104B300082608093810080916F00846080936F0019
:104B40007894DF91CF911F910F91FF90EF90DF90BC
:104B5000CF90BF90AF909F908F907F906F905F901D
:104B60004F903F902F9008951F920F920FB60F9283
:104B700011244F925F927F928F929F92AF92BF9239
:104B8000CF92DF92EF92FF920F931F932F933F9359
:104B90004F935F936F937F938F939F93AF93BF9345
:104BA000CF93DF93EF93FF930E941218882361F055
:104BB00080916204909163040196909363048093C2
:104BC00062040E942018F0CF40904F06509050068B
:104BD00080906004909061049FE4A92E96E0B92E25
:104BE0008501E0E0F0E0A201A4E0440F551FAA9582
:104BF000E1F7E815F9050CF054C0E801A991B99165
:104C00008E01BD0184E0660F771F8A95E1F7CB0125
:104C1000805E9C4F7C01EC0128853985213031056F
:104C200081F5CD01895E9D4FEC017880872D90E064
:104C3000C3E096958795CA95E1F76C01CC0CDD1C15
:104C40008C0D9D1D8096E701EE80FF80D72DD770DB
:104C50007D2EEC01EF2839F0FA8001C0220F7A9402
:104C6000EAF72F2907C0FA8001C0220F7A94EAF7E9
:104C700020952F212A83CB01805E9C4FEC01198661
:104C80001886605E7C4F405E5C4FEB012C813D815D
:104C9000EA018C819D81821793070CF02D013196DA
:104CA000A2CFFA01E05EFC4F4481558120E030E064
:104CB00061E070E028153905F4F5F50181919191D5
:104CC0005F01DC01E4E0AA0FBB1FEA95E1F7FD01FB
:104CD000E05EFC4FC481D581C41BD50BD583C48352
:104CE000CD2B31F5C681D781219719F4C281D381AB
:104CF00002C0C081D181D583C483A05EBC4F16960B
:104D0000CD91DC911797FC01FF2784E0EE0FFF1F88
:104D10008A95E1F7E05EFC4F7187608781E090E063
:104D2000CD2B11F080E090E017969C938E93169710
:104D30002F5F3F4FBFCF5093890040938800109260
:104D4000850010928400FF91EF91DF91CF91BF9188
:104D5000AF919F918F917F916F915F914F913F9113
:104D60002F911F910F91FF90EF90DF90CF90BF9008
:104D7000AF909F908F907F905F904F900F900FBE5D
:104D80000F901F9018952FB7F8946091650470915B
:104D9000660480916704909168042FBF08951F9264
:104DA0000F920FB60F9211242F933F938F939F93DF
:104DB000AF93BF938091650490916604A0916704BE
:104DC000B09168043091640423E0230F2D3720F460
:104DD0000196A11DB11D05C026E8230F0296A11D55
:104DE000B11D209364048093650490936604A0939E
:104DF0006704B09368048091690490916A04A0915B
:104E00006B04B0916C040196A11DB11D80936904DF
:104E100090936A04A0936B04B0936C04BF91AF911C
:104E20009F918F913F912F910F900FBE0F901F90E8
:104E300018951F920F920FB60F9211242F934F9334
:104E40005F938F939F93EF93FF932091C600809180
:104E50006D0490916E04AC014F5F5F4F50936E04F0
:104E600040936D04FC01E157FB4F2083FF91EF91CC
:104E70009F918F915F914F912F910F900FBE0F9047
:104E80001F901895E1ECF0E080818068808380813C
:104E900080618083E2ECF0E08081846080838081A7
:104EA000826080830895CF93DF93CDB7DEB72797D5
:104EB0000FB6F894DEBF0FBECDBF80E091EEA0E04C
:104EC000B0E089839A83AB83BC8383E08D831E82A9
:104ED0001F82BE016F5F7F4F80EC90E00E94A3189D
:104EE0000E94E617789484B5826084BD84B58160A1
:104EF00084BD85B5826085BD85B5816085BD8091A5
:104F00006E00816080936E0010928100809181001C
:104F10008260809381008091810081608093810014
:104F2000809180008160809380008091B1008460D6
:104F30008093B1008091B00081608093B00087E8D9
:104F400080937A000E944F1A0E9487129BDF0E9472
:104F5000611A80916D0490916E04009711F040E009
:104F600038C011DF609377067093780680937906D6
:104F700090937A06C0907B06D0907C06E0907D06E8
:104F8000F0907E0620910B0130910C01890120E008
:104F900030E0AB01BC014C195D096E097F090417B3
:104FA00015072607370798F6D701C601800F911F0E
:104FB000A21FB31F80937B0690937C06A0937D066F
:104FC000B0937E060E94BF1B0E944E1B0E94D01A07
:104FD000BECF242F30E02817390754F4F901E159E6
:104FE000FB4FD901A157BB4F2C9120834F5FF1CFCD
:104FF000182F10926E0410926D048FE6E82E84E054
:10500000F82E00E0011708F0ACCFF70181917F0185
:1050100077DA0F5FF7CF5058BB27AA270ED0B3C15E
:10502000A4D130F0A9D120F031F49F3F11F41EF447
:1050300099C10EF4E095E7FB8FC1E92FB5D180F35C
:10504000BA17620773078407950718F071F49EF585
:10505000CDC10EF4E0950B2EBA2FA02D0B01B90196
:1050600090010C01CA01A0011124FF27591B99F0DE
:10507000593F50F4503E68F11A16F040A22F232FEA
:10508000342F4427585FF3CF469537952795A7953A
:10509000F0405395C9F77EF41F16BA0B620B730BE1
:1050A000840BBAF09150A1F0FF0FBB1F661F771F52
:1050B000881FC2F70EC0BA0F621F731F841F48F407
:1050C000879577956795B795F7959E3F08F0B3CF8D
:1050D0009395880F08F09927EE0F97958795089577
:1050E00017D108F481E008950CD04DC145D140F0AE
:1050F0003CD130F021F45F3F19F02EC1511177C13E
:1051000031C152D198F39923C9F35523B1F3951BBB
:10511000550BBB27AA2762177307840738F09F5FD8
:105120005F4F220F331F441FAA1FA9F333D00E2E47
:105130003AF0E0E830D091505040E695001CCAF7B4
:1051400029D0FE2F27D0660F771F881FBB1F261779
:1051500037074807AB07B0E809F0BB0B802DBF014C
:10516000FF2793585F4F2AF09E3F510568F0F4C027
:105170003EC15F3FECF3983EDCF3869577956795EB
:10518000B795F7959F5FC9F7880F911D96958795FD
:1051900097F90895E1E0660F771F881FBB1F62171C
:1051A00073078407BA0720F0621B730B840BBA0BDA
:1051B000EE1F88F7E095089504D06894B11117C1E7
:1051C0000895FAD088F09F5790F0B92F9927B751DA
:1051D000A0F0D1F0660F771F881F991F1AF0BA95BB
:1051E000C9F712C0B13081F001D1B1E00895FEC01D
:1051F000672F782F8827B85F39F0B93FCCF38695B1
:1052000077956795B395D9F73EF49095809570950D
:1052100061957F4F8F4F9F4F0895E89409C097FB8A
:105220003EF490958095709561957F4F8F4F9F4F7D
:105230009923A9F0F92F96E9BB279395F6958795C1
:1052400077956795B795F111F8CFFAF4BB0F11F484
:1052500060FF1BC06F5F7F4F8F4F9F4F16C088232B
:1052600011F096E911C0772321F09EE8872F762F61
:1052700005C0662371F096E8862F70E060E02AF0A2
:105280009A95660F771F881FDAF7880F969587958E
:1052900097F90895E894F92F96EBFF2381F0121601
:1052A00013061406440B9395F695879577956795A5
:1052B00057954040FF23B9F71BC0992708958823CD
:1052C00051F49850D2F7872B762F652F542F432F08
:1052D000322F20E0B1F3121613061406440B882374
:1052E0003AF09A95440F551F661F771F881FCAF71B
:1052F00055234AF4440F551F11F460FF04C06F5F3B
:105300007F4F8F4F9F4F880F9695879597F90895F8
:10531000990F0008550FAA0BE0E8FEEF16161706C6
:10532000E807F907C0F012161306E407F50798F02E
:10533000621B730B840B950B39F40A2661F0232B47
:10534000242B252B21F408950A2609F4A140A695C3
:105350008FEF811D811D089597F99F6780E870E0A8
:1053600060E008959FEF80EC089500240A941616DB
:10537000170618060906089500240A941216130643
:10538000140605060895092E0394000C11F48823D1
:1053900052F0BB0F40F4BF2B11F460FF04C06F5FED
:1053A0007F4F8F4F9F4F089557FD9058440F551FC3
:1053B00059F05F3F71F04795880F97FB991F61F097
:1053C0009F3F79F087950895121613061406551F0E
:1053D000F2CF4695F1DF08C0161617061806991F7A
:1053E000F1CF86957105610508940895E894BB276F
:1053F00066277727CB0197F908950BD0C4CFB5DF87
:1054000028F0BADF18F0952309F0A6CFABCF11240E
:10541000EECFCADFA0F3959FD1F3950F50E0551F53
:10542000629FF001729FBB27F00DB11D639FAA27F9
:10543000F00DB11DAA1F649F6627B00DA11D661F48
:10544000829F2227B00DA11D621F739FB00DA11D69
:10545000621F839FA00D611D221F749F3327A00D23
:10546000611D231F849F600D211D822F762F6A2FBF
:1054700011249F5750408AF0E1F088234AF0EE0F44
:10548000FF1FBB1F661F771F881F91505040A9F751
:105490009E3F510570F060CFAACF5F3FECF3983E7E
:1054A000DCF3869577956795B795F795E7959F5FB8
:1054B000C1F7FE2B880F911D9695879597F9089552
:1054C0007BDFE0F09E37D8F09639B8F49E3848F488
:1054D000672F782F8827985FF9CF869577956795FE
:1054E00093959539D0F3B62FB1706B0F711D811D57
:1054F00020F4879577956795939502C01CC077CF68
:10550000882371F4772321F09850872B762F07C0DA
:10551000662311F499270DC09051862B70E060E04E
:105520002AF09A95660F771F881FDAF7880F9695ED
:10553000879597F908959F3F31F0915020F4879512
:1055400077956795B795880F911D9695879597F9EB
:105550000895DB018F939F938BD0BF91AF91A29F52
:10556000800D911DA39F900DB29F900D1124089561
:10557000991B79E004C0991F961708F0961B881FA5
:105580007A95C9F780950895AA1BBB1B51E107C006
:10559000AA1FBB1FA617B70710F0A61BB70B881FC3
:1055A000991F5A95A9F780959095BC01CD01089552
:1055B00097FB072E16F4009406D077FD08D0E4DFA1
:1055C00007FC05D03EF4909581959F4F0895709506
:1055D00061957F4F0895A1E21A2EAA1BBB1BFD0106
:1055E0000DC0AA1FBB1FEE1FFF1FA217B307E407C2
:1055F000F50720F0A21BB30BE40BF50B661F771F1A
:10560000881F991F1A9469F76095709580959095F9
:105610009B01AC01BD01CF010895052E97FB16F447
:1056200000940FD057FD05D0D6DF07FC02D046F41A
:1056300008C050954095309521953F4F4F4F5F4F93
:10564000089590958095709561957F4F8F4F9F4FEE
:105650000895A29FB001B39FC001A39F700D811D4B
:105660001124911DB29F700D811D1124911D08956B
:10567000F0DFA59F900DB49F900DA49F800D911D0C
:1056800011240895B7FFF4CFF3DF821B930B089525
:10569000DF93CF931F930F939A9DF02D219FF00DD1
:1056A0008B9DF00D8A9DE02DF10D039FF00D029F63
:1056B000E00DF11D4E9DE00DF11D5E9DF00D4F9D25
:1056C000F00D7F936F93BF92AF925F934F93D5018D
:1056D000C0DF8B01AC01D701BCDFEB01E80FF91F84
:1056E000D6011FD02F913F91D601B3DFC60FD71F30
:1056F000E81FF91FAF91BF9114D02F913F91A9DFFF
:10570000C60FD71FE81FF91FD601A3DFE60FF71F4B
:105710009801BE01CF0111240F911F91CF91DF910C
:10572000089597DF460F571FC81FD91F08F43196F9
:105730000895689401C0E8948F929F92CF93DF936D
:1057400005D0DF91CF919F908F9008958824992460
:10575000F401E401B0E49F93AA279A158B049C04FA
:10576000ED05FE05CF05D007A10798F4AD2FDC2F7E
:10577000CF2FFE2FE92D982C892E982F872F762F4B
:10578000652F542F432F322F2227B85031F7BF9166
:1057900027C01B2EBF91BB27220F331F441F551F4D
:1057A000661F771F881F991F881C991CEE1FFF1FFB
:1057B000CC1FDD1FAA1FBB1F8A149B04EC05FD052F
:1057C000CE05DF05A007B10748F08A189B08EC0951
:1057D000FD09CE09DF09A00BB10B21601A94E1F697
:1057E0002EF49401AF01BE01CD01000C08950F937A
:1057F0001F93CF93DF938230910510F482E090E005
:10580000E0918106F091820620E030E0A0E0B0E077
:10581000309719F14081518102811381481759074E
:10582000C8F08417950769F4109731F012960C931D
:10583000129713961C9327C000938106109382063B
:1058400022C02115310519F04217530718F49A01A7
:10585000BD01EF01DF01F801DBCF21153105F9F0C2
:10586000281B390B2430310580F48A819B81611516
:10587000710521F0FB019383828304C0909382061B
:1058800080938106FE01329644C0FE01E20FF31FB1
:105890008193919322503109398328833AC0209112
:1058A0007F0630918006232B41F420910201309134
:1058B00003013093800620937F06209100013091F0
:1058C00001012115310541F42DB73EB74091040186
:1058D00050910501241B350BE0917F06F091800665
:1058E000E217F307A0F42E1B3F0B2817390778F0B7
:1058F000AC014E5F5F4F2417350748F04E0F5F1F16
:105900005093800640937F068193919302C0E0E01C
:10591000F0E0CF01DF91CF911F910F910895CF93C8
:10592000DF93009709F481C0FC0132971382128241
:10593000A0918106B0918206109781F42081318177
:10594000820F931F20917F06309180062817390718
:1059500051F5F0938006E0937F0667C0ED0120E0EB
:1059600030E0CE17DF0740F44A815B819E0141158C
:105970005105F1F0EA01F5CFD383C2834081518113
:10598000840F951FC817D90759F488819981840F0E
:10599000951F0296918380838A819B819383828362
:1059A0002115310529F4F0938206E09381063DC06C
:1059B000E901FB83EA8349915991C40FD51FEC1784
:1059C000FD0761F480819181840F951F0296E901A2
:1059D00099838883828193819B838A83E0E0F0E0CE
:1059E00012968D919C911397009719F0FD01DC019F
:1059F000F7CF8D919C9111979D012E5F3F4F820FA4
:105A0000931F20917F06309180062817390769F48B
:105A1000309729F4109282061092810602C01382F8
:105A20001282B0938006A0937F06DF91CF910895F4
:105A3000DC0101C06D9341505040E0F70895F894A7
:025A4000FFCF96
:105A42000000830620000CFFFF0D011300444652A4
:105A52006F626F74206669726D617461000018195B
:105A62001A1B1C1D1E1F08090A0B0C0D1011121304
:105A7200141518191A1B1C1D1E1F08090A0B0C0DE0
:105A8200101112131415746F6F206D616E792071ED
:105A9200756572696573004552524F523A20554EF0
:105AA2004B4E4F574E2053454E534F522054595050
:105AB200452C2056414C49442053454E534F525396
:105AC200204152452031312C203232004448545F6B
:105AD200434F4E464947204572726F723A204578CD
